{
  "contractName": "Contract",
  "abi": [
    {
      "inputs": [
        {
          "internalType": "string",
          "name": "",
          "type": "string"
        }
      ],
      "name": "cars",
      "outputs": [
        {
          "internalType": "string",
          "name": "id",
          "type": "string"
        },
        {
          "internalType": "string",
          "name": "marca",
          "type": "string"
        },
        {
          "internalType": "string",
          "name": "modello",
          "type": "string"
        }
      ],
      "stateMutability": "view",
      "type": "function",
      "constant": true
    },
    {
      "inputs": [
        {
          "internalType": "uint256",
          "name": "",
          "type": "uint256"
        }
      ],
      "name": "loans",
      "outputs": [
        {
          "internalType": "uint256",
          "name": "id",
          "type": "uint256"
        },
        {
          "internalType": "int256",
          "name": "amount",
          "type": "int256"
        }
      ],
      "stateMutability": "view",
      "type": "function",
      "constant": true
    },
    {
      "inputs": [
        {
          "internalType": "uint256",
          "name": "",
          "type": "uint256"
        }
      ],
      "name": "orders",
      "outputs": [
        {
          "internalType": "uint256",
          "name": "id",
          "type": "uint256"
        },
        {
          "internalType": "int256",
          "name": "price",
          "type": "int256"
        }
      ],
      "stateMutability": "view",
      "type": "function",
      "constant": true
    },
    {
      "inputs": [
        {
          "internalType": "string",
          "name": "car_id",
          "type": "string"
        },
        {
          "internalType": "int256",
          "name": "price",
          "type": "int256"
        }
      ],
      "name": "request_to_buy",
      "outputs": [
        {
          "components": [
            {
              "internalType": "uint256",
              "name": "id",
              "type": "uint256"
            },
            {
              "internalType": "string[]",
              "name": "Car_id",
              "type": "string[]"
            },
            {
              "internalType": "uint256[]",
              "name": "Loan_id",
              "type": "uint256[]"
            },
            {
              "internalType": "int256",
              "name": "price",
              "type": "int256"
            }
          ],
          "internalType": "struct ContractInterface.Order",
          "name": "o",
          "type": "tuple"
        }
      ],
      "stateMutability": "nonpayable",
      "type": "function"
    },
    {
      "inputs": [
        {
          "internalType": "uint256",
          "name": "order_id",
          "type": "uint256"
        },
        {
          "internalType": "int256",
          "name": "amount",
          "type": "int256"
        }
      ],
      "name": "grant_loan",
      "outputs": [
        {
          "components": [
            {
              "internalType": "uint256",
              "name": "id",
              "type": "uint256"
            },
            {
              "internalType": "uint256[]",
              "name": "Order_id",
              "type": "uint256[]"
            },
            {
              "internalType": "int256",
              "name": "amount",
              "type": "int256"
            }
          ],
          "internalType": "struct ContractInterface.Loan",
          "name": "l",
          "type": "tuple"
        }
      ],
      "stateMutability": "nonpayable",
      "type": "function"
    },
    {
      "inputs": [
        {
          "internalType": "string",
          "name": "marca",
          "type": "string"
        },
        {
          "internalType": "string",
          "name": "modello",
          "type": "string"
        },
        {
          "internalType": "string",
          "name": "targa",
          "type": "string"
        }
      ],
      "name": "add_car",
      "outputs": [],
      "stateMutability": "nonpayable",
      "type": "function"
    }
  ],
  "bytecode": "0x608060405234801561001057600080fd5b50611357806100206000396000f3fe608060405234801561001057600080fd5b50600436106100625760003560e01c80632772dca414610067578063394a9c331461008357806341a2d180146100b357806358f4580c146100e5578063a85c38ef14610115578063e1ec3c6814610146575b600080fd5b610081600480360381019061007c9190610c27565b610177565b005b61009d60048036038101906100989190610d04565b610219565b6040516100aa9190610feb565b60405180910390f35b6100cd60048036038101906100c8919061100d565b6104a0565b6040516100dc939291906110a0565b60405180910390f35b6100ff60048036038101906100fa9190611118565b610678565b60405161010c91906111a8565b60405180910390f35b61012f600480360381019061012a91906111ca565b610847565b60405161013d929190611215565b60405180910390f35b610160600480360381019061015b91906111ca565b61087b565b60405161016e929190611215565b60405180910390f35b61017f6108af565b828160400181905250838160200181905250818160000181905250806000836040516101ab919061127a565b908152602001604051809103902060008201518160000190805190602001906101d59291906108d0565b5060208201518160010190805190602001906101f29291906108d0565b50604082015181600201908051906020019061020f9291906108d0565b5090505050505050565b610221610956565b610229610956565b60018054905081600001818152505082816060018181525050600181908060018154018082558091505060019003906000526020600020906004020160009091909190915060008201518160000155602082015181600101908051906020019061029492919061097e565b5060408201518160020190805190602001906102b19291906109de565b5060608201518160030155505060018160000151815481106102d6576102d5611291565b5b9060005260206000209060040201600101849080600181540180825580915050600190039060005260206000200160009091909190915090805190602001906103209291906108d0565b50600181600001518154811061033957610338611291565b5b90600052602060002090600402016040518060800160405290816000820154815260200160018201805480602002602001604051908101604052809291908181526020016000905b8282101561042d5783829060005260206000200180546103a0906112ef565b80601f01602080910402602001604051908101604052809291908181526020018280546103cc906112ef565b80156104195780601f106103ee57610100808354040283529160200191610419565b820191906000526020600020905b8154815290600101906020018083116103fc57829003601f168201915b505050505081526020019060010190610381565b5050505081526020016002820180548060200260200160405190810160405280929190818152602001828054801561048457602002820191906000526020600020905b815481526020019060010190808311610470575b5050505050815260200160038201548152505091505092915050565b6000818051602081018201805184825260208301602085012081835280955050505050506000915090508060000180546104d9906112ef565b80601f0160208091040260200160405190810160405280929190818152602001828054610505906112ef565b80156105525780601f1061052757610100808354040283529160200191610552565b820191906000526020600020905b81548152906001019060200180831161053557829003601f168201915b505050505090806001018054610567906112ef565b80601f0160208091040260200160405190810160405280929190818152602001828054610593906112ef565b80156105e05780601f106105b5576101008083540402835291602001916105e0565b820191906000526020600020905b8154815290600101906020018083116105c357829003601f168201915b5050505050908060020180546105f5906112ef565b80601f0160208091040260200160405190810160405280929190818152602001828054610621906112ef565b801561066e5780601f106106435761010080835404028352916020019161066e565b820191906000526020600020905b81548152906001019060200180831161065157829003601f168201915b5050505050905083565b610680610a2b565b610688610a2b565b60028054905081600001818152505082816040018181525050600184815481106106b5576106b4611291565b5b9060005260206000209060040201600201600280549050908060018154018082558091505060019003906000526020600020016000909190919091505560028190806001815401808255809150506001900390600052602060002090600302016000909190919091506000820151816000015560208201518160010190805190602001906107449291906109de565b50604082015181600201555050600281600001518154811061076957610768611291565b5b906000526020600020906003020160010184908060018154018082558091505060019003906000526020600020016000909190919091505560028160000151815481106107b9576107b8611291565b5b9060005260206000209060030201604051806060016040529081600082015481526020016001820180548060200260200160405190810160405280929190818152602001828054801561082b57602002820191906000526020600020905b815481526020019060010190808311610817575b5050505050815260200160028201548152505091505092915050565b6001818154811061085757600080fd5b90600052602060002090600402016000915090508060000154908060030154905082565b6002818154811061088b57600080fd5b90600052602060002090600302016000915090508060000154908060020154905082565b60405180606001604052806060815260200160608152602001606081525090565b8280546108dc906112ef565b90600052602060002090601f0160209004810192826108fe5760008555610945565b82601f1061091757805160ff1916838001178555610945565b82800160010185558215610945579182015b82811115610944578251825591602001919060010190610929565b5b5090506109529190610a4c565b5090565b6040518060800160405280600081526020016060815260200160608152602001600081525090565b8280548282559060005260206000209081019282156109cd579160200282015b828111156109cc5782518290805190602001906109bc9291906108d0565b509160200191906001019061099e565b5b5090506109da9190610a69565b5090565b828054828255906000526020600020908101928215610a1a579160200282015b82811115610a195782518255916020019190600101906109fe565b5b509050610a279190610a4c565b5090565b60405180606001604052806000815260200160608152602001600081525090565b5b80821115610a65576000816000905550600101610a4d565b5090565b5b80821115610a895760008181610a809190610a8d565b50600101610a6a565b5090565b508054610a99906112ef565b6000825580601f10610aab5750610aca565b601f016020900490600052602060002090810190610ac99190610a4c565b5b50565b6000604051905090565b600080fd5b600080fd5b600080fd5b600080fd5b6000601f19601f8301169050919050565b7f4e487b7100000000000000000000000000000000000000000000000000000000600052604160045260246000fd5b610b3482610aeb565b810181811067ffffffffffffffff82111715610b5357610b52610afc565b5b80604052505050565b6000610b66610acd565b9050610b728282610b2b565b919050565b600067ffffffffffffffff821115610b9257610b91610afc565b5b610b9b82610aeb565b9050602081019050919050565b82818337600083830152505050565b6000610bca610bc584610b77565b610b5c565b905082815260208101848484011115610be657610be5610ae6565b5b610bf1848285610ba8565b509392505050565b600082601f830112610c0e57610c0d610ae1565b5b8135610c1e848260208601610bb7565b91505092915050565b600080600060608486031215610c4057610c3f610ad7565b5b600084013567ffffffffffffffff811115610c5e57610c5d610adc565b5b610c6a86828701610bf9565b935050602084013567ffffffffffffffff811115610c8b57610c8a610adc565b5b610c9786828701610bf9565b925050604084013567ffffffffffffffff811115610cb857610cb7610adc565b5b610cc486828701610bf9565b9150509250925092565b6000819050919050565b610ce181610cce565b8114610cec57600080fd5b50565b600081359050610cfe81610cd8565b92915050565b60008060408385031215610d1b57610d1a610ad7565b5b600083013567ffffffffffffffff811115610d3957610d38610adc565b5b610d4585828601610bf9565b9250506020610d5685828601610cef565b9150509250929050565b6000819050919050565b610d7381610d60565b82525050565b600081519050919050565b600082825260208201905092915050565b6000819050602082019050919050565b600081519050919050565b600082825260208201905092915050565b60005b83811015610ddf578082015181840152602081019050610dc4565b83811115610dee576000848401525b50505050565b6000610dff82610da5565b610e098185610db0565b9350610e19818560208601610dc1565b610e2281610aeb565b840191505092915050565b6000610e398383610df4565b905092915050565b6000602082019050919050565b6000610e5982610d79565b610e638185610d84565b935083602082028501610e7585610d95565b8060005b85811015610eb15784840389528151610e928582610e2d565b9450610e9d83610e41565b925060208a01995050600181019050610e79565b50829750879550505050505092915050565b600081519050919050565b600082825260208201905092915050565b6000819050602082019050919050565b6000610efb8383610d6a565b60208301905092915050565b6000602082019050919050565b6000610f1f82610ec3565b610f298185610ece565b9350610f3483610edf565b8060005b83811015610f65578151610f4c8882610eef565b9750610f5783610f07565b925050600181019050610f38565b5085935050505092915050565b610f7b81610cce565b82525050565b6000608083016000830151610f996000860182610d6a565b5060208301518482036020860152610fb18282610e4e565b91505060408301518482036040860152610fcb8282610f14565b9150506060830151610fe06060860182610f72565b508091505092915050565b600060208201905081810360008301526110058184610f81565b905092915050565b60006020828403121561102357611022610ad7565b5b600082013567ffffffffffffffff81111561104157611040610adc565b5b61104d84828501610bf9565b91505092915050565b600082825260208201905092915050565b600061107282610da5565b61107c8185611056565b935061108c818560208601610dc1565b61109581610aeb565b840191505092915050565b600060608201905081810360008301526110ba8186611067565b905081810360208301526110ce8185611067565b905081810360408301526110e28184611067565b9050949350505050565b6110f581610d60565b811461110057600080fd5b50565b600081359050611112816110ec565b92915050565b6000806040838503121561112f5761112e610ad7565b5b600061113d85828601611103565b925050602061114e85828601610cef565b9150509250929050565b60006060830160008301516111706000860182610d6a565b50602083015184820360208601526111888282610f14565b915050604083015161119d6040860182610f72565b508091505092915050565b600060208201905081810360008301526111c28184611158565b905092915050565b6000602082840312156111e0576111df610ad7565b5b60006111ee84828501611103565b91505092915050565b61120081610d60565b82525050565b61120f81610cce565b82525050565b600060408201905061122a60008301856111f7565b6112376020830184611206565b9392505050565b600081905092915050565b600061125482610da5565b61125e818561123e565b935061126e818560208601610dc1565b80840191505092915050565b60006112868284611249565b915081905092915050565b7f4e487b7100000000000000000000000000000000000000000000000000000000600052603260045260246000fd5b7f4e487b7100000000000000000000000000000000000000000000000000000000600052602260045260246000fd5b6000600282049050600182168061130757607f821691505b6020821081141561131b5761131a6112c0565b5b5091905056fea264697066735822122022a8dc8328df4593c0d53e3c3a128a8819bce0a3daad0cc96e9fb77b21ef8b6064736f6c634300080a0033",
  "immutableReferences": {},
  "source": "// SPDX-License-Identifier: CC-BY-SA-4.0\npragma solidity >=0.7.0 <0.9.0;\n\n// Business Logic inside this showcase contract\n\n\ninterface ContractInterface \n{\n   struct Car\n    {\n        string id; //targa\n        string marca;\n        string modello;\n    }\n\n    struct Order\n    {\n        uint256 id;\n        string[] Car_id;\n        uint256[] Loan_id;\n        int price;\n    }\n\n    struct Loan\n    {\n        uint256 id;\n        uint256[] Order_id;\n        int amount;\n    }\n\n    function request_to_buy(string memory car_id, int price) external returns (Order memory o);\n    function grant_loan(uint256 order_id, int amount) external returns (Loan memory l);\n}\n\n\n\n\ncontract Contract is ContractInterface{\n\n    mapping(string => Car) public cars;\n    Order[] public orders;\n    Loan[] public loans;\n\n\n    function request_to_buy(string memory car_id, int price) external returns (Order memory o)\n    {\n        Order memory order;\n        order.id=orders.length;\n        order.price = price;\n\n        orders.push(order);\n        orders[order.id].Car_id.push(car_id);\n        return orders[order.id];\n    }\n\n    function grant_loan(uint256 order_id, int amount) external returns (Loan memory l)\n    {\n        Loan memory loan;\n        loan.id = loans.length;\n        loan.amount = amount;\n        orders[order_id].Loan_id.push(loans.length);\n\n        loans.push(loan);\n        loans[loan.id].Order_id.push(order_id);\n        return loans[loan.id];\n    }\n\n\n    function add_car(string memory marca, string memory modello, string memory targa) public\n    {\n        Car memory car;\n        car.modello = modello;\n        car.marca = marca;\n        car.id = targa;\n\n        cars[targa] = car;\n    }\n\n\n}",
  "sourcePath": "/home/andrea/Scrivania/Master-Thesis/Truffle/pattern_1/contracts/Contract.sol",
  "compiler": {
    "name": "solc",
    "version": "0.8.10+commit.fc410830.Emscripten.clang"
  },
  "schemaVersion": "3.4.3",
  "updatedAt": "2022-09-06T20:14:15.788Z",
  "networkType": "ethereum",
  "devdoc": {
    "kind": "dev",
    "methods": {},
    "version": 1
  },
  "userdoc": {
    "kind": "user",
    "methods": {},
    "version": 1
  }
}