{
  "contractName": "Wrapper",
  "abi": [
    {
      "inputs": [
        {
          "internalType": "address",
          "name": "add",
          "type": "address"
        }
      ],
      "stateMutability": "nonpayable",
      "type": "constructor"
    },
    {
      "anonymous": false,
      "inputs": [
        {
          "components": [
            {
              "internalType": "uint256",
              "name": "id",
              "type": "uint256"
            },
            {
              "internalType": "uint256[]",
              "name": "Order_id",
              "type": "uint256[]"
            },
            {
              "internalType": "int256",
              "name": "amount",
              "type": "int256"
            }
          ],
          "indexed": false,
          "internalType": "struct ContractInterface.Loan",
          "name": "par0",
          "type": "tuple"
        }
      ],
      "name": "call_grant_loan",
      "type": "event"
    },
    {
      "anonymous": false,
      "inputs": [
        {
          "components": [
            {
              "internalType": "uint256",
              "name": "id",
              "type": "uint256"
            },
            {
              "internalType": "string[]",
              "name": "Car_id",
              "type": "string[]"
            },
            {
              "internalType": "uint256[]",
              "name": "Loan_id",
              "type": "uint256[]"
            },
            {
              "internalType": "int256",
              "name": "price",
              "type": "int256"
            }
          ],
          "indexed": false,
          "internalType": "struct ContractInterface.Order",
          "name": "par0",
          "type": "tuple"
        }
      ],
      "name": "call_request_to_buy",
      "type": "event"
    },
    {
      "anonymous": false,
      "inputs": [
        {
          "components": [
            {
              "internalType": "string",
              "name": "id",
              "type": "string"
            },
            {
              "internalType": "string",
              "name": "marca",
              "type": "string"
            },
            {
              "internalType": "string",
              "name": "modello",
              "type": "string"
            }
          ],
          "indexed": false,
          "internalType": "struct ContractInterface.Car",
          "name": "c",
          "type": "tuple"
        }
      ],
      "name": "updatefk_car",
      "type": "event"
    },
    {
      "inputs": [
        {
          "internalType": "string",
          "name": "car_id",
          "type": "string"
        },
        {
          "internalType": "int256",
          "name": "price",
          "type": "int256"
        }
      ],
      "name": "request_to_buy",
      "outputs": [
        {
          "components": [
            {
              "internalType": "uint256",
              "name": "id",
              "type": "uint256"
            },
            {
              "internalType": "string[]",
              "name": "Car_id",
              "type": "string[]"
            },
            {
              "internalType": "uint256[]",
              "name": "Loan_id",
              "type": "uint256[]"
            },
            {
              "internalType": "int256",
              "name": "price",
              "type": "int256"
            }
          ],
          "internalType": "struct ContractInterface.Order",
          "name": "o",
          "type": "tuple"
        }
      ],
      "stateMutability": "nonpayable",
      "type": "function"
    },
    {
      "inputs": [
        {
          "internalType": "uint256",
          "name": "order_id",
          "type": "uint256"
        },
        {
          "internalType": "int256",
          "name": "amount",
          "type": "int256"
        }
      ],
      "name": "grant_loan",
      "outputs": [
        {
          "components": [
            {
              "internalType": "uint256",
              "name": "id",
              "type": "uint256"
            },
            {
              "internalType": "uint256[]",
              "name": "Order_id",
              "type": "uint256[]"
            },
            {
              "internalType": "int256",
              "name": "amount",
              "type": "int256"
            }
          ],
          "internalType": "struct ContractInterface.Loan",
          "name": "l",
          "type": "tuple"
        }
      ],
      "stateMutability": "nonpayable",
      "type": "function"
    }
  ],
  "bytecode": "0x60806040523480156200001157600080fd5b50604051620011a9380380620011a98339818101604052810190620000379190620000e8565b806000806101000a81548173ffffffffffffffffffffffffffffffffffffffff021916908373ffffffffffffffffffffffffffffffffffffffff160217905550506200011a565b600080fd5b600073ffffffffffffffffffffffffffffffffffffffff82169050919050565b6000620000b08262000083565b9050919050565b620000c281620000a3565b8114620000ce57600080fd5b50565b600081519050620000e281620000b7565b92915050565b6000602082840312156200010157620001006200007e565b5b60006200011184828501620000d1565b91505092915050565b61107f806200012a6000396000f3fe608060405234801561001057600080fd5b50600436106100365760003560e01c8063394a9c331461003b57806358f4580c1461006b575b600080fd5b610055600480360381019061005091906105a2565b61009b565b6040516100629190610889565b60405180910390f35b610085600480360381019061008091906108d7565b6102be565b6040516100929190610967565b60405180910390f35b6100a36103a8565b60008054906101000a900473ffffffffffffffffffffffffffffffffffffffff1673ffffffffffffffffffffffffffffffffffffffff1663394a9c3384846040518363ffffffff1660e01b81526004016100fe9291906109e2565b6000604051808303816000875af115801561011d573d6000803e3d6000fd5b505050506040513d6000823e3d601f19601f820116820180604052508101906101469190610d0f565b90507fabd14c9d6796a13e69aeeb4884ab62f836bfecdb5f5f0d0d8d7db0f18462d506816040516101779190610889565b60405180910390a160005b8160200151518110156102b7576101976103d0565b60008054906101000a900473ffffffffffffffffffffffffffffffffffffffff1673ffffffffffffffffffffffffffffffffffffffff166341a2d180846020015184815181106101ea576101e9610d58565b5b60200260200101516040518263ffffffff1660e01b815260040161020e9190610d87565b600060405180830381865afa15801561022b573d6000803e3d6000fd5b505050506040513d6000823e3d601f19601f820116820180604052508101906102549190610da9565b8360000184602001856040018390528390528390525050507f926374143f83c6c6bdce8fd97460428fb5f03e0bbe3398e799bc5669485814d28160405161029b9190610eae565b60405180910390a15080806102af90610eff565b915050610182565b5092915050565b6102c66103f1565b60008054906101000a900473ffffffffffffffffffffffffffffffffffffffff1673ffffffffffffffffffffffffffffffffffffffff166358f4580c84846040518363ffffffff1660e01b8152600401610321929190610f57565b6000604051808303816000875af1158015610340573d6000803e3d6000fd5b505050506040513d6000823e3d601f19601f820116820180604052508101906103699190611000565b90507f0faec3ce6571a989f466ef998fe719addd4f730a5d86fd7276d2b16262b6a57b8160405161039a9190610967565b60405180910390a192915050565b6040518060800160405280600081526020016060815260200160608152602001600081525090565b60405180606001604052806060815260200160608152602001606081525090565b60405180606001604052806000815260200160608152602001600081525090565b6000604051905090565b600080fd5b600080fd5b600080fd5b600080fd5b6000601f19601f8301169050919050565b7f4e487b7100000000000000000000000000000000000000000000000000000000600052604160045260246000fd5b61047982610430565b810181811067ffffffffffffffff8211171561049857610497610441565b5b80604052505050565b60006104ab610412565b90506104b78282610470565b919050565b600067ffffffffffffffff8211156104d7576104d6610441565b5b6104e082610430565b9050602081019050919050565b82818337600083830152505050565b600061050f61050a846104bc565b6104a1565b90508281526020810184848401111561052b5761052a61042b565b5b6105368482856104ed565b509392505050565b600082601f83011261055357610552610426565b5b81356105638482602086016104fc565b91505092915050565b6000819050919050565b61057f8161056c565b811461058a57600080fd5b50565b60008135905061059c81610576565b92915050565b600080604083850312156105b9576105b861041c565b5b600083013567ffffffffffffffff8111156105d7576105d6610421565b5b6105e38582860161053e565b92505060206105f48582860161058d565b9150509250929050565b6000819050919050565b610611816105fe565b82525050565b600081519050919050565b600082825260208201905092915050565b6000819050602082019050919050565b600081519050919050565b600082825260208201905092915050565b60005b8381101561067d578082015181840152602081019050610662565b8381111561068c576000848401525b50505050565b600061069d82610643565b6106a7818561064e565b93506106b781856020860161065f565b6106c081610430565b840191505092915050565b60006106d78383610692565b905092915050565b6000602082019050919050565b60006106f782610617565b6107018185610622565b93508360208202850161071385610633565b8060005b8581101561074f578484038952815161073085826106cb565b945061073b836106df565b925060208a01995050600181019050610717565b50829750879550505050505092915050565b600081519050919050565b600082825260208201905092915050565b6000819050602082019050919050565b60006107998383610608565b60208301905092915050565b6000602082019050919050565b60006107bd82610761565b6107c7818561076c565b93506107d28361077d565b8060005b838110156108035781516107ea888261078d565b97506107f5836107a5565b9250506001810190506107d6565b5085935050505092915050565b6108198161056c565b82525050565b60006080830160008301516108376000860182610608565b506020830151848203602086015261084f82826106ec565b9150506040830151848203604086015261086982826107b2565b915050606083015161087e6060860182610810565b508091505092915050565b600060208201905081810360008301526108a3818461081f565b905092915050565b6108b4816105fe565b81146108bf57600080fd5b50565b6000813590506108d1816108ab565b92915050565b600080604083850312156108ee576108ed61041c565b5b60006108fc858286016108c2565b925050602061090d8582860161058d565b9150509250929050565b600060608301600083015161092f6000860182610608565b506020830151848203602086015261094782826107b2565b915050604083015161095c6040860182610810565b508091505092915050565b600060208201905081810360008301526109818184610917565b905092915050565b600082825260208201905092915050565b60006109a582610643565b6109af8185610989565b93506109bf81856020860161065f565b6109c881610430565b840191505092915050565b6109dc8161056c565b82525050565b600060408201905081810360008301526109fc818561099a565b9050610a0b60208301846109d3565b9392505050565b600080fd5b600080fd5b600081519050610a2b816108ab565b92915050565b600067ffffffffffffffff821115610a4c57610a4b610441565b5b602082029050602081019050919050565b600080fd5b6000610a75610a70846104bc565b6104a1565b905082815260208101848484011115610a9157610a9061042b565b5b610a9c84828561065f565b509392505050565b600082601f830112610ab957610ab8610426565b5b8151610ac9848260208601610a62565b91505092915050565b6000610ae5610ae084610a31565b6104a1565b90508083825260208201905060208402830185811115610b0857610b07610a5d565b5b835b81811015610b4f57805167ffffffffffffffff811115610b2d57610b2c610426565b5b808601610b3a8982610aa4565b85526020850194505050602081019050610b0a565b5050509392505050565b600082601f830112610b6e57610b6d610426565b5b8151610b7e848260208601610ad2565b91505092915050565b600067ffffffffffffffff821115610ba257610ba1610441565b5b602082029050602081019050919050565b6000610bc6610bc184610b87565b6104a1565b90508083825260208201905060208402830185811115610be957610be8610a5d565b5b835b81811015610c125780610bfe8882610a1c565b845260208401935050602081019050610beb565b5050509392505050565b600082601f830112610c3157610c30610426565b5b8151610c41848260208601610bb3565b91505092915050565b600081519050610c5981610576565b92915050565b600060808284031215610c7557610c74610a12565b5b610c7f60806104a1565b90506000610c8f84828501610a1c565b600083015250602082015167ffffffffffffffff811115610cb357610cb2610a17565b5b610cbf84828501610b59565b602083015250604082015167ffffffffffffffff811115610ce357610ce2610a17565b5b610cef84828501610c1c565b6040830152506060610d0384828501610c4a565b60608301525092915050565b600060208284031215610d2557610d2461041c565b5b600082015167ffffffffffffffff811115610d4357610d42610421565b5b610d4f84828501610c5f565b91505092915050565b7f4e487b7100000000000000000000000000000000000000000000000000000000600052603260045260246000fd5b60006020820190508181036000830152610da1818461099a565b905092915050565b600080600060608486031215610dc257610dc161041c565b5b600084015167ffffffffffffffff811115610de057610ddf610421565b5b610dec86828701610aa4565b935050602084015167ffffffffffffffff811115610e0d57610e0c610421565b5b610e1986828701610aa4565b925050604084015167ffffffffffffffff811115610e3a57610e39610421565b5b610e4686828701610aa4565b9150509250925092565b60006060830160008301518482036000860152610e6d8282610692565b91505060208301518482036020860152610e878282610692565b91505060408301518482036040860152610ea18282610692565b9150508091505092915050565b60006020820190508181036000830152610ec88184610e50565b905092915050565b7f4e487b7100000000000000000000000000000000000000000000000000000000600052601160045260246000fd5b6000610f0a826105fe565b91507fffffffffffffffffffffffffffffffffffffffffffffffffffffffffffffffff821415610f3d57610f3c610ed0565b5b600182019050919050565b610f51816105fe565b82525050565b6000604082019050610f6c6000830185610f48565b610f7960208301846109d3565b9392505050565b600060608284031215610f9657610f95610a12565b5b610fa060606104a1565b90506000610fb084828501610a1c565b600083015250602082015167ffffffffffffffff811115610fd457610fd3610a17565b5b610fe084828501610c1c565b6020830152506040610ff484828501610c4a565b60408301525092915050565b6000602082840312156110165761101561041c565b5b600082015167ffffffffffffffff81111561103457611033610421565b5b61104084828501610f80565b9150509291505056fea2646970667358221220182912e69ac34681dd072363e359195fa6ced680b52873f19fd86b4f103354d864736f6c634300080a0033",
  "immutableReferences": {},
  "source": "// SPDX-License-Identifier: CC-BY-SA-4.0\npragma solidity >=0.7.0 <0.9.0;\n\nimport \"./Contract.sol\";\n\n// Logging Logic inside this contract implementing decorator pattern + function modifiers.\n\n\ncontract Wrapper is ContractInterface {\n\n\tContract inner_contract; \n\n\tevent call_request_to_buy(Order par0);\n\tevent call_grant_loan(Loan par0);\n    event updatefk_car(Car c);\n\n\tconstructor (address add) {\n\t\tinner_contract = Contract(add); \n\t}\n\n\tfunction request_to_buy (string memory car_id, int256  price) external returns (Order memory o){\n\t\to = inner_contract.request_to_buy (car_id, price);\n\t\temit  call_request_to_buy(o);\n\n        for (uint i = 0; i < o.Car_id.length; i++) { \n            Car memory c;\n            (c.id,c.marca, c.modello) = inner_contract.cars(o.Car_id[i]);\n            emit updatefk_car(c);\n        }\n\t}\n\n\tfunction grant_loan (uint256 order_id, int256  amount) external returns (Loan memory l){\n\t\tl = inner_contract.grant_loan (order_id, amount);\n\t\temit  call_grant_loan(l);\n\t}\n\n}\n\n",
  "sourcePath": "/home/andrea/Scrivania/Master-Thesis/Truffle/pattern_1/contracts/Wrapper.sol",
  "compiler": {
    "name": "solc",
    "version": "0.8.10+commit.fc410830.Emscripten.clang"
  },
  "schemaVersion": "3.4.3",
  "updatedAt": "2022-09-06T20:14:15.780Z",
  "networkType": "ethereum",
  "devdoc": {
    "kind": "dev",
    "methods": {},
    "version": 1
  },
  "userdoc": {
    "kind": "user",
    "methods": {},
    "version": 1
  }
}