{
  "contractName": "Wrapper",
  "abi": [
    {
      "inputs": [
        {
          "internalType": "address",
          "name": "add",
          "type": "address"
        }
      ],
      "stateMutability": "nonpayable",
      "type": "constructor"
    },
    {
      "anonymous": false,
      "inputs": [
        {
          "components": [
            {
              "internalType": "uint256",
              "name": "id",
              "type": "uint256"
            },
            {
              "internalType": "uint256[]",
              "name": "Order_id",
              "type": "uint256[]"
            },
            {
              "internalType": "int256",
              "name": "amount",
              "type": "int256"
            }
          ],
          "indexed": false,
          "internalType": "struct Contract.Loan",
          "name": "par0",
          "type": "tuple"
        }
      ],
      "name": "call_grant_loan",
      "type": "event"
    },
    {
      "anonymous": false,
      "inputs": [
        {
          "components": [
            {
              "internalType": "uint256",
              "name": "id",
              "type": "uint256"
            },
            {
              "internalType": "string[]",
              "name": "Car_id",
              "type": "string[]"
            },
            {
              "internalType": "uint256[]",
              "name": "Loan_id",
              "type": "uint256[]"
            },
            {
              "internalType": "int256",
              "name": "price",
              "type": "int256"
            }
          ],
          "indexed": false,
          "internalType": "struct Contract.Order",
          "name": "par0",
          "type": "tuple"
        }
      ],
      "name": "call_request_to_buy",
      "type": "event"
    },
    {
      "anonymous": false,
      "inputs": [
        {
          "components": [
            {
              "internalType": "string",
              "name": "id",
              "type": "string"
            },
            {
              "internalType": "string",
              "name": "marca",
              "type": "string"
            },
            {
              "internalType": "string",
              "name": "modello",
              "type": "string"
            }
          ],
          "indexed": false,
          "internalType": "struct Contract.Car",
          "name": "c",
          "type": "tuple"
        }
      ],
      "name": "updatefk_car",
      "type": "event"
    },
    {
      "inputs": [
        {
          "internalType": "string",
          "name": "marca",
          "type": "string"
        },
        {
          "internalType": "string",
          "name": "modello",
          "type": "string"
        },
        {
          "internalType": "string",
          "name": "targa",
          "type": "string"
        }
      ],
      "name": "add_car",
      "outputs": [],
      "stateMutability": "nonpayable",
      "type": "function"
    },
    {
      "inputs": [
        {
          "internalType": "string",
          "name": "",
          "type": "string"
        }
      ],
      "name": "cars",
      "outputs": [
        {
          "internalType": "string",
          "name": "id",
          "type": "string"
        },
        {
          "internalType": "string",
          "name": "marca",
          "type": "string"
        },
        {
          "internalType": "string",
          "name": "modello",
          "type": "string"
        }
      ],
      "stateMutability": "view",
      "type": "function",
      "constant": true
    },
    {
      "inputs": [
        {
          "internalType": "uint256",
          "name": "",
          "type": "uint256"
        }
      ],
      "name": "loans",
      "outputs": [
        {
          "internalType": "uint256",
          "name": "id",
          "type": "uint256"
        },
        {
          "internalType": "int256",
          "name": "amount",
          "type": "int256"
        }
      ],
      "stateMutability": "view",
      "type": "function",
      "constant": true
    },
    {
      "inputs": [
        {
          "internalType": "uint256",
          "name": "",
          "type": "uint256"
        }
      ],
      "name": "orders",
      "outputs": [
        {
          "internalType": "uint256",
          "name": "id",
          "type": "uint256"
        },
        {
          "internalType": "int256",
          "name": "price",
          "type": "int256"
        }
      ],
      "stateMutability": "view",
      "type": "function",
      "constant": true
    },
    {
      "inputs": [
        {
          "internalType": "string",
          "name": "car_id",
          "type": "string"
        },
        {
          "internalType": "int256",
          "name": "price",
          "type": "int256"
        }
      ],
      "name": "request_to_buy",
      "outputs": [
        {
          "components": [
            {
              "internalType": "uint256",
              "name": "id",
              "type": "uint256"
            },
            {
              "internalType": "string[]",
              "name": "Car_id",
              "type": "string[]"
            },
            {
              "internalType": "uint256[]",
              "name": "Loan_id",
              "type": "uint256[]"
            },
            {
              "internalType": "int256",
              "name": "price",
              "type": "int256"
            }
          ],
          "internalType": "struct Contract.Order",
          "name": "o",
          "type": "tuple"
        }
      ],
      "stateMutability": "nonpayable",
      "type": "function"
    },
    {
      "inputs": [
        {
          "internalType": "uint256",
          "name": "order_id",
          "type": "uint256"
        },
        {
          "internalType": "int256",
          "name": "amount",
          "type": "int256"
        }
      ],
      "name": "grant_loan",
      "outputs": [
        {
          "components": [
            {
              "internalType": "uint256",
              "name": "id",
              "type": "uint256"
            },
            {
              "internalType": "uint256[]",
              "name": "Order_id",
              "type": "uint256[]"
            },
            {
              "internalType": "int256",
              "name": "amount",
              "type": "int256"
            }
          ],
          "internalType": "struct Contract.Loan",
          "name": "l",
          "type": "tuple"
        }
      ],
      "stateMutability": "nonpayable",
      "type": "function"
    }
  ],
  "bytecode": "0x60806040523480156200001157600080fd5b506040516200182e3803806200182e8339818101604052810190620000379190620000e9565b80600360006101000a81548173ffffffffffffffffffffffffffffffffffffffff021916908373ffffffffffffffffffffffffffffffffffffffff160217905550506200011b565b600080fd5b600073ffffffffffffffffffffffffffffffffffffffff82169050919050565b6000620000b18262000084565b9050919050565b620000c381620000a4565b8114620000cf57600080fd5b50565b600081519050620000e381620000b8565b92915050565b6000602082840312156200010257620001016200007f565b5b60006200011284828501620000d2565b91505092915050565b611703806200012b6000396000f3fe608060405234801561001057600080fd5b50600436106100625760003560e01c80632772dca414610067578063394a9c331461008357806341a2d180146100b357806358f4580c146100e5578063a85c38ef14610115578063e1ec3c6814610146575b600080fd5b610081600480360381019061007c91906109d3565b610177565b005b61009d60048036038101906100989190610ab0565b610219565b6040516100aa9190610d97565b60405180910390f35b6100cd60048036038101906100c89190610db9565b610440565b6040516100dc93929190610e4c565b60405180910390f35b6100ff60048036038101906100fa9190610ec4565b610618565b60405161010c9190610f54565b60405180910390f35b61012f600480360381019061012a9190610f76565b610704565b60405161013d929190610fc1565b60405180910390f35b610160600480360381019061015b9190610f76565b610738565b60405161016e929190610fc1565b60405180910390f35b61017f61076c565b828160400181905250838160200181905250818160000181905250806000836040516101ab9190611026565b908152602001604051809103902060008201518160000190805190602001906101d592919061078d565b5060208201518160010190805190602001906101f292919061078d565b50604082015181600201908051906020019061020f92919061078d565b5090505050505050565b610221610813565b600360009054906101000a900473ffffffffffffffffffffffffffffffffffffffff1673ffffffffffffffffffffffffffffffffffffffff1663394a9c3384846040518363ffffffff1660e01b815260040161027e92919061103d565b6000604051808303816000875af115801561029d573d6000803e3d6000fd5b505050506040513d6000823e3d601f19601f820116820180604052508101906102c6919061136a565b90507fabd14c9d6796a13e69aeeb4884ab62f836bfecdb5f5f0d0d8d7db0f18462d506816040516102f79190610d97565b60405180910390a160005b8160200151518110156104395761031761076c565b600360009054906101000a900473ffffffffffffffffffffffffffffffffffffffff1673ffffffffffffffffffffffffffffffffffffffff166341a2d1808460200151848151811061036c5761036b6113b3565b5b60200260200101516040518263ffffffff1660e01b815260040161039091906113e2565b600060405180830381865afa1580156103ad573d6000803e3d6000fd5b505050506040513d6000823e3d601f19601f820116820180604052508101906103d69190611404565b8360000184602001856040018390528390528390525050507f926374143f83c6c6bdce8fd97460428fb5f03e0bbe3398e799bc5669485814d28160405161041d9190611509565b60405180910390a15080806104319061155a565b915050610302565b5092915050565b600081805160208101820180518482526020830160208501208183528095505050505050600091509050806000018054610479906115d2565b80601f01602080910402602001604051908101604052809291908181526020018280546104a5906115d2565b80156104f25780601f106104c7576101008083540402835291602001916104f2565b820191906000526020600020905b8154815290600101906020018083116104d557829003601f168201915b505050505090806001018054610507906115d2565b80601f0160208091040260200160405190810160405280929190818152602001828054610533906115d2565b80156105805780601f1061055557610100808354040283529160200191610580565b820191906000526020600020905b81548152906001019060200180831161056357829003601f168201915b505050505090806002018054610595906115d2565b80601f01602080910402602001604051908101604052809291908181526020018280546105c1906115d2565b801561060e5780601f106105e35761010080835404028352916020019161060e565b820191906000526020600020905b8154815290600101906020018083116105f157829003601f168201915b5050505050905083565b61062061083b565b600360009054906101000a900473ffffffffffffffffffffffffffffffffffffffff1673ffffffffffffffffffffffffffffffffffffffff166358f4580c84846040518363ffffffff1660e01b815260040161067d929190610fc1565b6000604051808303816000875af115801561069c573d6000803e3d6000fd5b505050506040513d6000823e3d601f19601f820116820180604052508101906106c59190611684565b90507f0faec3ce6571a989f466ef998fe719addd4f730a5d86fd7276d2b16262b6a57b816040516106f69190610f54565b60405180910390a192915050565b6001818154811061071457600080fd5b90600052602060002090600402016000915090508060000154908060030154905082565b6002818154811061074857600080fd5b90600052602060002090600302016000915090508060000154908060020154905082565b60405180606001604052806060815260200160608152602001606081525090565b828054610799906115d2565b90600052602060002090601f0160209004810192826107bb5760008555610802565b82601f106107d457805160ff1916838001178555610802565b82800160010185558215610802579182015b828111156108015782518255916020019190600101906107e6565b5b50905061080f919061085c565b5090565b6040518060800160405280600081526020016060815260200160608152602001600081525090565b60405180606001604052806000815260200160608152602001600081525090565b5b8082111561087557600081600090555060010161085d565b5090565b6000604051905090565b600080fd5b600080fd5b600080fd5b600080fd5b6000601f19601f8301169050919050565b7f4e487b7100000000000000000000000000000000000000000000000000000000600052604160045260246000fd5b6108e082610897565b810181811067ffffffffffffffff821117156108ff576108fe6108a8565b5b80604052505050565b6000610912610879565b905061091e82826108d7565b919050565b600067ffffffffffffffff82111561093e5761093d6108a8565b5b61094782610897565b9050602081019050919050565b82818337600083830152505050565b600061097661097184610923565b610908565b90508281526020810184848401111561099257610991610892565b5b61099d848285610954565b509392505050565b600082601f8301126109ba576109b961088d565b5b81356109ca848260208601610963565b91505092915050565b6000806000606084860312156109ec576109eb610883565b5b600084013567ffffffffffffffff811115610a0a57610a09610888565b5b610a16868287016109a5565b935050602084013567ffffffffffffffff811115610a3757610a36610888565b5b610a43868287016109a5565b925050604084013567ffffffffffffffff811115610a6457610a63610888565b5b610a70868287016109a5565b9150509250925092565b6000819050919050565b610a8d81610a7a565b8114610a9857600080fd5b50565b600081359050610aaa81610a84565b92915050565b60008060408385031215610ac757610ac6610883565b5b600083013567ffffffffffffffff811115610ae557610ae4610888565b5b610af1858286016109a5565b9250506020610b0285828601610a9b565b9150509250929050565b6000819050919050565b610b1f81610b0c565b82525050565b600081519050919050565b600082825260208201905092915050565b6000819050602082019050919050565b600081519050919050565b600082825260208201905092915050565b60005b83811015610b8b578082015181840152602081019050610b70565b83811115610b9a576000848401525b50505050565b6000610bab82610b51565b610bb58185610b5c565b9350610bc5818560208601610b6d565b610bce81610897565b840191505092915050565b6000610be58383610ba0565b905092915050565b6000602082019050919050565b6000610c0582610b25565b610c0f8185610b30565b935083602082028501610c2185610b41565b8060005b85811015610c5d5784840389528151610c3e8582610bd9565b9450610c4983610bed565b925060208a01995050600181019050610c25565b50829750879550505050505092915050565b600081519050919050565b600082825260208201905092915050565b6000819050602082019050919050565b6000610ca78383610b16565b60208301905092915050565b6000602082019050919050565b6000610ccb82610c6f565b610cd58185610c7a565b9350610ce083610c8b565b8060005b83811015610d11578151610cf88882610c9b565b9750610d0383610cb3565b925050600181019050610ce4565b5085935050505092915050565b610d2781610a7a565b82525050565b6000608083016000830151610d456000860182610b16565b5060208301518482036020860152610d5d8282610bfa565b91505060408301518482036040860152610d778282610cc0565b9150506060830151610d8c6060860182610d1e565b508091505092915050565b60006020820190508181036000830152610db18184610d2d565b905092915050565b600060208284031215610dcf57610dce610883565b5b600082013567ffffffffffffffff811115610ded57610dec610888565b5b610df9848285016109a5565b91505092915050565b600082825260208201905092915050565b6000610e1e82610b51565b610e288185610e02565b9350610e38818560208601610b6d565b610e4181610897565b840191505092915050565b60006060820190508181036000830152610e668186610e13565b90508181036020830152610e7a8185610e13565b90508181036040830152610e8e8184610e13565b9050949350505050565b610ea181610b0c565b8114610eac57600080fd5b50565b600081359050610ebe81610e98565b92915050565b60008060408385031215610edb57610eda610883565b5b6000610ee985828601610eaf565b9250506020610efa85828601610a9b565b9150509250929050565b6000606083016000830151610f1c6000860182610b16565b5060208301518482036020860152610f348282610cc0565b9150506040830151610f496040860182610d1e565b508091505092915050565b60006020820190508181036000830152610f6e8184610f04565b905092915050565b600060208284031215610f8c57610f8b610883565b5b6000610f9a84828501610eaf565b91505092915050565b610fac81610b0c565b82525050565b610fbb81610a7a565b82525050565b6000604082019050610fd66000830185610fa3565b610fe36020830184610fb2565b9392505050565b600081905092915050565b600061100082610b51565b61100a8185610fea565b935061101a818560208601610b6d565b80840191505092915050565b60006110328284610ff5565b915081905092915050565b600060408201905081810360008301526110578185610e13565b90506110666020830184610fb2565b9392505050565b600080fd5b600080fd5b60008151905061108681610e98565b92915050565b600067ffffffffffffffff8211156110a7576110a66108a8565b5b602082029050602081019050919050565b600080fd5b60006110d06110cb84610923565b610908565b9050828152602081018484840111156110ec576110eb610892565b5b6110f7848285610b6d565b509392505050565b600082601f8301126111145761111361088d565b5b81516111248482602086016110bd565b91505092915050565b600061114061113b8461108c565b610908565b90508083825260208201905060208402830185811115611163576111626110b8565b5b835b818110156111aa57805167ffffffffffffffff8111156111885761118761088d565b5b80860161119589826110ff565b85526020850194505050602081019050611165565b5050509392505050565b600082601f8301126111c9576111c861088d565b5b81516111d984826020860161112d565b91505092915050565b600067ffffffffffffffff8211156111fd576111fc6108a8565b5b602082029050602081019050919050565b600061122161121c846111e2565b610908565b90508083825260208201905060208402830185811115611244576112436110b8565b5b835b8181101561126d57806112598882611077565b845260208401935050602081019050611246565b5050509392505050565b600082601f83011261128c5761128b61088d565b5b815161129c84826020860161120e565b91505092915050565b6000815190506112b481610a84565b92915050565b6000608082840312156112d0576112cf61106d565b5b6112da6080610908565b905060006112ea84828501611077565b600083015250602082015167ffffffffffffffff81111561130e5761130d611072565b5b61131a848285016111b4565b602083015250604082015167ffffffffffffffff81111561133e5761133d611072565b5b61134a84828501611277565b604083015250606061135e848285016112a5565b60608301525092915050565b6000602082840312156113805761137f610883565b5b600082015167ffffffffffffffff81111561139e5761139d610888565b5b6113aa848285016112ba565b91505092915050565b7f4e487b7100000000000000000000000000000000000000000000000000000000600052603260045260246000fd5b600060208201905081810360008301526113fc8184610e13565b905092915050565b60008060006060848603121561141d5761141c610883565b5b600084015167ffffffffffffffff81111561143b5761143a610888565b5b611447868287016110ff565b935050602084015167ffffffffffffffff81111561146857611467610888565b5b611474868287016110ff565b925050604084015167ffffffffffffffff81111561149557611494610888565b5b6114a1868287016110ff565b9150509250925092565b600060608301600083015184820360008601526114c88282610ba0565b915050602083015184820360208601526114e28282610ba0565b915050604083015184820360408601526114fc8282610ba0565b9150508091505092915050565b6000602082019050818103600083015261152381846114ab565b905092915050565b7f4e487b7100000000000000000000000000000000000000000000000000000000600052601160045260246000fd5b600061156582610b0c565b91507fffffffffffffffffffffffffffffffffffffffffffffffffffffffffffffffff8214156115985761159761152b565b5b600182019050919050565b7f4e487b7100000000000000000000000000000000000000000000000000000000600052602260045260246000fd5b600060028204905060018216806115ea57607f821691505b602082108114156115fe576115fd6115a3565b5b50919050565b60006060828403121561161a5761161961106d565b5b6116246060610908565b9050600061163484828501611077565b600083015250602082015167ffffffffffffffff81111561165857611657611072565b5b61166484828501611277565b6020830152506040611678848285016112a5565b60408301525092915050565b60006020828403121561169a57611699610883565b5b600082015167ffffffffffffffff8111156116b8576116b7610888565b5b6116c484828501611604565b9150509291505056fea2646970667358221220fee4e7a3961bc046fe97190a8f408a79f3345dc1b41bb21ee6daedf857764fcf64736f6c634300080a0033",
  "immutableReferences": {},
  "source": "// SPDX-License-Identifier: CC-BY-SA-4.0\npragma solidity >=0.7.0 <0.9.0;\n\n\ncontract Contract {\n\n    struct Car\n    {\n        string id; //targa\n        string marca;\n        string modello;\n    }\n\n    struct Order\n    {\n        uint256 id;\n        string[] Car_id;\n        uint256[] Loan_id;\n        int price;\n    }\n\n    struct Loan\n    {\n        uint256 id;\n        uint256[] Order_id;\n        int amount;\n    }\n\n    mapping(string => Car) public cars;\n    Order[] public orders;\n    Loan[] public loans;\n\n\n    function request_to_buy(string memory car_id, int price) public virtual returns (Order memory o)\n    {\n        Order memory order;\n        order.id=orders.length;\n        order.price = price;\n\n        orders.push(order);\n        orders[order.id].Car_id.push(car_id);\n        return orders[order.id];\n    }\n\n    function grant_loan(uint256 order_id, int amount) public virtual returns (Loan memory l)\n    {\n        Loan memory loan;\n        loan.id = loans.length;\n        loan.amount = amount;\n        orders[order_id].Loan_id.push(loans.length);\n\n        loans.push(loan);\n        loans[loan.id].Order_id.push(order_id);\n        return loans[loan.id];\n    }\n\n\n    function add_car(string memory marca, string memory modello, string memory targa) public\n    {\n        Car memory car;\n        car.modello = modello;\n        car.marca = marca;\n        car.id = targa;\n\n        cars[targa] = car;\n    }\n\n\n}\n\n\n\n\ncontract Wrapper is Contract {\n\n\tContract inner_contract; \n\n\tevent call_request_to_buy(Order par0);\n\tevent call_grant_loan(Loan par0);\n    event updatefk_car(Car c);\n\n\tconstructor (address add) {\n\t\tinner_contract = Contract(add); \n\t}\n\n\tfunction request_to_buy (string memory car_id, int256  price) override public returns (Order memory o){\n\t\to = inner_contract.request_to_buy (car_id, price);\n\t\temit  call_request_to_buy(o);\n\n        for (uint i = 0; i < o.Car_id.length; i++) { \n            Car memory c;\n            (c.id,c.marca, c.modello) = inner_contract.cars(o.Car_id[i]);\n            emit updatefk_car(c);\n        }\n\t}\n\n\tfunction grant_loan (uint256 order_id, int256  amount) override public  returns (Loan memory l){\n\t\tl = inner_contract.grant_loan (order_id, amount);\n\t\temit  call_grant_loan(l);\n\t}\n\n}\n",
  "sourcePath": "/home/andrea/Scrivania/Master-Thesis/Truffle/pattern_2/contracts/Contract.sol",
  "compiler": {
    "name": "solc",
    "version": "0.8.10+commit.fc410830.Emscripten.clang"
  },
  "schemaVersion": "3.4.3",
  "updatedAt": "2022-09-06T11:05:55.702Z",
  "networkType": "ethereum",
  "devdoc": {
    "kind": "dev",
    "methods": {},
    "version": 1
  },
  "userdoc": {
    "kind": "user",
    "methods": {},
    "version": 1
  }
}