{
  "contractName": "Business",
  "abi": [
    {
      "inputs": [
        {
          "internalType": "uint256",
          "name": "",
          "type": "uint256"
        }
      ],
      "name": "cards",
      "outputs": [
        {
          "internalType": "uint256",
          "name": "id",
          "type": "uint256"
        },
        {
          "internalType": "uint64",
          "name": "gate",
          "type": "uint64"
        },
        {
          "internalType": "uint256",
          "name": "boarding_time",
          "type": "uint256"
        },
        {
          "internalType": "address",
          "name": "Traveller_id",
          "type": "address"
        },
        {
          "internalType": "uint256",
          "name": "flight_id",
          "type": "uint256"
        },
        {
          "internalType": "bool",
          "name": "luggage_delivered",
          "type": "bool"
        },
        {
          "internalType": "bool",
          "name": "security_check",
          "type": "bool"
        }
      ],
      "stateMutability": "view",
      "type": "function",
      "constant": true
    },
    {
      "inputs": [
        {
          "internalType": "uint256",
          "name": "",
          "type": "uint256"
        }
      ],
      "name": "flights",
      "outputs": [
        {
          "internalType": "uint256",
          "name": "id",
          "type": "uint256"
        },
        {
          "internalType": "string",
          "name": "from",
          "type": "string"
        },
        {
          "internalType": "string",
          "name": "to",
          "type": "string"
        },
        {
          "internalType": "uint256",
          "name": "time_departure",
          "type": "uint256"
        },
        {
          "internalType": "uint256",
          "name": "time_arrival",
          "type": "uint256"
        },
        {
          "internalType": "string",
          "name": "state",
          "type": "string"
        },
        {
          "internalType": "string",
          "name": "company",
          "type": "string"
        }
      ],
      "stateMutability": "view",
      "type": "function",
      "constant": true
    },
    {
      "inputs": [
        {
          "internalType": "uint256",
          "name": "",
          "type": "uint256"
        }
      ],
      "name": "luggages",
      "outputs": [
        {
          "internalType": "uint256",
          "name": "id",
          "type": "uint256"
        },
        {
          "internalType": "string",
          "name": "color",
          "type": "string"
        },
        {
          "internalType": "uint64",
          "name": "weight",
          "type": "uint64"
        },
        {
          "internalType": "address",
          "name": "Traveller_id",
          "type": "address"
        }
      ],
      "stateMutability": "view",
      "type": "function",
      "constant": true
    },
    {
      "inputs": [
        {
          "internalType": "uint256",
          "name": "",
          "type": "uint256"
        }
      ],
      "name": "tickets",
      "outputs": [
        {
          "internalType": "uint256",
          "name": "id",
          "type": "uint256"
        },
        {
          "internalType": "string",
          "name": "class",
          "type": "string"
        },
        {
          "internalType": "string",
          "name": "seat",
          "type": "string"
        },
        {
          "internalType": "address",
          "name": "Traveller_id",
          "type": "address"
        }
      ],
      "stateMutability": "view",
      "type": "function",
      "constant": true
    },
    {
      "inputs": [
        {
          "internalType": "address",
          "name": "",
          "type": "address"
        }
      ],
      "name": "travellers",
      "outputs": [
        {
          "internalType": "address",
          "name": "id",
          "type": "address"
        },
        {
          "internalType": "string",
          "name": "name",
          "type": "string"
        },
        {
          "internalType": "string",
          "name": "surname",
          "type": "string"
        },
        {
          "internalType": "string",
          "name": "nationality",
          "type": "string"
        }
      ],
      "stateMutability": "view",
      "type": "function",
      "constant": true
    },
    {
      "inputs": [
        {
          "internalType": "string",
          "name": "from",
          "type": "string"
        },
        {
          "internalType": "string",
          "name": "to",
          "type": "string"
        },
        {
          "internalType": "uint256",
          "name": "time_departure",
          "type": "uint256"
        },
        {
          "internalType": "uint256",
          "name": "time_arrival",
          "type": "uint256"
        },
        {
          "internalType": "string",
          "name": "company",
          "type": "string"
        }
      ],
      "name": "add_flight",
      "outputs": [],
      "stateMutability": "nonpayable",
      "type": "function"
    },
    {
      "inputs": [
        {
          "internalType": "string",
          "name": "name",
          "type": "string"
        },
        {
          "internalType": "string",
          "name": "surname",
          "type": "string"
        },
        {
          "internalType": "string",
          "name": "nationality",
          "type": "string"
        }
      ],
      "name": "add_traveller",
      "outputs": [],
      "stateMutability": "nonpayable",
      "type": "function"
    },
    {
      "inputs": [
        {
          "internalType": "string",
          "name": "color",
          "type": "string"
        },
        {
          "internalType": "uint64",
          "name": "weight",
          "type": "uint64"
        },
        {
          "internalType": "address",
          "name": "traveller_id",
          "type": "address"
        }
      ],
      "name": "add_luggage",
      "outputs": [],
      "stateMutability": "nonpayable",
      "type": "function"
    },
    {
      "inputs": [
        {
          "internalType": "string[]",
          "name": "class",
          "type": "string[]"
        },
        {
          "internalType": "string[]",
          "name": "seat",
          "type": "string[]"
        },
        {
          "internalType": "address[]",
          "name": "travellers",
          "type": "address[]"
        }
      ],
      "name": "buy_trip",
      "outputs": [
        {
          "components": [
            {
              "internalType": "uint256",
              "name": "id",
              "type": "uint256"
            },
            {
              "internalType": "string",
              "name": "class",
              "type": "string"
            },
            {
              "internalType": "string",
              "name": "seat",
              "type": "string"
            },
            {
              "internalType": "address",
              "name": "Traveller_id",
              "type": "address"
            }
          ],
          "internalType": "struct Business.Ticket[]",
          "name": "t",
          "type": "tuple[]"
        }
      ],
      "stateMutability": "nonpayable",
      "type": "function"
    },
    {
      "inputs": [
        {
          "internalType": "uint256[]",
          "name": "t",
          "type": "uint256[]"
        },
        {
          "internalType": "uint64",
          "name": "gate",
          "type": "uint64"
        },
        {
          "internalType": "uint256",
          "name": "boarding_time",
          "type": "uint256"
        },
        {
          "internalType": "address",
          "name": "Traveller_id",
          "type": "address"
        },
        {
          "internalType": "uint256",
          "name": "flight_id",
          "type": "uint256"
        }
      ],
      "name": "check_in",
      "outputs": [
        {
          "components": [
            {
              "internalType": "uint256",
              "name": "id",
              "type": "uint256"
            },
            {
              "internalType": "uint64",
              "name": "gate",
              "type": "uint64"
            },
            {
              "internalType": "uint256",
              "name": "boarding_time",
              "type": "uint256"
            },
            {
              "internalType": "address",
              "name": "Traveller_id",
              "type": "address"
            },
            {
              "internalType": "uint256",
              "name": "flight_id",
              "type": "uint256"
            },
            {
              "internalType": "bool",
              "name": "luggage_delivered",
              "type": "bool"
            },
            {
              "internalType": "bool",
              "name": "security_check",
              "type": "bool"
            },
            {
              "internalType": "uint256[]",
              "name": "Luggage_id",
              "type": "uint256[]"
            },
            {
              "internalType": "uint256[]",
              "name": "Ticket_id",
              "type": "uint256[]"
            }
          ],
          "internalType": "struct Business.boarding_card",
          "name": "c",
          "type": "tuple"
        }
      ],
      "stateMutability": "nonpayable",
      "type": "function"
    },
    {
      "inputs": [
        {
          "internalType": "uint256",
          "name": "card_id",
          "type": "uint256"
        },
        {
          "internalType": "uint256[]",
          "name": "luggages",
          "type": "uint256[]"
        }
      ],
      "name": "deliver_luggage",
      "outputs": [
        {
          "components": [
            {
              "internalType": "uint256",
              "name": "id",
              "type": "uint256"
            },
            {
              "internalType": "uint64",
              "name": "gate",
              "type": "uint64"
            },
            {
              "internalType": "uint256",
              "name": "boarding_time",
              "type": "uint256"
            },
            {
              "internalType": "address",
              "name": "Traveller_id",
              "type": "address"
            },
            {
              "internalType": "uint256",
              "name": "flight_id",
              "type": "uint256"
            },
            {
              "internalType": "bool",
              "name": "luggage_delivered",
              "type": "bool"
            },
            {
              "internalType": "bool",
              "name": "security_check",
              "type": "bool"
            },
            {
              "internalType": "uint256[]",
              "name": "Luggage_id",
              "type": "uint256[]"
            },
            {
              "internalType": "uint256[]",
              "name": "Ticket_id",
              "type": "uint256[]"
            }
          ],
          "internalType": "struct Business.boarding_card",
          "name": "c",
          "type": "tuple"
        }
      ],
      "stateMutability": "nonpayable",
      "type": "function"
    },
    {
      "inputs": [
        {
          "internalType": "uint256",
          "name": "card_id",
          "type": "uint256"
        }
      ],
      "name": "security_controls",
      "outputs": [
        {
          "components": [
            {
              "internalType": "uint256",
              "name": "id",
              "type": "uint256"
            },
            {
              "internalType": "uint64",
              "name": "gate",
              "type": "uint64"
            },
            {
              "internalType": "uint256",
              "name": "boarding_time",
              "type": "uint256"
            },
            {
              "internalType": "address",
              "name": "Traveller_id",
              "type": "address"
            },
            {
              "internalType": "uint256",
              "name": "flight_id",
              "type": "uint256"
            },
            {
              "internalType": "bool",
              "name": "luggage_delivered",
              "type": "bool"
            },
            {
              "internalType": "bool",
              "name": "security_check",
              "type": "bool"
            },
            {
              "internalType": "uint256[]",
              "name": "Luggage_id",
              "type": "uint256[]"
            },
            {
              "internalType": "uint256[]",
              "name": "Ticket_id",
              "type": "uint256[]"
            }
          ],
          "internalType": "struct Business.boarding_card",
          "name": "c",
          "type": "tuple"
        }
      ],
      "stateMutability": "nonpayable",
      "type": "function"
    },
    {
      "inputs": [
        {
          "internalType": "uint256",
          "name": "flight_id",
          "type": "uint256"
        }
      ],
      "name": "start_flight",
      "outputs": [
        {
          "components": [
            {
              "internalType": "uint256",
              "name": "id",
              "type": "uint256"
            },
            {
              "internalType": "string",
              "name": "from",
              "type": "string"
            },
            {
              "internalType": "string",
              "name": "to",
              "type": "string"
            },
            {
              "internalType": "uint256",
              "name": "time_departure",
              "type": "uint256"
            },
            {
              "internalType": "uint256",
              "name": "time_arrival",
              "type": "uint256"
            },
            {
              "internalType": "string",
              "name": "state",
              "type": "string"
            },
            {
              "internalType": "string",
              "name": "company",
              "type": "string"
            }
          ],
          "internalType": "struct Business.flight",
          "name": "f",
          "type": "tuple"
        }
      ],
      "stateMutability": "nonpayable",
      "type": "function"
    },
    {
      "inputs": [
        {
          "internalType": "uint256",
          "name": "flight_id",
          "type": "uint256"
        }
      ],
      "name": "cancel_flight",
      "outputs": [
        {
          "components": [
            {
              "internalType": "uint256",
              "name": "id",
              "type": "uint256"
            },
            {
              "internalType": "string",
              "name": "from",
              "type": "string"
            },
            {
              "internalType": "string",
              "name": "to",
              "type": "string"
            },
            {
              "internalType": "uint256",
              "name": "time_departure",
              "type": "uint256"
            },
            {
              "internalType": "uint256",
              "name": "time_arrival",
              "type": "uint256"
            },
            {
              "internalType": "string",
              "name": "state",
              "type": "string"
            },
            {
              "internalType": "string",
              "name": "company",
              "type": "string"
            }
          ],
          "internalType": "struct Business.flight",
          "name": "f",
          "type": "tuple"
        }
      ],
      "stateMutability": "nonpayable",
      "type": "function"
    }
  ],
  "bytecode": "0x608060405234801561001057600080fd5b506130dd806100206000396000f3fe608060405234801561001057600080fd5b50600436106100ea5760003560e01c806375dc79581161008c5780639b237db4116100665780639b237db4146102bc578063a16348fc146102ec578063ab7f12db1461031c578063b15a2aef14610338576100ea565b806375dc7958146102235780638aef8aec146102565780638dc1076814610286576100ea565b8063390a46d7116100c8578063390a46d71461018557806350b44712146101a15780635648f6ac146101d45780636867596814610207576100ea565b806315ccf70f146100ef5780631791b9fb14610125578063377c7f4314610155575b600080fd5b6101096004803603810190610104919061203b565b610368565b60405161011c9796959493929190612110565b60405180910390f35b61013f600480360381019061013a9190612381565b6105da565b60405161014c91906125db565b60405180910390f35b61016f600480360381019061016a919061203b565b6107ad565b60405161017c91906126f8565b60405180910390f35b61019f600480360381019061019a91906127cf565b610abe565b005b6101bb60048036038101906101b6919061203b565b610bf1565b6040516101cb94939291906128ad565b60405180910390f35b6101ee60048036038101906101e99190612900565b610d61565b6040516101fe949392919061292d565b60405180910390f35b610221600480360381019061021c9190612987565b610f49565b005b61023d6004803603810190610238919061203b565b611065565b60405161024d9493929190612a3d565b60405180910390f35b610270600480360381019061026b919061203b565b611161565b60405161027d91906126f8565b60405180910390f35b6102a0600480360381019061029b919061203b565b611472565b6040516102b39796959493929190612a98565b60405180910390f35b6102d660048036038101906102d19190612cab565b611512565b6040516102e39190612e7e565b60405180910390f35b61030660048036038101906103019190612ea0565b6118ba565b60405161031391906125db565b60405180910390f35b61033660048036038101906103319190612efc565b611afb565b005b610352600480360381019061034d919061203b565b611c10565b60405161035f91906125db565b60405180910390f35b6002818154811061037857600080fd5b90600052602060002090600702016000915090508060000154908060010180546103a190612f9a565b80601f01602080910402602001604051908101604052809291908181526020018280546103cd90612f9a565b801561041a5780601f106103ef5761010080835404028352916020019161041a565b820191906000526020600020905b8154815290600101906020018083116103fd57829003601f168201915b50505050509080600201805461042f90612f9a565b80601f016020809104026020016040519081016040528092919081815260200182805461045b90612f9a565b80156104a85780601f1061047d576101008083540402835291602001916104a8565b820191906000526020600020905b81548152906001019060200180831161048b57829003601f168201915b5050505050908060030154908060040154908060050180546104c990612f9a565b80601f01602080910402602001604051908101604052809291908181526020018280546104f590612f9a565b80156105425780601f1061051757610100808354040283529160200191610542565b820191906000526020600020905b81548152906001019060200180831161052557829003601f168201915b50505050509080600601805461055790612f9a565b80601f016020809104026020016040519081016040528092919081815260200182805461058390612f9a565b80156105d05780601f106105a5576101008083540402835291602001916105d0565b820191906000526020600020905b8154815290600101906020018083116105b357829003601f168201915b5050505050905087565b6105e2611e16565b60018054905081600001818152505084816020019067ffffffffffffffff16908167ffffffffffffffff16815250508381604001818152505082816060019073ffffffffffffffffffffffffffffffffffffffff16908173ffffffffffffffffffffffffffffffffffffffff1681525050818160800181815250508581610100018190525060018190806001815401808255809150506001900390600052602060002090600802016000909190919091506000820151816000015560208201518160010160006101000a81548167ffffffffffffffff021916908367ffffffffffffffff1602179055506040820151816002015560608201518160030160006101000a81548173ffffffffffffffffffffffffffffffffffffffff021916908373ffffffffffffffffffffffffffffffffffffffff1602179055506080820151816004015560a08201518160050160006101000a81548160ff02191690831515021790555060c08201518160050160016101000a81548160ff02191690831515021790555060e0820151816006019080519060200190610783929190611e86565b506101008201518160070190805190602001906107a1929190611e86565b50505095945050505050565b6107b5611ed3565b6040518060400160405280600881526020017f4465706172746564000000000000000000000000000000000000000000000000815250600283815481106107ff576107fe612fcc565b5b90600052602060002090600702016005019080519060200190610823929190611f10565b506002828154811061083857610837612fcc565b5b90600052602060002090600702016040518060e00160405290816000820154815260200160018201805461086b90612f9a565b80601f016020809104026020016040519081016040528092919081815260200182805461089790612f9a565b80156108e45780601f106108b9576101008083540402835291602001916108e4565b820191906000526020600020905b8154815290600101906020018083116108c757829003601f168201915b505050505081526020016002820180546108fd90612f9a565b80601f016020809104026020016040519081016040528092919081815260200182805461092990612f9a565b80156109765780601f1061094b57610100808354040283529160200191610976565b820191906000526020600020905b81548152906001019060200180831161095957829003601f168201915b5050505050815260200160038201548152602001600482015481526020016005820180546109a390612f9a565b80601f01602080910402602001604051908101604052809291908181526020018280546109cf90612f9a565b8015610a1c5780601f106109f157610100808354040283529160200191610a1c565b820191906000526020600020905b8154815290600101906020018083116109ff57829003601f168201915b50505050508152602001600682018054610a3590612f9a565b80601f0160208091040260200160405190810160405280929190818152602001828054610a6190612f9a565b8015610aae5780601f10610a8357610100808354040283529160200191610aae565b820191906000526020600020905b815481529060010190602001808311610a9157829003601f168201915b5050505050815250509050919050565b60026040518060e0016040528060028054905081526020018781526020018681526020018581526020018481526020016040518060400160405280600981526020017f7363686564756c656400000000000000000000000000000000000000000000008152508152602001838152509080600181540180825580915050600190039060005260206000209060070201600090919091909150600082015181600001556020820151816001019080519060200190610b7c929190611f10565b506040820151816002019080519060200190610b99929190611f10565b50606082015181600301556080820151816004015560a0820151816005019080519060200190610bca929190611f10565b5060c0820151816006019080519060200190610be7929190611f10565b5050505050505050565b60008181548110610c0157600080fd5b9060005260206000209060040201600091509050806000015490806001018054610c2a90612f9a565b80601f0160208091040260200160405190810160405280929190818152602001828054610c5690612f9a565b8015610ca35780601f10610c7857610100808354040283529160200191610ca3565b820191906000526020600020905b815481529060010190602001808311610c8657829003601f168201915b505050505090806002018054610cb890612f9a565b80601f0160208091040260200160405190810160405280929190818152602001828054610ce490612f9a565b8015610d315780601f10610d0657610100808354040283529160200191610d31565b820191906000526020600020905b815481529060010190602001808311610d1457829003601f168201915b5050505050908060030160009054906101000a900473ffffffffffffffffffffffffffffffffffffffff16905084565b60046020528060005260406000206000915090508060000160009054906101000a900473ffffffffffffffffffffffffffffffffffffffff1690806001018054610daa90612f9a565b80601f0160208091040260200160405190810160405280929190818152602001828054610dd690612f9a565b8015610e235780601f10610df857610100808354040283529160200191610e23565b820191906000526020600020905b815481529060010190602001808311610e0657829003601f168201915b505050505090806002018054610e3890612f9a565b80601f0160208091040260200160405190810160405280929190818152602001828054610e6490612f9a565b8015610eb15780601f10610e8657610100808354040283529160200191610eb1565b820191906000526020600020905b815481529060010190602001808311610e9457829003601f168201915b505050505090806003018054610ec690612f9a565b80601f0160208091040260200160405190810160405280929190818152602001828054610ef290612f9a565b8015610f3f5780601f10610f1457610100808354040283529160200191610f3f565b820191906000526020600020905b815481529060010190602001808311610f2257829003601f168201915b5050505050905084565b60405180608001604052803373ffffffffffffffffffffffffffffffffffffffff16815260200184815260200183815260200182815250600460003373ffffffffffffffffffffffffffffffffffffffff1673ffffffffffffffffffffffffffffffffffffffff16815260200190815260200160002060008201518160000160006101000a81548173ffffffffffffffffffffffffffffffffffffffff021916908373ffffffffffffffffffffffffffffffffffffffff1602179055506020820151816001019080519060200190611022929190611f10565b50604082015181600201908051906020019061103f929190611f10565b50606082015181600301908051906020019061105c929190611f10565b50905050505050565b6003818154811061107557600080fd5b906000526020600020906003020160009150905080600001549080600101805461109e90612f9a565b80601f01602080910402602001604051908101604052809291908181526020018280546110ca90612f9a565b80156111175780601f106110ec57610100808354040283529160200191611117565b820191906000526020600020905b8154815290600101906020018083116110fa57829003601f168201915b5050505050908060020160009054906101000a900467ffffffffffffffff16908060020160089054906101000a900473ffffffffffffffffffffffffffffffffffffffff16905084565b611169611ed3565b6040518060400160405280600981526020017f43616e63656c6c65640000000000000000000000000000000000000000000000815250600283815481106111b3576111b2612fcc565b5b906000526020600020906007020160050190805190602001906111d7929190611f10565b50600282815481106111ec576111eb612fcc565b5b90600052602060002090600702016040518060e00160405290816000820154815260200160018201805461121f90612f9a565b80601f016020809104026020016040519081016040528092919081815260200182805461124b90612f9a565b80156112985780601f1061126d57610100808354040283529160200191611298565b820191906000526020600020905b81548152906001019060200180831161127b57829003601f168201915b505050505081526020016002820180546112b190612f9a565b80601f01602080910402602001604051908101604052809291908181526020018280546112dd90612f9a565b801561132a5780601f106112ff5761010080835404028352916020019161132a565b820191906000526020600020905b81548152906001019060200180831161130d57829003601f168201915b50505050508152602001600382015481526020016004820154815260200160058201805461135790612f9a565b80601f016020809104026020016040519081016040528092919081815260200182805461138390612f9a565b80156113d05780601f106113a5576101008083540402835291602001916113d0565b820191906000526020600020905b8154815290600101906020018083116113b357829003601f168201915b505050505081526020016006820180546113e990612f9a565b80601f016020809104026020016040519081016040528092919081815260200182805461141590612f9a565b80156114625780601f1061143757610100808354040283529160200191611462565b820191906000526020600020905b81548152906001019060200180831161144557829003601f168201915b5050505050815250509050919050565b6001818154811061148257600080fd5b90600052602060002090600802016000915090508060000154908060010160009054906101000a900467ffffffffffffffff16908060020154908060030160009054906101000a900473ffffffffffffffffffffffffffffffffffffffff16908060040154908060050160009054906101000a900460ff16908060050160019054906101000a900460ff16905087565b60606000845167ffffffffffffffff811115611531576115306121a0565b5b60405190808252806020026020018201604052801561156a57816020015b611557611f96565b81526020019060019003908161154f5790505b50905060005b85518110156118ae576000604051806080016040528060008054905081526020018884815181106115a4576115a3612fcc565b5b602002602001015181526020018784815181106115c4576115c3612fcc565b5b602002602001015181526020018684815181106115e4576115e3612fcc565b5b602002602001015173ffffffffffffffffffffffffffffffffffffffff168152509080600181540180825580915050600190039060005260206000209060040201600090919091909150600082015181600001556020820151816001019080519060200190611654929190611f10565b506040820151816002019080519060200190611671929190611f10565b5060608201518160030160006101000a81548173ffffffffffffffffffffffffffffffffffffffff021916908373ffffffffffffffffffffffffffffffffffffffff1602179055505050600060016000805490506116cf919061302a565b815481106116e0576116df612fcc565b5b90600052602060002090600402016040518060800160405290816000820154815260200160018201805461171390612f9a565b80601f016020809104026020016040519081016040528092919081815260200182805461173f90612f9a565b801561178c5780601f106117615761010080835404028352916020019161178c565b820191906000526020600020905b81548152906001019060200180831161176f57829003601f168201915b505050505081526020016002820180546117a590612f9a565b80601f01602080910402602001604051908101604052809291908181526020018280546117d190612f9a565b801561181e5780601f106117f35761010080835404028352916020019161181e565b820191906000526020600020905b81548152906001019060200180831161180157829003601f168201915b505050505081526020016003820160009054906101000a900473ffffffffffffffffffffffffffffffffffffffff1673ffffffffffffffffffffffffffffffffffffffff1673ffffffffffffffffffffffffffffffffffffffff16815250508282815181106118905761188f612fcc565b5b602002602001018190525080806118a69061305e565b915050611570565b50809150509392505050565b6118c2611e16565b60018084815481106118d7576118d6612fcc565b5b906000526020600020906008020160050160006101000a81548160ff021916908315150217905550816001848154811061191457611913612fcc565b5b90600052602060002090600802016006019080519060200190611938929190611e86565b506001838154811061194d5761194c612fcc565b5b906000526020600020906008020160405180610120016040529081600082015481526020016001820160009054906101000a900467ffffffffffffffff1667ffffffffffffffff1667ffffffffffffffff168152602001600282015481526020016003820160009054906101000a900473ffffffffffffffffffffffffffffffffffffffff1673ffffffffffffffffffffffffffffffffffffffff1673ffffffffffffffffffffffffffffffffffffffff168152602001600482015481526020016005820160009054906101000a900460ff161515151581526020016005820160019054906101000a900460ff1615151515815260200160068201805480602002602001604051908101604052809291908181526020018280548015611a9257602002820191906000526020600020905b815481526020019060010190808311611a7e575b5050505050815260200160078201805480602002602001604051908101604052809291908181526020018280548015611aea57602002820191906000526020600020905b815481526020019060010190808311611ad6575b505050505081525050905092915050565b6003604051806080016040528060038054905081526020018581526020018467ffffffffffffffff1681526020018373ffffffffffffffffffffffffffffffffffffffff168152509080600181540180825580915050600190039060005260206000209060030201600090919091909150600082015181600001556020820151816001019080519060200190611b92929190611f10565b5060408201518160020160006101000a81548167ffffffffffffffff021916908367ffffffffffffffff16021790555060608201518160020160086101000a81548173ffffffffffffffffffffffffffffffffffffffff021916908373ffffffffffffffffffffffffffffffffffffffff1602179055505050505050565b611c18611e16565b6001808381548110611c2d57611c2c612fcc565b5b906000526020600020906008020160050160016101000a81548160ff02191690831515021790555060018281548110611c6957611c68612fcc565b5b906000526020600020906008020160405180610120016040529081600082015481526020016001820160009054906101000a900467ffffffffffffffff1667ffffffffffffffff1667ffffffffffffffff168152602001600282015481526020016003820160009054906101000a900473ffffffffffffffffffffffffffffffffffffffff1673ffffffffffffffffffffffffffffffffffffffff1673ffffffffffffffffffffffffffffffffffffffff168152602001600482015481526020016005820160009054906101000a900460ff161515151581526020016005820160019054906101000a900460ff1615151515815260200160068201805480602002602001604051908101604052809291908181526020018280548015611dae57602002820191906000526020600020905b815481526020019060010190808311611d9a575b5050505050815260200160078201805480602002602001604051908101604052809291908181526020018280548015611e0657602002820191906000526020600020905b815481526020019060010190808311611df2575b5050505050815250509050919050565b60405180610120016040528060008152602001600067ffffffffffffffff16815260200160008152602001600073ffffffffffffffffffffffffffffffffffffffff1681526020016000815260200160001515815260200160001515815260200160608152602001606081525090565b828054828255906000526020600020908101928215611ec2579160200282015b82811115611ec1578251825591602001919060010190611ea6565b5b509050611ecf9190611fd4565b5090565b6040518060e00160405280600081526020016060815260200160608152602001600081526020016000815260200160608152602001606081525090565b828054611f1c90612f9a565b90600052602060002090601f016020900481019282611f3e5760008555611f85565b82601f10611f5757805160ff1916838001178555611f85565b82800160010185558215611f85579182015b82811115611f84578251825591602001919060010190611f69565b5b509050611f929190611fd4565b5090565b6040518060800160405280600081526020016060815260200160608152602001600073ffffffffffffffffffffffffffffffffffffffff1681525090565b5b80821115611fed576000816000905550600101611fd5565b5090565b6000604051905090565b600080fd5b600080fd5b6000819050919050565b61201881612005565b811461202357600080fd5b50565b6000813590506120358161200f565b92915050565b60006020828403121561205157612050611ffb565b5b600061205f84828501612026565b91505092915050565b61207181612005565b82525050565b600081519050919050565b600082825260208201905092915050565b60005b838110156120b1578082015181840152602081019050612096565b838111156120c0576000848401525b50505050565b6000601f19601f8301169050919050565b60006120e282612077565b6120ec8185612082565b93506120fc818560208601612093565b612105816120c6565b840191505092915050565b600060e082019050612125600083018a612068565b818103602083015261213781896120d7565b9050818103604083015261214b81886120d7565b905061215a6060830187612068565b6121676080830186612068565b81810360a083015261217981856120d7565b905081810360c083015261218d81846120d7565b905098975050505050505050565b600080fd5b7f4e487b7100000000000000000000000000000000000000000000000000000000600052604160045260246000fd5b6121d8826120c6565b810181811067ffffffffffffffff821117156121f7576121f66121a0565b5b80604052505050565b600061220a611ff1565b905061221682826121cf565b919050565b600067ffffffffffffffff821115612236576122356121a0565b5b602082029050602081019050919050565b600080fd5b600061225f61225a8461221b565b612200565b9050808382526020820190506020840283018581111561228257612281612247565b5b835b818110156122ab57806122978882612026565b845260208401935050602081019050612284565b5050509392505050565b600082601f8301126122ca576122c961219b565b5b81356122da84826020860161224c565b91505092915050565b600067ffffffffffffffff82169050919050565b612300816122e3565b811461230b57600080fd5b50565b60008135905061231d816122f7565b92915050565b600073ffffffffffffffffffffffffffffffffffffffff82169050919050565b600061234e82612323565b9050919050565b61235e81612343565b811461236957600080fd5b50565b60008135905061237b81612355565b92915050565b600080600080600060a0868803121561239d5761239c611ffb565b5b600086013567ffffffffffffffff8111156123bb576123ba612000565b5b6123c7888289016122b5565b95505060206123d88882890161230e565b94505060406123e988828901612026565b93505060606123fa8882890161236c565b925050608061240b88828901612026565b9150509295509295909350565b61242181612005565b82525050565b612430816122e3565b82525050565b61243f81612343565b82525050565b60008115159050919050565b61245a81612445565b82525050565b600081519050919050565b600082825260208201905092915050565b6000819050602082019050919050565b60006124988383612418565b60208301905092915050565b6000602082019050919050565b60006124bc82612460565b6124c6818561246b565b93506124d18361247c565b8060005b838110156125025781516124e9888261248c565b97506124f4836124a4565b9250506001810190506124d5565b5085935050505092915050565b6000610120830160008301516125286000860182612418565b50602083015161253b6020860182612427565b50604083015161254e6040860182612418565b5060608301516125616060860182612436565b5060808301516125746080860182612418565b5060a083015161258760a0860182612451565b5060c083015161259a60c0860182612451565b5060e083015184820360e08601526125b282826124b1565b9150506101008301518482036101008601526125ce82826124b1565b9150508091505092915050565b600060208201905081810360008301526125f5818461250f565b905092915050565b600082825260208201905092915050565b600061261982612077565b61262381856125fd565b9350612633818560208601612093565b61263c816120c6565b840191505092915050565b600060e08301600083015161265f6000860182612418565b5060208301518482036020860152612677828261260e565b91505060408301518482036040860152612691828261260e565b91505060608301516126a66060860182612418565b5060808301516126b96080860182612418565b5060a083015184820360a08601526126d1828261260e565b91505060c083015184820360c08601526126eb828261260e565b9150508091505092915050565b600060208201905081810360008301526127128184612647565b905092915050565b600080fd5b600067ffffffffffffffff82111561273a576127396121a0565b5b612743826120c6565b9050602081019050919050565b82818337600083830152505050565b600061277261276d8461271f565b612200565b90508281526020810184848401111561278e5761278d61271a565b5b612799848285612750565b509392505050565b600082601f8301126127b6576127b561219b565b5b81356127c684826020860161275f565b91505092915050565b600080600080600060a086880312156127eb576127ea611ffb565b5b600086013567ffffffffffffffff81111561280957612808612000565b5b612815888289016127a1565b955050602086013567ffffffffffffffff81111561283657612835612000565b5b612842888289016127a1565b945050604061285388828901612026565b935050606061286488828901612026565b925050608086013567ffffffffffffffff81111561288557612884612000565b5b612891888289016127a1565b9150509295509295909350565b6128a781612343565b82525050565b60006080820190506128c26000830187612068565b81810360208301526128d481866120d7565b905081810360408301526128e881856120d7565b90506128f7606083018461289e565b95945050505050565b60006020828403121561291657612915611ffb565b5b60006129248482850161236c565b91505092915050565b6000608082019050612942600083018761289e565b818103602083015261295481866120d7565b9050818103604083015261296881856120d7565b9050818103606083015261297c81846120d7565b905095945050505050565b6000806000606084860312156129a05761299f611ffb565b5b600084013567ffffffffffffffff8111156129be576129bd612000565b5b6129ca868287016127a1565b935050602084013567ffffffffffffffff8111156129eb576129ea612000565b5b6129f7868287016127a1565b925050604084013567ffffffffffffffff811115612a1857612a17612000565b5b612a24868287016127a1565b9150509250925092565b612a37816122e3565b82525050565b6000608082019050612a526000830187612068565b8181036020830152612a6481866120d7565b9050612a736040830185612a2e565b612a80606083018461289e565b95945050505050565b612a9281612445565b82525050565b600060e082019050612aad600083018a612068565b612aba6020830189612a2e565b612ac76040830188612068565b612ad4606083018761289e565b612ae16080830186612068565b612aee60a0830185612a89565b612afb60c0830184612a89565b98975050505050505050565b600067ffffffffffffffff821115612b2257612b216121a0565b5b602082029050602081019050919050565b6000612b46612b4184612b07565b612200565b90508083825260208201905060208402830185811115612b6957612b68612247565b5b835b81811015612bb057803567ffffffffffffffff811115612b8e57612b8d61219b565b5b808601612b9b89826127a1565b85526020850194505050602081019050612b6b565b5050509392505050565b600082601f830112612bcf57612bce61219b565b5b8135612bdf848260208601612b33565b91505092915050565b600067ffffffffffffffff821115612c0357612c026121a0565b5b602082029050602081019050919050565b6000612c27612c2284612be8565b612200565b90508083825260208201905060208402830185811115612c4a57612c49612247565b5b835b81811015612c735780612c5f888261236c565b845260208401935050602081019050612c4c565b5050509392505050565b600082601f830112612c9257612c9161219b565b5b8135612ca2848260208601612c14565b91505092915050565b600080600060608486031215612cc457612cc3611ffb565b5b600084013567ffffffffffffffff811115612ce257612ce1612000565b5b612cee86828701612bba565b935050602084013567ffffffffffffffff811115612d0f57612d0e612000565b5b612d1b86828701612bba565b925050604084013567ffffffffffffffff811115612d3c57612d3b612000565b5b612d4886828701612c7d565b9150509250925092565b600081519050919050565b600082825260208201905092915050565b6000819050602082019050919050565b6000608083016000830151612d966000860182612418565b5060208301518482036020860152612dae828261260e565b91505060408301518482036040860152612dc8828261260e565b9150506060830151612ddd6060860182612436565b508091505092915050565b6000612df48383612d7e565b905092915050565b6000602082019050919050565b6000612e1482612d52565b612e1e8185612d5d565b935083602082028501612e3085612d6e565b8060005b85811015612e6c5784840389528151612e4d8582612de8565b9450612e5883612dfc565b925060208a01995050600181019050612e34565b50829750879550505050505092915050565b60006020820190508181036000830152612e988184612e09565b905092915050565b60008060408385031215612eb757612eb6611ffb565b5b6000612ec585828601612026565b925050602083013567ffffffffffffffff811115612ee657612ee5612000565b5b612ef2858286016122b5565b9150509250929050565b600080600060608486031215612f1557612f14611ffb565b5b600084013567ffffffffffffffff811115612f3357612f32612000565b5b612f3f868287016127a1565b9350506020612f508682870161230e565b9250506040612f618682870161236c565b9150509250925092565b7f4e487b7100000000000000000000000000000000000000000000000000000000600052602260045260246000fd5b60006002820490506001821680612fb257607f821691505b60208210811415612fc657612fc5612f6b565b5b50919050565b7f4e487b7100000000000000000000000000000000000000000000000000000000600052603260045260246000fd5b7f4e487b7100000000000000000000000000000000000000000000000000000000600052601160045260246000fd5b600061303582612005565b915061304083612005565b92508282101561305357613052612ffb565b5b828203905092915050565b600061306982612005565b91507fffffffffffffffffffffffffffffffffffffffffffffffffffffffffffffffff82141561309c5761309b612ffb565b5b60018201905091905056fea2646970667358221220448250507a48dbf7749839ec6d5c63eae86635b3a38c8a6426af28f686c8285d64736f6c634300080a0033",
  "immutableReferences": {},
  "source": "// SPDX-License-Identifier: CC-BY-SA-4.0\npragma solidity >=0.7.0 <0.9.0;\n\n\ncontract Business{\n\n    struct Ticket{\n        uint256 id;\n        string class;\n        string seat;\n        address Traveller_id;\n    }\n\n    struct Traveller{\n        address id;\n        string name;\n        string surname;\n        string nationality;\n    }\n\n    struct Luggage{\n        uint256 id;\n        string color;\n        uint64 weight;\n        address Traveller_id;\n    }\n\n    struct boarding_card{\n        uint256 id;\n        uint64 gate;\n        uint256 boarding_time;\n        address Traveller_id;\n        uint256 flight_id;\n        bool luggage_delivered;\n        bool security_check;\n        uint256[] Luggage_id;\n        uint256[] Ticket_id;\n    }\n\n    struct flight{\n        uint256 id;\n        string from;\n        string to;\n        uint256 time_departure;\n        uint256 time_arrival;\n        string state;\n        string company; //possibile altro oggetto se serve\n    }\n\n    Ticket[] public tickets;\n    boarding_card[] public cards;\n    flight[] public flights;\n    Luggage[] public luggages;\n    mapping (address => Traveller) public travellers;\n\n    function add_flight(string memory from, string memory to, uint256 time_departure, uint256 time_arrival, string memory company) public {\n        flights.push(flight(flights.length, from, to, time_departure, time_arrival, \"scheduled\", company));\n    }\n\n    function add_traveller(string memory name, string memory surname, string memory nationality) public {\n        travellers[msg.sender] = Traveller(msg.sender, name, surname, nationality);\n    }\n\n    function add_luggage(string memory color, uint64 weight, address traveller_id) public {\n        luggages.push(Luggage(luggages.length, color, weight, traveller_id));\n    }\n\n    function buy_trip (string[] memory class, string[] memory seat, address[] memory travellers) public virtual returns (Ticket[] memory t){\n        Ticket[] memory res = new Ticket[](class.length);\n        for (uint i = 0; i < class.length; i++) { \n            tickets.push(Ticket(tickets.length, class[i], seat[i], travellers[i]));\n            res[i] = tickets[tickets.length-1];\n        }\n        return res;\n    }\n\n    function check_in ( uint256[] memory t, uint64 gate, uint256 boarding_time, address Traveller_id, uint256 flight_id) public virtual returns (boarding_card memory c){\n        c.id = cards.length;\n        c.gate = gate;\n        c.boarding_time = boarding_time;\n        c.Traveller_id = Traveller_id;\n        c.flight_id = flight_id;\n        c.Ticket_id = t;\n        cards.push(c);\n        return c;\n    }\n\n    function deliver_luggage (uint256 card_id, uint256[] memory luggages) public virtual returns (boarding_card memory c){\n        cards[card_id].luggage_delivered = true;\n        cards[card_id].Luggage_id = luggages;\n        return cards[card_id];\n    }\n\n    function security_controls (uint256 card_id) public virtual  returns (boarding_card memory c){\n        cards[card_id].security_check = true;\n        return cards[card_id];\n    }\n\n    function start_flight (uint flight_id) public virtual  returns (flight memory f){\n        flights[flight_id].state=\"Departed\";\n        return flights[flight_id];\n    }\n\n    function cancel_flight (uint flight_id) public virtual  returns (flight memory f){\n        flights[flight_id].state=\"Cancelled\";\n        return flights[flight_id];   \n    }\n}\n\n\n\ncontract Logging is Business\n{\n\n    Business inner_contract;\n\n    event call_buy_trip (Ticket[] t);\n    event call_check_in (boarding_card c);\n    event call_deliver_luggage (boarding_card c); //luggage?\n    event call_security_control (boarding_card c);\n    event call_start_flight (flight f);\n    event call_cancel_flight (flight f);\n\n    event update_Luggage(Luggage l);\n    event update_Traveller(Traveller t);\n\n    constructor(address add) \n    {\n        inner_contract = Business(add);\n    }\n\n\n    function buy_trip (string[] memory class, string[] memory seat, address[] memory travellers) public override returns (Ticket[] memory t){\n        t = inner_contract.buy_trip(class, seat, travellers);\n        for (uint256 i=0; i<t.length; i++){\n            Traveller memory trav;\n            (trav.id,trav.name,trav.surname,trav.nationality) = inner_contract.travellers(t[i].Traveller_id);\n            emit update_Traveller(trav);\n        }\n        emit call_buy_trip(t);\n    }\n\n    function check_in ( uint256[] memory t, uint64 gate, uint256 boarding_time, address Traveller_id, uint256 flight_id) public override returns (boarding_card memory c){\n        c = inner_contract.check_in(t, gate, boarding_time, Traveller_id, flight_id);\n        emit call_check_in(c);\n    }\n\n\n    function deliver_luggage (uint256 card_id, uint256[] memory luggages) public override returns (boarding_card memory c){\n        c = inner_contract.deliver_luggage(card_id, luggages);\n        for (uint256 i=0; i<c.Luggage_id.length; i++){\n            Luggage memory l;\n            (l.id,l.color,l.weight,l.Traveller_id) = inner_contract.luggages(c.Luggage_id[i]);\n            emit update_Luggage(l);\n        }\n        emit call_deliver_luggage(c);\n    }\n\n    function security_controls (uint256 card_id) public override  returns (boarding_card memory c){\n        c = inner_contract.security_controls(card_id);\n        emit call_security_control(c);\n    }\n\n    function start_flight (uint flight_id) public override returns (flight memory f){\n        f = inner_contract.start_flight(flight_id);\n        emit call_start_flight(f);\n    }\n\n    function cancel_flight (uint flight_id) public override  returns (flight memory f){\n        f = inner_contract.cancel_flight(flight_id);\n        emit call_cancel_flight(f);  \n    }\n\n  \n}",
  "sourcePath": "/home/andrea/Scrivania/Master-Thesis/Truffle/showcase_2/contracts/Decoupled.sol",
  "compiler": {
    "name": "solc",
    "version": "0.8.10+commit.fc410830.Emscripten.clang"
  },
  "schemaVersion": "3.4.3",
  "updatedAt": "2022-09-29T09:37:27.158Z",
  "networkType": "ethereum",
  "devdoc": {
    "kind": "dev",
    "methods": {},
    "version": 1
  },
  "userdoc": {
    "kind": "user",
    "methods": {},
    "version": 1
  }
}