{
  "contractName": "Monolith",
  "abi": [
    {
      "anonymous": false,
      "inputs": [
        {
          "components": [
            {
              "internalType": "uint256",
              "name": "id",
              "type": "uint256"
            },
            {
              "internalType": "string",
              "name": "class",
              "type": "string"
            },
            {
              "internalType": "string",
              "name": "seat",
              "type": "string"
            },
            {
              "internalType": "address",
              "name": "Traveller_id",
              "type": "address"
            }
          ],
          "indexed": false,
          "internalType": "struct Monolith.Ticket[]",
          "name": "t",
          "type": "tuple[]"
        }
      ],
      "name": "call_buy_trip",
      "type": "event"
    },
    {
      "anonymous": false,
      "inputs": [
        {
          "components": [
            {
              "internalType": "uint256",
              "name": "id",
              "type": "uint256"
            },
            {
              "internalType": "string",
              "name": "from",
              "type": "string"
            },
            {
              "internalType": "string",
              "name": "to",
              "type": "string"
            },
            {
              "internalType": "uint256",
              "name": "time_departure",
              "type": "uint256"
            },
            {
              "internalType": "uint256",
              "name": "time_arrival",
              "type": "uint256"
            },
            {
              "internalType": "string",
              "name": "state",
              "type": "string"
            },
            {
              "internalType": "string",
              "name": "company",
              "type": "string"
            }
          ],
          "indexed": false,
          "internalType": "struct Monolith.flight",
          "name": "f",
          "type": "tuple"
        }
      ],
      "name": "call_cancel_flight",
      "type": "event"
    },
    {
      "anonymous": false,
      "inputs": [
        {
          "components": [
            {
              "internalType": "uint256",
              "name": "id",
              "type": "uint256"
            },
            {
              "internalType": "uint64",
              "name": "gate",
              "type": "uint64"
            },
            {
              "internalType": "uint256",
              "name": "boarding_time",
              "type": "uint256"
            },
            {
              "internalType": "address",
              "name": "Traveller_id",
              "type": "address"
            },
            {
              "internalType": "uint256",
              "name": "flight_id",
              "type": "uint256"
            },
            {
              "internalType": "bool",
              "name": "luggage_delivered",
              "type": "bool"
            },
            {
              "internalType": "bool",
              "name": "security_check",
              "type": "bool"
            },
            {
              "internalType": "uint256[]",
              "name": "Luggage_id",
              "type": "uint256[]"
            },
            {
              "internalType": "uint256[]",
              "name": "Ticket_id",
              "type": "uint256[]"
            }
          ],
          "indexed": false,
          "internalType": "struct Monolith.boarding_card",
          "name": "c",
          "type": "tuple"
        }
      ],
      "name": "call_check_in",
      "type": "event"
    },
    {
      "anonymous": false,
      "inputs": [
        {
          "components": [
            {
              "internalType": "uint256",
              "name": "id",
              "type": "uint256"
            },
            {
              "internalType": "uint64",
              "name": "gate",
              "type": "uint64"
            },
            {
              "internalType": "uint256",
              "name": "boarding_time",
              "type": "uint256"
            },
            {
              "internalType": "address",
              "name": "Traveller_id",
              "type": "address"
            },
            {
              "internalType": "uint256",
              "name": "flight_id",
              "type": "uint256"
            },
            {
              "internalType": "bool",
              "name": "luggage_delivered",
              "type": "bool"
            },
            {
              "internalType": "bool",
              "name": "security_check",
              "type": "bool"
            },
            {
              "internalType": "uint256[]",
              "name": "Luggage_id",
              "type": "uint256[]"
            },
            {
              "internalType": "uint256[]",
              "name": "Ticket_id",
              "type": "uint256[]"
            }
          ],
          "indexed": false,
          "internalType": "struct Monolith.boarding_card",
          "name": "c",
          "type": "tuple"
        }
      ],
      "name": "call_deliver_luggage",
      "type": "event"
    },
    {
      "anonymous": false,
      "inputs": [
        {
          "components": [
            {
              "internalType": "uint256",
              "name": "id",
              "type": "uint256"
            },
            {
              "internalType": "uint64",
              "name": "gate",
              "type": "uint64"
            },
            {
              "internalType": "uint256",
              "name": "boarding_time",
              "type": "uint256"
            },
            {
              "internalType": "address",
              "name": "Traveller_id",
              "type": "address"
            },
            {
              "internalType": "uint256",
              "name": "flight_id",
              "type": "uint256"
            },
            {
              "internalType": "bool",
              "name": "luggage_delivered",
              "type": "bool"
            },
            {
              "internalType": "bool",
              "name": "security_check",
              "type": "bool"
            },
            {
              "internalType": "uint256[]",
              "name": "Luggage_id",
              "type": "uint256[]"
            },
            {
              "internalType": "uint256[]",
              "name": "Ticket_id",
              "type": "uint256[]"
            }
          ],
          "indexed": false,
          "internalType": "struct Monolith.boarding_card",
          "name": "c",
          "type": "tuple"
        }
      ],
      "name": "call_security_control",
      "type": "event"
    },
    {
      "anonymous": false,
      "inputs": [
        {
          "components": [
            {
              "internalType": "uint256",
              "name": "id",
              "type": "uint256"
            },
            {
              "internalType": "string",
              "name": "from",
              "type": "string"
            },
            {
              "internalType": "string",
              "name": "to",
              "type": "string"
            },
            {
              "internalType": "uint256",
              "name": "time_departure",
              "type": "uint256"
            },
            {
              "internalType": "uint256",
              "name": "time_arrival",
              "type": "uint256"
            },
            {
              "internalType": "string",
              "name": "state",
              "type": "string"
            },
            {
              "internalType": "string",
              "name": "company",
              "type": "string"
            }
          ],
          "indexed": false,
          "internalType": "struct Monolith.flight",
          "name": "f",
          "type": "tuple"
        }
      ],
      "name": "call_start_flight",
      "type": "event"
    },
    {
      "anonymous": false,
      "inputs": [
        {
          "components": [
            {
              "internalType": "uint256",
              "name": "id",
              "type": "uint256"
            },
            {
              "internalType": "string",
              "name": "color",
              "type": "string"
            },
            {
              "internalType": "uint64",
              "name": "weight",
              "type": "uint64"
            },
            {
              "internalType": "address",
              "name": "Traveller_id",
              "type": "address"
            }
          ],
          "indexed": false,
          "internalType": "struct Monolith.Luggage",
          "name": "l",
          "type": "tuple"
        }
      ],
      "name": "update_Luggage",
      "type": "event"
    },
    {
      "anonymous": false,
      "inputs": [
        {
          "components": [
            {
              "internalType": "address",
              "name": "id",
              "type": "address"
            },
            {
              "internalType": "string",
              "name": "name",
              "type": "string"
            },
            {
              "internalType": "string",
              "name": "surname",
              "type": "string"
            },
            {
              "internalType": "string",
              "name": "nationality",
              "type": "string"
            }
          ],
          "indexed": false,
          "internalType": "struct Monolith.Traveller",
          "name": "t",
          "type": "tuple"
        }
      ],
      "name": "update_Traveller",
      "type": "event"
    },
    {
      "inputs": [
        {
          "internalType": "uint256",
          "name": "",
          "type": "uint256"
        }
      ],
      "name": "cards",
      "outputs": [
        {
          "internalType": "uint256",
          "name": "id",
          "type": "uint256"
        },
        {
          "internalType": "uint64",
          "name": "gate",
          "type": "uint64"
        },
        {
          "internalType": "uint256",
          "name": "boarding_time",
          "type": "uint256"
        },
        {
          "internalType": "address",
          "name": "Traveller_id",
          "type": "address"
        },
        {
          "internalType": "uint256",
          "name": "flight_id",
          "type": "uint256"
        },
        {
          "internalType": "bool",
          "name": "luggage_delivered",
          "type": "bool"
        },
        {
          "internalType": "bool",
          "name": "security_check",
          "type": "bool"
        }
      ],
      "stateMutability": "view",
      "type": "function",
      "constant": true
    },
    {
      "inputs": [
        {
          "internalType": "uint256",
          "name": "",
          "type": "uint256"
        }
      ],
      "name": "flights",
      "outputs": [
        {
          "internalType": "uint256",
          "name": "id",
          "type": "uint256"
        },
        {
          "internalType": "string",
          "name": "from",
          "type": "string"
        },
        {
          "internalType": "string",
          "name": "to",
          "type": "string"
        },
        {
          "internalType": "uint256",
          "name": "time_departure",
          "type": "uint256"
        },
        {
          "internalType": "uint256",
          "name": "time_arrival",
          "type": "uint256"
        },
        {
          "internalType": "string",
          "name": "state",
          "type": "string"
        },
        {
          "internalType": "string",
          "name": "company",
          "type": "string"
        }
      ],
      "stateMutability": "view",
      "type": "function",
      "constant": true
    },
    {
      "inputs": [
        {
          "internalType": "uint256",
          "name": "",
          "type": "uint256"
        }
      ],
      "name": "luggages",
      "outputs": [
        {
          "internalType": "uint256",
          "name": "id",
          "type": "uint256"
        },
        {
          "internalType": "string",
          "name": "color",
          "type": "string"
        },
        {
          "internalType": "uint64",
          "name": "weight",
          "type": "uint64"
        },
        {
          "internalType": "address",
          "name": "Traveller_id",
          "type": "address"
        }
      ],
      "stateMutability": "view",
      "type": "function",
      "constant": true
    },
    {
      "inputs": [
        {
          "internalType": "uint256",
          "name": "",
          "type": "uint256"
        }
      ],
      "name": "tickets",
      "outputs": [
        {
          "internalType": "uint256",
          "name": "id",
          "type": "uint256"
        },
        {
          "internalType": "string",
          "name": "class",
          "type": "string"
        },
        {
          "internalType": "string",
          "name": "seat",
          "type": "string"
        },
        {
          "internalType": "address",
          "name": "Traveller_id",
          "type": "address"
        }
      ],
      "stateMutability": "view",
      "type": "function",
      "constant": true
    },
    {
      "inputs": [
        {
          "internalType": "address",
          "name": "",
          "type": "address"
        }
      ],
      "name": "travellers",
      "outputs": [
        {
          "internalType": "address",
          "name": "id",
          "type": "address"
        },
        {
          "internalType": "string",
          "name": "name",
          "type": "string"
        },
        {
          "internalType": "string",
          "name": "surname",
          "type": "string"
        },
        {
          "internalType": "string",
          "name": "nationality",
          "type": "string"
        }
      ],
      "stateMutability": "view",
      "type": "function",
      "constant": true
    },
    {
      "inputs": [
        {
          "internalType": "string",
          "name": "from",
          "type": "string"
        },
        {
          "internalType": "string",
          "name": "to",
          "type": "string"
        },
        {
          "internalType": "uint256",
          "name": "time_departure",
          "type": "uint256"
        },
        {
          "internalType": "uint256",
          "name": "time_arrival",
          "type": "uint256"
        },
        {
          "internalType": "string",
          "name": "company",
          "type": "string"
        }
      ],
      "name": "add_flight",
      "outputs": [],
      "stateMutability": "nonpayable",
      "type": "function"
    },
    {
      "inputs": [
        {
          "internalType": "string",
          "name": "name",
          "type": "string"
        },
        {
          "internalType": "string",
          "name": "surname",
          "type": "string"
        },
        {
          "internalType": "string",
          "name": "nationality",
          "type": "string"
        }
      ],
      "name": "add_traveller",
      "outputs": [],
      "stateMutability": "nonpayable",
      "type": "function"
    },
    {
      "inputs": [
        {
          "internalType": "string",
          "name": "color",
          "type": "string"
        },
        {
          "internalType": "uint64",
          "name": "weight",
          "type": "uint64"
        },
        {
          "internalType": "address",
          "name": "traveller_id",
          "type": "address"
        }
      ],
      "name": "add_luggage",
      "outputs": [],
      "stateMutability": "nonpayable",
      "type": "function"
    },
    {
      "inputs": [
        {
          "internalType": "string[]",
          "name": "class",
          "type": "string[]"
        },
        {
          "internalType": "string[]",
          "name": "seat",
          "type": "string[]"
        },
        {
          "internalType": "address[]",
          "name": "travs",
          "type": "address[]"
        }
      ],
      "name": "buy_trip",
      "outputs": [],
      "stateMutability": "nonpayable",
      "type": "function"
    },
    {
      "inputs": [
        {
          "internalType": "uint256[]",
          "name": "t",
          "type": "uint256[]"
        },
        {
          "internalType": "uint64",
          "name": "gate",
          "type": "uint64"
        },
        {
          "internalType": "uint256",
          "name": "boarding_time",
          "type": "uint256"
        },
        {
          "internalType": "address",
          "name": "Traveller_id",
          "type": "address"
        },
        {
          "internalType": "uint256",
          "name": "flight_id",
          "type": "uint256"
        }
      ],
      "name": "check_in",
      "outputs": [],
      "stateMutability": "nonpayable",
      "type": "function"
    },
    {
      "inputs": [
        {
          "internalType": "uint256",
          "name": "card_id",
          "type": "uint256"
        },
        {
          "internalType": "uint256[]",
          "name": "lugs",
          "type": "uint256[]"
        }
      ],
      "name": "deliver_luggage",
      "outputs": [],
      "stateMutability": "nonpayable",
      "type": "function"
    },
    {
      "inputs": [
        {
          "internalType": "uint256",
          "name": "card_id",
          "type": "uint256"
        }
      ],
      "name": "security_controls",
      "outputs": [],
      "stateMutability": "nonpayable",
      "type": "function"
    },
    {
      "inputs": [
        {
          "internalType": "uint256",
          "name": "flight_id",
          "type": "uint256"
        }
      ],
      "name": "start_flight",
      "outputs": [],
      "stateMutability": "nonpayable",
      "type": "function"
    },
    {
      "inputs": [
        {
          "internalType": "uint256",
          "name": "flight_id",
          "type": "uint256"
        }
      ],
      "name": "cancel_flight",
      "outputs": [],
      "stateMutability": "nonpayable",
      "type": "function"
    }
  ],
  "bytecode": "0x608060405234801561001057600080fd5b50612f6e806100206000396000f3fe608060405234801561001057600080fd5b50600436106100ea5760003560e01c806375dc79581161008c5780639b237db4116100665780639b237db414610280578063a16348fc1461029c578063ab7f12db146102b8578063b15a2aef146102d4576100ea565b806375dc7958146101fb5780638aef8aec1461022e5780638dc107681461024a576100ea565b8063390a46d7116100c8578063390a46d71461015d57806350b44712146101795780635648f6ac146101ac57806368675968146101df576100ea565b806315ccf70f146100ef5780631791b9fb14610125578063377c7f4314610141575b600080fd5b610109600480360381019061010491906119f5565b6102f0565b60405161011c9796959493929190611aca565b60405180910390f35b61013f600480360381019061013a9190611d3b565b610562565b005b61015b600480360381019061015691906119f5565b61076b565b005b61017760048036038101906101729190611e87565b610835565b005b610193600480360381019061018e91906119f5565b610968565b6040516101a39493929190611f65565b60405180910390f35b6101c660048036038101906101c19190611fb8565b610ad8565b6040516101d69493929190611fe5565b60405180910390f35b6101f960048036038101906101f4919061203f565b610cc0565b005b610215600480360381019061021091906119f5565b610ddc565b60405161022594939291906120f5565b60405180910390f35b610248600480360381019061024391906119f5565b610ed8565b005b610264600480360381019061025f91906119f5565b610fa2565b604051610277979695949392919061215c565b60405180910390f35b61029a6004803603810190610295919061236f565b611042565b005b6102b660048036038101906102b19190612416565b6114ad565b005b6102d260048036038101906102cd9190612472565b611660565b005b6102ee60048036038101906102e991906119f5565b611775565b005b6002818154811061030057600080fd5b906000526020600020906007020160009150905080600001549080600101805461032990612510565b80601f016020809104026020016040519081016040528092919081815260200182805461035590612510565b80156103a25780601f10610377576101008083540402835291602001916103a2565b820191906000526020600020905b81548152906001019060200180831161038557829003601f168201915b5050505050908060020180546103b790612510565b80601f01602080910402602001604051908101604052809291908181526020018280546103e390612510565b80156104305780601f1061040557610100808354040283529160200191610430565b820191906000526020600020905b81548152906001019060200180831161041357829003601f168201915b50505050509080600301549080600401549080600501805461045190612510565b80601f016020809104026020016040519081016040528092919081815260200182805461047d90612510565b80156104ca5780601f1061049f576101008083540402835291602001916104ca565b820191906000526020600020905b8154815290600101906020018083116104ad57829003601f168201915b5050505050908060060180546104df90612510565b80601f016020809104026020016040519081016040528092919081815260200182805461050b90612510565b80156105585780601f1061052d57610100808354040283529160200191610558565b820191906000526020600020905b81548152906001019060200180831161053b57829003601f168201915b5050505050905087565b61056a61180d565b60018054905081600001818152505084816020019067ffffffffffffffff16908167ffffffffffffffff16815250508381604001818152505082816060019073ffffffffffffffffffffffffffffffffffffffff16908173ffffffffffffffffffffffffffffffffffffffff1681525050818160800181815250508581610100018190525060018190806001815401808255809150506001900390600052602060002090600802016000909190919091506000820151816000015560208201518160010160006101000a81548167ffffffffffffffff021916908367ffffffffffffffff1602179055506040820151816002015560608201518160030160006101000a81548173ffffffffffffffffffffffffffffffffffffffff021916908373ffffffffffffffffffffffffffffffffffffffff1602179055506080820151816004015560a08201518160050160006101000a81548160ff02191690831515021790555060c08201518160050160016101000a81548160ff02191690831515021790555060e082015181600601908051906020019061070b92919061187d565b5061010082015181600701908051906020019061072992919061187d565b5050507f728bf241be5519d5c83e5ce1d0e4b8a984f5c3f195f2dd767527eba3479fc9528160405161075b91906126f9565b60405180910390a1505050505050565b6040518060400160405280600881526020017f4465706172746564000000000000000000000000000000000000000000000000815250600282815481106107b5576107b461271b565b5b906000526020600020906007020160050190805190602001906107d99291906118ca565b507f7d3a11a0f8772512e8a5defd66f5ea8e3a5c61f18f80e75d1eef914cedc1961c6002828154811061080f5761080e61271b565b5b906000526020600020906007020160405161082a91906128f1565b60405180910390a150565b60026040518060e0016040528060028054905081526020018781526020018681526020018581526020018481526020016040518060400160405280600981526020017f7363686564756c6564000000000000000000000000000000000000000000000081525081526020018381525090806001815401808255809150506001900390600052602060002090600702016000909190919091506000820151816000015560208201518160010190805190602001906108f39291906118ca565b5060408201518160020190805190602001906109109291906118ca565b50606082015181600301556080820151816004015560a08201518160050190805190602001906109419291906118ca565b5060c082015181600601908051906020019061095e9291906118ca565b5050505050505050565b6000818154811061097857600080fd5b90600052602060002090600402016000915090508060000154908060010180546109a190612510565b80601f01602080910402602001604051908101604052809291908181526020018280546109cd90612510565b8015610a1a5780601f106109ef57610100808354040283529160200191610a1a565b820191906000526020600020905b8154815290600101906020018083116109fd57829003601f168201915b505050505090806002018054610a2f90612510565b80601f0160208091040260200160405190810160405280929190818152602001828054610a5b90612510565b8015610aa85780601f10610a7d57610100808354040283529160200191610aa8565b820191906000526020600020905b815481529060010190602001808311610a8b57829003601f168201915b5050505050908060030160009054906101000a900473ffffffffffffffffffffffffffffffffffffffff16905084565b60046020528060005260406000206000915090508060000160009054906101000a900473ffffffffffffffffffffffffffffffffffffffff1690806001018054610b2190612510565b80601f0160208091040260200160405190810160405280929190818152602001828054610b4d90612510565b8015610b9a5780601f10610b6f57610100808354040283529160200191610b9a565b820191906000526020600020905b815481529060010190602001808311610b7d57829003601f168201915b505050505090806002018054610baf90612510565b80601f0160208091040260200160405190810160405280929190818152602001828054610bdb90612510565b8015610c285780601f10610bfd57610100808354040283529160200191610c28565b820191906000526020600020905b815481529060010190602001808311610c0b57829003601f168201915b505050505090806003018054610c3d90612510565b80601f0160208091040260200160405190810160405280929190818152602001828054610c6990612510565b8015610cb65780601f10610c8b57610100808354040283529160200191610cb6565b820191906000526020600020905b815481529060010190602001808311610c9957829003601f168201915b5050505050905084565b60405180608001604052803373ffffffffffffffffffffffffffffffffffffffff16815260200184815260200183815260200182815250600460003373ffffffffffffffffffffffffffffffffffffffff1673ffffffffffffffffffffffffffffffffffffffff16815260200190815260200160002060008201518160000160006101000a81548173ffffffffffffffffffffffffffffffffffffffff021916908373ffffffffffffffffffffffffffffffffffffffff1602179055506020820151816001019080519060200190610d999291906118ca565b506040820151816002019080519060200190610db69291906118ca565b506060820151816003019080519060200190610dd39291906118ca565b50905050505050565b60038181548110610dec57600080fd5b9060005260206000209060030201600091509050806000015490806001018054610e1590612510565b80601f0160208091040260200160405190810160405280929190818152602001828054610e4190612510565b8015610e8e5780601f10610e6357610100808354040283529160200191610e8e565b820191906000526020600020905b815481529060010190602001808311610e7157829003601f168201915b5050505050908060020160009054906101000a900467ffffffffffffffff16908060020160089054906101000a900473ffffffffffffffffffffffffffffffffffffffff16905084565b6040518060400160405280600981526020017f43616e63656c6c6564000000000000000000000000000000000000000000000081525060028281548110610f2257610f2161271b565b5b90600052602060002090600702016005019080519060200190610f469291906118ca565b507f6ae1b7a291062d83353684b255d12d58fe08a359bfa077011f130be90f4aeeee60028281548110610f7c57610f7b61271b565b5b9060005260206000209060070201604051610f9791906128f1565b60405180910390a150565b60018181548110610fb257600080fd5b90600052602060002090600802016000915090508060000154908060010160009054906101000a900467ffffffffffffffff16908060020154908060030160009054906101000a900473ffffffffffffffffffffffffffffffffffffffff16908060040154908060050160009054906101000a900460ff16908060050160019054906101000a900460ff16905087565b6000835167ffffffffffffffff81111561105f5761105e611b5a565b5b60405190808252806020026020018201604052801561109857816020015b611085611950565b81526020019060019003908161107d5790505b50905060005b845181101561146f576000604051806080016040528060008054905081526020018784815181106110d2576110d161271b565b5b602002602001015181526020018684815181106110f2576110f161271b565b5b602002602001015181526020018584815181106111125761111161271b565b5b602002602001015173ffffffffffffffffffffffffffffffffffffffff1681525090806001815401808255809150506001900390600052602060002090600402016000909190919091506000820151816000015560208201518160010190805190602001906111829291906118ca565b50604082015181600201908051906020019061119f9291906118ca565b5060608201518160030160006101000a81548173ffffffffffffffffffffffffffffffffffffffff021916908373ffffffffffffffffffffffffffffffffffffffff1602179055505050600060016000805490506111fd9190612942565b8154811061120e5761120d61271b565b5b90600052602060002090600402016040518060800160405290816000820154815260200160018201805461124190612510565b80601f016020809104026020016040519081016040528092919081815260200182805461126d90612510565b80156112ba5780601f1061128f576101008083540402835291602001916112ba565b820191906000526020600020905b81548152906001019060200180831161129d57829003601f168201915b505050505081526020016002820180546112d390612510565b80601f01602080910402602001604051908101604052809291908181526020018280546112ff90612510565b801561134c5780601f106113215761010080835404028352916020019161134c565b820191906000526020600020905b81548152906001019060200180831161132f57829003601f168201915b505050505081526020016003820160009054906101000a900473ffffffffffffffffffffffffffffffffffffffff1673ffffffffffffffffffffffffffffffffffffffff1673ffffffffffffffffffffffffffffffffffffffff16815250508282815181106113be576113bd61271b565b5b60200260200101819052507fe1d21b11bd09f416368feab7864a531e8d8d5d6245543c5f4470019ffe27a389600460008484815181106114015761140061271b565b5b60200260200101516060015173ffffffffffffffffffffffffffffffffffffffff1673ffffffffffffffffffffffffffffffffffffffff1681526020019081526020016000206040516114549190612a2b565b60405180910390a1808061146790612a4d565b91505061109e565b507f3cb2f2d3cefb7f39ebe80b1c1179dc6b3ca63766422c441d3ba6da350d939a968160405161149f9190612bfb565b60405180910390a150505050565b60018083815481106114c2576114c161271b565b5b906000526020600020906008020160050160006101000a81548160ff02191690831515021790555080600183815481106114ff576114fe61271b565b5b9060005260206000209060080201600601908051906020019061152392919061187d565b5060005b6001838154811061153b5761153a61271b565b5b906000526020600020906008020160060180549050811015611603577f9e10b48ae9171e7a64a4d97adb8b93809b3b4f519c6b308229171506682cabad60036001858154811061158e5761158d61271b565b5b906000526020600020906008020160060183815481106115b1576115b061271b565b5b9060005260206000200154815481106115cd576115cc61271b565b5b90600052602060002090600302016040516115e89190612cf0565b60405180910390a180806115fb90612a4d565b915050611527565b507f24efd69e9e77b68c23028421e8c01c7a27b5dabb674ad138ba0ffd5bbd60a8eb600183815481106116395761163861271b565b5b90600052602060002090600802016040516116549190612f16565b60405180910390a15050565b6003604051806080016040528060038054905081526020018581526020018467ffffffffffffffff1681526020018373ffffffffffffffffffffffffffffffffffffffff1681525090806001815401808255809150506001900390600052602060002090600302016000909190919091506000820151816000015560208201518160010190805190602001906116f79291906118ca565b5060408201518160020160006101000a81548167ffffffffffffffff021916908367ffffffffffffffff16021790555060608201518160020160086101000a81548173ffffffffffffffffffffffffffffffffffffffff021916908373ffffffffffffffffffffffffffffffffffffffff1602179055505050505050565b600180828154811061178a5761178961271b565b5b906000526020600020906008020160050160016101000a81548160ff0219169083151502179055507ffc44c543e4c095ee832160be1acbd2780e28d86b03f9d31f43f3ef204f4cf07b600182815481106117e7576117e661271b565b5b90600052602060002090600802016040516118029190612f16565b60405180910390a150565b60405180610120016040528060008152602001600067ffffffffffffffff16815260200160008152602001600073ffffffffffffffffffffffffffffffffffffffff1681526020016000815260200160001515815260200160001515815260200160608152602001606081525090565b8280548282559060005260206000209081019282156118b9579160200282015b828111156118b857825182559160200191906001019061189d565b5b5090506118c6919061198e565b5090565b8280546118d690612510565b90600052602060002090601f0160209004810192826118f8576000855561193f565b82601f1061191157805160ff191683800117855561193f565b8280016001018555821561193f579182015b8281111561193e578251825591602001919060010190611923565b5b50905061194c919061198e565b5090565b6040518060800160405280600081526020016060815260200160608152602001600073ffffffffffffffffffffffffffffffffffffffff1681525090565b5b808211156119a757600081600090555060010161198f565b5090565b6000604051905090565b600080fd5b600080fd5b6000819050919050565b6119d2816119bf565b81146119dd57600080fd5b50565b6000813590506119ef816119c9565b92915050565b600060208284031215611a0b57611a0a6119b5565b5b6000611a19848285016119e0565b91505092915050565b611a2b816119bf565b82525050565b600081519050919050565b600082825260208201905092915050565b60005b83811015611a6b578082015181840152602081019050611a50565b83811115611a7a576000848401525b50505050565b6000601f19601f8301169050919050565b6000611a9c82611a31565b611aa68185611a3c565b9350611ab6818560208601611a4d565b611abf81611a80565b840191505092915050565b600060e082019050611adf600083018a611a22565b8181036020830152611af18189611a91565b90508181036040830152611b058188611a91565b9050611b146060830187611a22565b611b216080830186611a22565b81810360a0830152611b338185611a91565b905081810360c0830152611b478184611a91565b905098975050505050505050565b600080fd5b7f4e487b7100000000000000000000000000000000000000000000000000000000600052604160045260246000fd5b611b9282611a80565b810181811067ffffffffffffffff82111715611bb157611bb0611b5a565b5b80604052505050565b6000611bc46119ab565b9050611bd08282611b89565b919050565b600067ffffffffffffffff821115611bf057611bef611b5a565b5b602082029050602081019050919050565b600080fd5b6000611c19611c1484611bd5565b611bba565b90508083825260208201905060208402830185811115611c3c57611c3b611c01565b5b835b81811015611c655780611c5188826119e0565b845260208401935050602081019050611c3e565b5050509392505050565b600082601f830112611c8457611c83611b55565b5b8135611c94848260208601611c06565b91505092915050565b600067ffffffffffffffff82169050919050565b611cba81611c9d565b8114611cc557600080fd5b50565b600081359050611cd781611cb1565b92915050565b600073ffffffffffffffffffffffffffffffffffffffff82169050919050565b6000611d0882611cdd565b9050919050565b611d1881611cfd565b8114611d2357600080fd5b50565b600081359050611d3581611d0f565b92915050565b600080600080600060a08688031215611d5757611d566119b5565b5b600086013567ffffffffffffffff811115611d7557611d746119ba565b5b611d8188828901611c6f565b9550506020611d9288828901611cc8565b9450506040611da3888289016119e0565b9350506060611db488828901611d26565b9250506080611dc5888289016119e0565b9150509295509295909350565b600080fd5b600067ffffffffffffffff821115611df257611df1611b5a565b5b611dfb82611a80565b9050602081019050919050565b82818337600083830152505050565b6000611e2a611e2584611dd7565b611bba565b905082815260208101848484011115611e4657611e45611dd2565b5b611e51848285611e08565b509392505050565b600082601f830112611e6e57611e6d611b55565b5b8135611e7e848260208601611e17565b91505092915050565b600080600080600060a08688031215611ea357611ea26119b5565b5b600086013567ffffffffffffffff811115611ec157611ec06119ba565b5b611ecd88828901611e59565b955050602086013567ffffffffffffffff811115611eee57611eed6119ba565b5b611efa88828901611e59565b9450506040611f0b888289016119e0565b9350506060611f1c888289016119e0565b925050608086013567ffffffffffffffff811115611f3d57611f3c6119ba565b5b611f4988828901611e59565b9150509295509295909350565b611f5f81611cfd565b82525050565b6000608082019050611f7a6000830187611a22565b8181036020830152611f8c8186611a91565b90508181036040830152611fa08185611a91565b9050611faf6060830184611f56565b95945050505050565b600060208284031215611fce57611fcd6119b5565b5b6000611fdc84828501611d26565b91505092915050565b6000608082019050611ffa6000830187611f56565b818103602083015261200c8186611a91565b905081810360408301526120208185611a91565b905081810360608301526120348184611a91565b905095945050505050565b600080600060608486031215612058576120576119b5565b5b600084013567ffffffffffffffff811115612076576120756119ba565b5b61208286828701611e59565b935050602084013567ffffffffffffffff8111156120a3576120a26119ba565b5b6120af86828701611e59565b925050604084013567ffffffffffffffff8111156120d0576120cf6119ba565b5b6120dc86828701611e59565b9150509250925092565b6120ef81611c9d565b82525050565b600060808201905061210a6000830187611a22565b818103602083015261211c8186611a91565b905061212b60408301856120e6565b6121386060830184611f56565b95945050505050565b60008115159050919050565b61215681612141565b82525050565b600060e082019050612171600083018a611a22565b61217e60208301896120e6565b61218b6040830188611a22565b6121986060830187611f56565b6121a56080830186611a22565b6121b260a083018561214d565b6121bf60c083018461214d565b98975050505050505050565b600067ffffffffffffffff8211156121e6576121e5611b5a565b5b602082029050602081019050919050565b600061220a612205846121cb565b611bba565b9050808382526020820190506020840283018581111561222d5761222c611c01565b5b835b8181101561227457803567ffffffffffffffff81111561225257612251611b55565b5b80860161225f8982611e59565b8552602085019450505060208101905061222f565b5050509392505050565b600082601f83011261229357612292611b55565b5b81356122a38482602086016121f7565b91505092915050565b600067ffffffffffffffff8211156122c7576122c6611b5a565b5b602082029050602081019050919050565b60006122eb6122e6846122ac565b611bba565b9050808382526020820190506020840283018581111561230e5761230d611c01565b5b835b8181101561233757806123238882611d26565b845260208401935050602081019050612310565b5050509392505050565b600082601f83011261235657612355611b55565b5b81356123668482602086016122d8565b91505092915050565b600080600060608486031215612388576123876119b5565b5b600084013567ffffffffffffffff8111156123a6576123a56119ba565b5b6123b28682870161227e565b935050602084013567ffffffffffffffff8111156123d3576123d26119ba565b5b6123df8682870161227e565b925050604084013567ffffffffffffffff811115612400576123ff6119ba565b5b61240c86828701612341565b9150509250925092565b6000806040838503121561242d5761242c6119b5565b5b600061243b858286016119e0565b925050602083013567ffffffffffffffff81111561245c5761245b6119ba565b5b61246885828601611c6f565b9150509250929050565b60008060006060848603121561248b5761248a6119b5565b5b600084013567ffffffffffffffff8111156124a9576124a86119ba565b5b6124b586828701611e59565b93505060206124c686828701611cc8565b92505060406124d786828701611d26565b9150509250925092565b7f4e487b7100000000000000000000000000000000000000000000000000000000600052602260045260246000fd5b6000600282049050600182168061252857607f821691505b6020821081141561253c5761253b6124e1565b5b50919050565b61254b816119bf565b82525050565b61255a81611c9d565b82525050565b61256981611cfd565b82525050565b61257881612141565b82525050565b600081519050919050565b600082825260208201905092915050565b6000819050602082019050919050565b60006125b68383612542565b60208301905092915050565b6000602082019050919050565b60006125da8261257e565b6125e48185612589565b93506125ef8361259a565b8060005b8381101561262057815161260788826125aa565b9750612612836125c2565b9250506001810190506125f3565b5085935050505092915050565b6000610120830160008301516126466000860182612542565b5060208301516126596020860182612551565b50604083015161266c6040860182612542565b50606083015161267f6060860182612560565b5060808301516126926080860182612542565b5060a08301516126a560a086018261256f565b5060c08301516126b860c086018261256f565b5060e083015184820360e08601526126d082826125cf565b9150506101008301518482036101008601526126ec82826125cf565b9150508091505092915050565b60006020820190508181036000830152612713818461262d565b905092915050565b7f4e487b7100000000000000000000000000000000000000000000000000000000600052603260045260246000fd5b60008160001c9050919050565b6000819050919050565b600061277461276f8361274a565b612757565b9050919050565b600082825260208201905092915050565b60008190508160005260206000209050919050565b600081546127ae81612510565b6127b8818661277b565b945060018216600081146127d357600181146127e557612818565b60ff1983168652602086019350612818565b6127ee8561278c565b60005b83811015612810578154818901526001820191506020810190506127f1565b808801955050505b50505092915050565b600060e08301600080840154905061283881612761565b6128456000870182612542565b5060018401858303602087015261285c83826127a1565b92505060028401858303604087015261287583826127a1565b9250506003840154905061288881612761565b6128956060870182612542565b50600484015490506128a681612761565b6128b36080870182612542565b506005840185830360a08701526128ca83826127a1565b9250506006840185830360c08701526128e383826127a1565b925050819250505092915050565b6000602082019050818103600083015261290b8184612821565b905092915050565b7f4e487b7100000000000000000000000000000000000000000000000000000000600052601160045260246000fd5b600061294d826119bf565b9150612958836119bf565b92508282101561296b5761296a612913565b5b828203905092915050565b600073ffffffffffffffffffffffffffffffffffffffff82169050919050565b60006129a96129a48361274a565b612976565b9050919050565b60006080830160008084015490506129c781612996565b6129d46000870182612560565b506001840185830360208701526129eb83826127a1565b925050600284018583036040870152612a0483826127a1565b925050600384018583036060870152612a1d83826127a1565b925050819250505092915050565b60006020820190508181036000830152612a4581846129b0565b905092915050565b6000612a58826119bf565b91507fffffffffffffffffffffffffffffffffffffffffffffffffffffffffffffffff821415612a8b57612a8a612913565b5b600182019050919050565b600081519050919050565b600082825260208201905092915050565b6000819050602082019050919050565b6000612acd82611a31565b612ad7818561277b565b9350612ae7818560208601611a4d565b612af081611a80565b840191505092915050565b6000608083016000830151612b136000860182612542565b5060208301518482036020860152612b2b8282612ac2565b91505060408301518482036040860152612b458282612ac2565b9150506060830151612b5a6060860182612560565b508091505092915050565b6000612b718383612afb565b905092915050565b6000602082019050919050565b6000612b9182612a96565b612b9b8185612aa1565b935083602082028501612bad85612ab2565b8060005b85811015612be95784840389528151612bca8582612b65565b9450612bd583612b79565b925060208a01995050600181019050612bb1565b50829750879550505050505092915050565b60006020820190508181036000830152612c158184612b86565b905092915050565b600067ffffffffffffffff82169050919050565b6000612c44612c3f8361274a565b612c1d565b9050919050565b60008160401c9050919050565b6000612c6b612c6683612c4b565b612976565b9050919050565b6000608083016000808401549050612c8981612761565b612c966000870182612542565b50600184018583036020870152612cad83826127a1565b92505060028401549050612cc081612c31565b612ccd6040870182612551565b50612cd781612c58565b612ce46060870182612560565b50819250505092915050565b60006020820190508181036000830152612d0a8184612c72565b905092915050565b600060ff82169050919050565b6000612d32612d2d8361274a565b612d12565b9050919050565b60008160081c9050919050565b6000612d59612d5483612d39565b612d12565b9050919050565b600081549050919050565b60008190508160005260206000209050919050565b6000612d8c8254612761565b9050919050565b6000600182019050919050565b6000612dab82612d60565b612db58185612589565b9350612dc083612d6b565b8060005b83811015612df857612dd582612d80565b612ddf88826125aa565b9750612dea83612d93565b925050600181019050612dc4565b5085935050505092915050565b600061012083016000808401549050612e1d81612761565b612e2a6000870182612542565b5060018401549050612e3b81612c31565b612e486020870182612551565b5060028401549050612e5981612761565b612e666040870182612542565b5060038401549050612e7781612996565b612e846060870182612560565b5060048401549050612e9581612761565b612ea26080870182612542565b5060058401549050612eb381612d1f565b612ec060a087018261256f565b50612eca81612d46565b612ed760c087018261256f565b506006840185830360e0870152612eee8382612da0565b92505060078401858303610100870152612f088382612da0565b925050819250505092915050565b60006020820190508181036000830152612f308184612e05565b90509291505056fea2646970667358221220b0b2748b8e4e9094a9b1269e6388eb79c7c792ed128528824e90d518be31f52264736f6c634300080a0033",
  "immutableReferences": {},
  "source": "// SPDX-License-Identifier: CC-BY-SA-4.0\npragma solidity >=0.7.0 <0.9.0;\n\n\ncontract Monolith {\n\n    struct Ticket{\n        uint256 id;\n        string class;\n        string seat;\n        address Traveller_id;\n    }\n\n    struct Traveller{\n        address id;\n        string name;\n        string surname;\n        string nationality;\n    }\n\n    struct Luggage{\n        uint256 id;\n        string color;\n        uint64 weight;\n        address Traveller_id;\n    }\n\n    struct boarding_card{\n        uint256 id;\n        uint64 gate;\n        uint256 boarding_time;\n        address Traveller_id;\n        uint256 flight_id;\n        bool luggage_delivered;\n        bool security_check;\n        uint256[] Luggage_id;\n        uint256[] Ticket_id;\n    }\n\n    struct flight{\n        uint256 id;\n        string from;\n        string to;\n        uint256 time_departure;\n        uint256 time_arrival;\n        string state;\n        string company; //possibile altro oggetto se serve\n    }\n\n\n    event call_buy_trip (Ticket[] t);\n    event call_check_in (boarding_card c);\n    event call_deliver_luggage (boarding_card c);\n    event call_security_control (boarding_card c);\n    event call_start_flight (flight f);\n    event call_cancel_flight (flight f);\n\n    event update_Luggage(Luggage l);\n    event update_Traveller(Traveller t);\n\n    Ticket[] public tickets;\n    boarding_card[] public cards;\n    flight[] public flights;\n    Luggage[] public luggages;\n    mapping (address => Traveller) public travellers;\n\n\n    function add_flight(string memory from, string memory to, uint256 time_departure, uint256 time_arrival, string memory company) public {\n        flights.push(flight(flights.length, from, to, time_departure, time_arrival, \"scheduled\", company));\n    }\n\n    function add_traveller(string memory name, string memory surname, string memory nationality) public {\n        travellers[msg.sender] = Traveller(msg.sender, name, surname, nationality);\n    }\n\n    function add_luggage(string memory color, uint64 weight, address traveller_id) public {\n        luggages.push(Luggage(luggages.length, color, weight, traveller_id));\n    }\n\n    function buy_trip (string[] memory class, string[] memory seat, address[] memory travs) public {\n        Ticket[] memory res = new Ticket[](class.length);\n        for (uint i = 0; i < class.length; i++) { \n            tickets.push(Ticket(tickets.length, class[i], seat[i], travs[i]));\n            res[i] = tickets[tickets.length-1];\n            emit update_Traveller(travellers[res[i].Traveller_id]);\n        }\n\n        emit call_buy_trip(res);\n    }\n\n    function check_in ( uint256[] memory t, uint64 gate, uint256 boarding_time, address Traveller_id, uint256 flight_id) public {\n        boarding_card memory c;\n        c.id = cards.length;\n        c.gate = gate;\n        c.boarding_time = boarding_time;\n        c.Traveller_id = Traveller_id;\n        c.flight_id = flight_id;\n        c.Ticket_id = t;\n        cards.push(c);\n\n        emit call_check_in(c);\n    }\n\n    function deliver_luggage (uint256 card_id, uint256[] memory lugs) public {\n        cards[card_id].luggage_delivered = true;\n        cards[card_id].Luggage_id = lugs;\n\n        for (uint256 i=0; i<cards[card_id].Luggage_id.length; i++){\n            emit update_Luggage(luggages[cards[card_id].Luggage_id[i]]);\n        }\n\n        emit call_deliver_luggage(cards[card_id]);\n    }\n\n    function security_controls (uint256 card_id) public {\n        cards[card_id].security_check = true;\n\n        emit call_security_control(cards[card_id]);\n    }\n\n    function start_flight (uint flight_id) public {\n        flights[flight_id].state=\"Departed\";\n\n        emit call_start_flight(flights[flight_id]);\n    }\n\n    function cancel_flight (uint flight_id) public {\n        flights[flight_id].state=\"Cancelled\";\n\n        emit call_cancel_flight(flights[flight_id]);\n    }\n}\n\n\n\n",
  "sourcePath": "/home/andrea/Scrivania/Master-Thesis/Truffle/showcase_2/contracts/Monolith.sol",
  "compiler": {
    "name": "solc",
    "version": "0.8.10+commit.fc410830.Emscripten.clang"
  },
  "schemaVersion": "3.4.3",
  "updatedAt": "2022-09-29T09:37:25.834Z",
  "networkType": "ethereum",
  "devdoc": {
    "kind": "dev",
    "methods": {},
    "version": 1
  },
  "userdoc": {
    "kind": "user",
    "methods": {},
    "version": 1
  }
}