{
  "contractName": "Application",
  "abi": [
    {
      "inputs": [
        {
          "internalType": "address",
          "name": "",
          "type": "address"
        }
      ],
      "name": "c",
      "outputs": [
        {
          "internalType": "address",
          "name": "id",
          "type": "address"
        },
        {
          "internalType": "string",
          "name": "name",
          "type": "string"
        }
      ],
      "stateMutability": "view",
      "type": "function",
      "constant": true
    },
    {
      "inputs": [
        {
          "internalType": "uint256",
          "name": "",
          "type": "uint256"
        }
      ],
      "name": "deliveries",
      "outputs": [
        {
          "internalType": "uint256",
          "name": "id",
          "type": "uint256"
        },
        {
          "internalType": "address",
          "name": "Customer_id",
          "type": "address"
        },
        {
          "internalType": "uint256",
          "name": "date",
          "type": "uint256"
        },
        {
          "internalType": "string",
          "name": "delivery_add",
          "type": "string"
        }
      ],
      "stateMutability": "view",
      "type": "function",
      "constant": true
    },
    {
      "inputs": [
        {
          "internalType": "uint256",
          "name": "",
          "type": "uint256"
        }
      ],
      "name": "orderlines",
      "outputs": [
        {
          "internalType": "uint256",
          "name": "id",
          "type": "uint256"
        },
        {
          "components": [
            {
              "internalType": "string",
              "name": "name",
              "type": "string"
            },
            {
              "internalType": "uint256",
              "name": "price",
              "type": "uint256"
            },
            {
              "internalType": "string[]",
              "name": "colori",
              "type": "string[]"
            }
          ],
          "internalType": "struct Application.Product",
          "name": "p",
          "type": "tuple"
        },
        {
          "internalType": "uint256",
          "name": "qty",
          "type": "uint256"
        },
        {
          "components": [
            {
              "internalType": "uint256",
              "name": "id",
              "type": "uint256"
            },
            {
              "internalType": "address",
              "name": "Customer_id",
              "type": "address"
            },
            {
              "internalType": "uint256",
              "name": "date",
              "type": "uint256"
            },
            {
              "internalType": "string",
              "name": "delivery_add",
              "type": "string"
            }
          ],
          "internalType": "struct Application.Delivery",
          "name": "d",
          "type": "tuple"
        }
      ],
      "stateMutability": "view",
      "type": "function",
      "constant": true
    },
    {
      "inputs": [
        {
          "internalType": "uint256",
          "name": "",
          "type": "uint256"
        }
      ],
      "name": "orders",
      "outputs": [
        {
          "internalType": "uint256",
          "name": "id",
          "type": "uint256"
        },
        {
          "internalType": "uint256",
          "name": "date",
          "type": "uint256"
        },
        {
          "components": [
            {
              "internalType": "address",
              "name": "id",
              "type": "address"
            },
            {
              "internalType": "string",
              "name": "name",
              "type": "string"
            }
          ],
          "internalType": "struct Application.Customer",
          "name": "c",
          "type": "tuple"
        }
      ],
      "stateMutability": "view",
      "type": "function",
      "constant": true
    },
    {
      "inputs": [
        {
          "internalType": "uint256",
          "name": "",
          "type": "uint256"
        }
      ],
      "name": "p",
      "outputs": [
        {
          "internalType": "string",
          "name": "name",
          "type": "string"
        },
        {
          "internalType": "uint256",
          "name": "price",
          "type": "uint256"
        }
      ],
      "stateMutability": "view",
      "type": "function",
      "constant": true
    },
    {
      "inputs": [
        {
          "internalType": "string",
          "name": "name",
          "type": "string"
        }
      ],
      "name": "SignUP",
      "outputs": [],
      "stateMutability": "nonpayable",
      "type": "function"
    },
    {
      "inputs": [
        {
          "internalType": "string",
          "name": "name",
          "type": "string"
        },
        {
          "internalType": "uint256",
          "name": "price",
          "type": "uint256"
        },
        {
          "internalType": "string[]",
          "name": "colori",
          "type": "string[]"
        }
      ],
      "name": "addProduct",
      "outputs": [],
      "stateMutability": "nonpayable",
      "type": "function"
    },
    {
      "inputs": [
        {
          "internalType": "uint256",
          "name": "ol_id",
          "type": "uint256"
        },
        {
          "internalType": "address",
          "name": "cust",
          "type": "address"
        },
        {
          "internalType": "string",
          "name": "add",
          "type": "string"
        }
      ],
      "name": "deliveryItems",
      "outputs": [],
      "stateMutability": "nonpayable",
      "type": "function"
    },
    {
      "inputs": [
        {
          "internalType": "address",
          "name": "customer",
          "type": "address"
        },
        {
          "internalType": "string",
          "name": "referreal",
          "type": "string"
        }
      ],
      "name": "Create_Order",
      "outputs": [],
      "stateMutability": "nonpayable",
      "type": "function"
    },
    {
      "inputs": [
        {
          "internalType": "uint256",
          "name": "order_id",
          "type": "uint256"
        },
        {
          "components": [
            {
              "internalType": "string",
              "name": "name",
              "type": "string"
            },
            {
              "internalType": "uint256",
              "name": "price",
              "type": "uint256"
            },
            {
              "internalType": "string[]",
              "name": "colori",
              "type": "string[]"
            }
          ],
          "internalType": "struct Application.Product",
          "name": "prod",
          "type": "tuple"
        },
        {
          "internalType": "uint256",
          "name": "qty",
          "type": "uint256"
        }
      ],
      "name": "add_orderline",
      "outputs": [],
      "stateMutability": "nonpayable",
      "type": "function"
    },
    {
      "inputs": [
        {
          "internalType": "uint256",
          "name": "ol_id",
          "type": "uint256"
        }
      ],
      "name": "pick_item",
      "outputs": [
        {
          "components": [
            {
              "internalType": "uint256",
              "name": "id",
              "type": "uint256"
            },
            {
              "components": [
                {
                  "internalType": "string",
                  "name": "name",
                  "type": "string"
                },
                {
                  "internalType": "uint256",
                  "name": "price",
                  "type": "uint256"
                },
                {
                  "internalType": "string[]",
                  "name": "colori",
                  "type": "string[]"
                }
              ],
              "internalType": "struct Application.Product",
              "name": "p",
              "type": "tuple"
            },
            {
              "internalType": "uint256",
              "name": "qty",
              "type": "uint256"
            },
            {
              "components": [
                {
                  "internalType": "uint256",
                  "name": "id",
                  "type": "uint256"
                },
                {
                  "internalType": "address",
                  "name": "Customer_id",
                  "type": "address"
                },
                {
                  "internalType": "uint256",
                  "name": "date",
                  "type": "uint256"
                },
                {
                  "internalType": "string",
                  "name": "delivery_add",
                  "type": "string"
                }
              ],
              "internalType": "struct Application.Delivery",
              "name": "d",
              "type": "tuple"
            }
          ],
          "internalType": "struct Application.OrderLine",
          "name": "ol",
          "type": "tuple"
        }
      ],
      "stateMutability": "nonpayable",
      "type": "function"
    },
    {
      "inputs": [
        {
          "internalType": "uint256",
          "name": "ol_id",
          "type": "uint256"
        },
        {
          "internalType": "string[]",
          "name": "notes",
          "type": "string[]"
        }
      ],
      "name": "wrap_item",
      "outputs": [
        {
          "components": [
            {
              "internalType": "uint256",
              "name": "id",
              "type": "uint256"
            },
            {
              "components": [
                {
                  "internalType": "string",
                  "name": "name",
                  "type": "string"
                },
                {
                  "internalType": "uint256",
                  "name": "price",
                  "type": "uint256"
                },
                {
                  "internalType": "string[]",
                  "name": "colori",
                  "type": "string[]"
                }
              ],
              "internalType": "struct Application.Product",
              "name": "p",
              "type": "tuple"
            },
            {
              "internalType": "uint256",
              "name": "qty",
              "type": "uint256"
            },
            {
              "components": [
                {
                  "internalType": "uint256",
                  "name": "id",
                  "type": "uint256"
                },
                {
                  "internalType": "address",
                  "name": "Customer_id",
                  "type": "address"
                },
                {
                  "internalType": "uint256",
                  "name": "date",
                  "type": "uint256"
                },
                {
                  "internalType": "string",
                  "name": "delivery_add",
                  "type": "string"
                }
              ],
              "internalType": "struct Application.Delivery",
              "name": "d",
              "type": "tuple"
            }
          ],
          "internalType": "struct Application.OrderLine",
          "name": "ol",
          "type": "tuple"
        }
      ],
      "stateMutability": "nonpayable",
      "type": "function"
    }
  ],
  "bytecode": "0x608060405234801561001057600080fd5b506125b7806100206000396000f3fe608060405234801561001057600080fd5b50600436106100b45760003560e01c8063a969204711610071578063a9692047146101a3578063a9e4a324146101d4578063abda8a7714610207578063c4b4d3ca14610223578063ca05632d14610253578063de1187eb1461026f576100b4565b806304ee65c0146100b95780632883077f146100ea5780632c7d67ac14610106578063a2bceb8514610139578063a75dbe2714610155578063a85c38ef14610171575b600080fd5b6100d360048036038101906100ce9190611978565b61029f565b6040516100e1929190611a4d565b60405180910390f35b61010460048036038101906100ff9190611bb2565b61036b565b005b610120600480360381019061011b9190611c44565b610598565b6040516101309493929190611e64565b60405180910390f35b610153600480360381019061014e9190611f9d565b61085d565b005b61016f600480360381019061016a9190612028565b6108ee565b005b61018b60048036038101906101869190611c44565b6109c1565b60405161019a939291906120ae565b60405180910390f35b6101bd60048036038101906101b89190611c44565b610aed565b6040516101cb9291906120ec565b60405180910390f35b6101ee60048036038101906101e99190611c44565b610ba9565b6040516101fe949392919061211c565b60405180910390f35b610221600480360381019061021c919061220e565b610c91565b005b61023d60048036038101906102389190611c44565b610e25565b60405161024a91906123a1565b60405180910390f35b61026d600480360381019061026891906123c3565b61110e565b005b61028960048036038101906102849190612432565b6112ea565b60405161029691906123a1565b60405180910390f35b60006020528060005260406000206000915090508060000160009054906101000a900473ffffffffffffffffffffffffffffffffffffffff16908060010180546102e8906124bd565b80601f0160208091040260200160405190810160405280929190818152602001828054610314906124bd565b80156103615780601f1061033657610100808354040283529160200191610361565b820191906000526020600020905b81548152906001019060200180831161034457829003601f168201915b5050505050905082565b6103736115d4565b428160200181815250506000808473ffffffffffffffffffffffffffffffffffffffff1673ffffffffffffffffffffffffffffffffffffffff1681526020019081526020016000206040518060400160405290816000820160009054906101000a900473ffffffffffffffffffffffffffffffffffffffff1673ffffffffffffffffffffffffffffffffffffffff1673ffffffffffffffffffffffffffffffffffffffff16815260200160018201805461042c906124bd565b80601f0160208091040260200160405190810160405280929190818152602001828054610458906124bd565b80156104a55780601f1061047a576101008083540402835291602001916104a5565b820191906000526020600020905b81548152906001019060200180831161048857829003601f168201915b5050505050815250508160600181905250600180549050816000018181525050600181908060018154018082558091505060019003906000526020600020906005020160009091909190915060008201518160000155602082015181600101556040820151816002019080519060200190610521929190611602565b5060608201518160030160008201518160000160006101000a81548173ffffffffffffffffffffffffffffffffffffffff021916908373ffffffffffffffffffffffffffffffffffffffff160217905550602082015181600101908051906020019061058e92919061164f565b5050505050505050565b600281815481106105a857600080fd5b9060005260206000209060090201600091509050806000015490806001016040518060600160405290816000820180546105e1906124bd565b80601f016020809104026020016040519081016040528092919081815260200182805461060d906124bd565b801561065a5780601f1061062f5761010080835404028352916020019161065a565b820191906000526020600020905b81548152906001019060200180831161063d57829003601f168201915b505050505081526020016001820154815260200160028201805480602002602001604051908101604052809291908181526020016000905b8282101561073e5783829060005260206000200180546106b1906124bd565b80601f01602080910402602001604051908101604052809291908181526020018280546106dd906124bd565b801561072a5780601f106106ff5761010080835404028352916020019161072a565b820191906000526020600020905b81548152906001019060200180831161070d57829003601f168201915b505050505081526020019060010190610692565b50505050815250509080600401549080600501604051806080016040529081600082015481526020016001820160009054906101000a900473ffffffffffffffffffffffffffffffffffffffff1673ffffffffffffffffffffffffffffffffffffffff1673ffffffffffffffffffffffffffffffffffffffff168152602001600282015481526020016003820180546107d6906124bd565b80601f0160208091040260200160405190810160405280929190818152602001828054610802906124bd565b801561084f5780601f106108245761010080835404028352916020019161084f565b820191906000526020600020905b81548152906001019060200180831161083257829003601f168201915b505050505081525050905084565b6003604051806060016040528085815260200184815260200183815250908060018154018082558091505060019003906000526020600020906003020160009091909190915060008201518160000190805190602001906108bf92919061164f565b506020820151816001015560408201518160020190805190602001906108e69291906116d5565b505050505050565b60405180604001604052803373ffffffffffffffffffffffffffffffffffffffff168152602001828152506000803373ffffffffffffffffffffffffffffffffffffffff1673ffffffffffffffffffffffffffffffffffffffff16815260200190815260200160002060008201518160000160006101000a81548173ffffffffffffffffffffffffffffffffffffffff021916908373ffffffffffffffffffffffffffffffffffffffff16021790555060208201518160010190805190602001906109ba92919061164f565b5090505050565b600181815481106109d157600080fd5b9060005260206000209060050201600091509050806000015490806001015490806003016040518060400160405290816000820160009054906101000a900473ffffffffffffffffffffffffffffffffffffffff1673ffffffffffffffffffffffffffffffffffffffff1673ffffffffffffffffffffffffffffffffffffffff168152602001600182018054610a66906124bd565b80601f0160208091040260200160405190810160405280929190818152602001828054610a92906124bd565b8015610adf5780601f10610ab457610100808354040283529160200191610adf565b820191906000526020600020905b815481529060010190602001808311610ac257829003601f168201915b505050505081525050905083565b60038181548110610afd57600080fd5b9060005260206000209060030201600091509050806000018054610b20906124bd565b80601f0160208091040260200160405190810160405280929190818152602001828054610b4c906124bd565b8015610b995780601f10610b6e57610100808354040283529160200191610b99565b820191906000526020600020905b815481529060010190602001808311610b7c57829003601f168201915b5050505050908060010154905082565b60048181548110610bb957600080fd5b90600052602060002090600402016000915090508060000154908060010160009054906101000a900473ffffffffffffffffffffffffffffffffffffffff1690806002015490806003018054610c0e906124bd565b80601f0160208091040260200160405190810160405280929190818152602001828054610c3a906124bd565b8015610c875780601f10610c5c57610100808354040283529160200191610c87565b820191906000526020600020905b815481529060010190602001808311610c6a57829003601f168201915b5050505050905084565b610c99611735565b818160400181815250508281602001819052506002805490508160000181815250506002819080600181540180825580915050600190039060005260206000209060090201600090919091909150600082015181600001556020820151816001016000820151816000019080519060200190610d1692919061164f565b50602082015181600101556040820151816002019080519060200190610d3d9291906116d5565b505050604082015181600401556060820151816005016000820151816000015560208201518160010160006101000a81548173ffffffffffffffffffffffffffffffffffffffff021916908373ffffffffffffffffffffffffffffffffffffffff160217905550604082015181600201556060820151816003019080519060200190610dca92919061164f565b505050505060018481548110610de357610de26124ef565b5b90600052602060002090600502016002018160000151908060018154018082558091505060019003906000526020600020016000909190919091505550505050565b610e2d611735565b60028281548110610e4157610e406124ef565b5b90600052602060002090600902016040518060800160405290816000820154815260200160018201604051806060016040529081600082018054610e84906124bd565b80601f0160208091040260200160405190810160405280929190818152602001828054610eb0906124bd565b8015610efd5780601f10610ed257610100808354040283529160200191610efd565b820191906000526020600020905b815481529060010190602001808311610ee057829003601f168201915b505050505081526020016001820154815260200160028201805480602002602001604051908101604052809291908181526020016000905b82821015610fe1578382906000526020600020018054610f54906124bd565b80601f0160208091040260200160405190810160405280929190818152602001828054610f80906124bd565b8015610fcd5780601f10610fa257610100808354040283529160200191610fcd565b820191906000526020600020905b815481529060010190602001808311610fb057829003601f168201915b505050505081526020019060010190610f35565b505050508152505081526020016004820154815260200160058201604051806080016040529081600082015481526020016001820160009054906101000a900473ffffffffffffffffffffffffffffffffffffffff1673ffffffffffffffffffffffffffffffffffffffff1673ffffffffffffffffffffffffffffffffffffffff16815260200160028201548152602001600382018054611081906124bd565b80601f01602080910402602001604051908101604052809291908181526020018280546110ad906124bd565b80156110fa5780601f106110cf576101008083540402835291602001916110fa565b820191906000526020600020905b8154815290600101906020018083116110dd57829003601f168201915b505050505081525050815250509050919050565b6004604051806080016040528060048054905081526020018473ffffffffffffffffffffffffffffffffffffffff1681526020014281526020018381525090806001815401808255809150506001900390600052602060002090600402016000909190919091506000820151816000015560208201518160010160006101000a81548173ffffffffffffffffffffffffffffffffffffffff021916908373ffffffffffffffffffffffffffffffffffffffff1602179055506040820151816002015560608201518160030190805190602001906111ec92919061164f565b50505060046001600480549050611203919061254d565b81548110611214576112136124ef565b5b906000526020600020906004020160028481548110611236576112356124ef565b5b9060005260206000209060090201600501600082015481600001556001820160009054906101000a900473ffffffffffffffffffffffffffffffffffffffff168160010160006101000a81548173ffffffffffffffffffffffffffffffffffffffff021916908373ffffffffffffffffffffffffffffffffffffffff1602179055506002820154816002015560038201816003019080546112d6906124bd565b6112e1929190611769565b50905050505050565b6112f2611735565b60028381548110611306576113056124ef565b5b90600052602060002090600902016040518060800160405290816000820154815260200160018201604051806060016040529081600082018054611349906124bd565b80601f0160208091040260200160405190810160405280929190818152602001828054611375906124bd565b80156113c25780601f10611397576101008083540402835291602001916113c2565b820191906000526020600020905b8154815290600101906020018083116113a557829003601f168201915b505050505081526020016001820154815260200160028201805480602002602001604051908101604052809291908181526020016000905b828210156114a6578382906000526020600020018054611419906124bd565b80601f0160208091040260200160405190810160405280929190818152602001828054611445906124bd565b80156114925780601f1061146757610100808354040283529160200191611492565b820191906000526020600020905b81548152906001019060200180831161147557829003601f168201915b5050505050815260200190600101906113fa565b505050508152505081526020016004820154815260200160058201604051806080016040529081600082015481526020016001820160009054906101000a900473ffffffffffffffffffffffffffffffffffffffff1673ffffffffffffffffffffffffffffffffffffffff1673ffffffffffffffffffffffffffffffffffffffff16815260200160028201548152602001600382018054611546906124bd565b80601f0160208091040260200160405190810160405280929190818152602001828054611572906124bd565b80156115bf5780601f10611594576101008083540402835291602001916115bf565b820191906000526020600020905b8154815290600101906020018083116115a257829003601f168201915b50505050508152505081525050905092915050565b60405180608001604052806000815260200160008152602001606081526020016115fc6117f6565b81525090565b82805482825590600052602060002090810192821561163e579160200282015b8281111561163d578251825591602001919060010190611622565b5b50905061164b9190611826565b5090565b82805461165b906124bd565b90600052602060002090601f01602090048101928261167d57600085556116c4565b82601f1061169657805160ff19168380011785556116c4565b828001600101855582156116c4579182015b828111156116c35782518255916020019190600101906116a8565b5b5090506116d19190611826565b5090565b828054828255906000526020600020908101928215611724579160200282015b8281111561172357825182908051906020019061171392919061164f565b50916020019190600101906116f5565b5b5090506117319190611843565b5090565b60405180608001604052806000815260200161174f611867565b815260200160008152602001611763611888565b81525090565b828054611775906124bd565b90600052602060002090601f01602090048101928261179757600085556117e5565b82601f106117a857805485556117e5565b828001600101855582156117e557600052602060002091601f016020900482015b828111156117e45782548255916001019190600101906117c9565b5b5090506117f29190611826565b5090565b6040518060400160405280600073ffffffffffffffffffffffffffffffffffffffff168152602001606081525090565b5b8082111561183f576000816000905550600101611827565b5090565b5b80821115611863576000818161185a91906118c6565b50600101611844565b5090565b60405180606001604052806060815260200160008152602001606081525090565b604051806080016040528060008152602001600073ffffffffffffffffffffffffffffffffffffffff16815260200160008152602001606081525090565b5080546118d2906124bd565b6000825580601f106118e45750611903565b601f0160209004906000526020600020908101906119029190611826565b5b50565b6000604051905090565b600080fd5b600080fd5b600073ffffffffffffffffffffffffffffffffffffffff82169050919050565b60006119458261191a565b9050919050565b6119558161193a565b811461196057600080fd5b50565b6000813590506119728161194c565b92915050565b60006020828403121561198e5761198d611910565b5b600061199c84828501611963565b91505092915050565b6119ae8161193a565b82525050565b600081519050919050565b600082825260208201905092915050565b60005b838110156119ee5780820151818401526020810190506119d3565b838111156119fd576000848401525b50505050565b6000601f19601f8301169050919050565b6000611a1f826119b4565b611a2981856119bf565b9350611a398185602086016119d0565b611a4281611a03565b840191505092915050565b6000604082019050611a6260008301856119a5565b8181036020830152611a748184611a14565b90509392505050565b600080fd5b600080fd5b7f4e487b7100000000000000000000000000000000000000000000000000000000600052604160045260246000fd5b611abf82611a03565b810181811067ffffffffffffffff82111715611ade57611add611a87565b5b80604052505050565b6000611af1611906565b9050611afd8282611ab6565b919050565b600067ffffffffffffffff821115611b1d57611b1c611a87565b5b611b2682611a03565b9050602081019050919050565b82818337600083830152505050565b6000611b55611b5084611b02565b611ae7565b905082815260208101848484011115611b7157611b70611a82565b5b611b7c848285611b33565b509392505050565b600082601f830112611b9957611b98611a7d565b5b8135611ba9848260208601611b42565b91505092915050565b60008060408385031215611bc957611bc8611910565b5b6000611bd785828601611963565b925050602083013567ffffffffffffffff811115611bf857611bf7611915565b5b611c0485828601611b84565b9150509250929050565b6000819050919050565b611c2181611c0e565b8114611c2c57600080fd5b50565b600081359050611c3e81611c18565b92915050565b600060208284031215611c5a57611c59611910565b5b6000611c6884828501611c2f565b91505092915050565b611c7a81611c0e565b82525050565b600082825260208201905092915050565b6000611c9c826119b4565b611ca68185611c80565b9350611cb68185602086016119d0565b611cbf81611a03565b840191505092915050565b611cd381611c0e565b82525050565b600081519050919050565b600082825260208201905092915050565b6000819050602082019050919050565b6000611d118383611c91565b905092915050565b6000602082019050919050565b6000611d3182611cd9565b611d3b8185611ce4565b935083602082028501611d4d85611cf5565b8060005b85811015611d895784840389528151611d6a8582611d05565b9450611d7583611d19565b925060208a01995050600181019050611d51565b50829750879550505050505092915050565b60006060830160008301518482036000860152611db88282611c91565b9150506020830151611dcd6020860182611cca565b5060408301518482036040860152611de58282611d26565b9150508091505092915050565b611dfb8161193a565b82525050565b6000608083016000830151611e196000860182611cca565b506020830151611e2c6020860182611df2565b506040830151611e3f6040860182611cca565b5060608301518482036060860152611e578282611c91565b9150508091505092915050565b6000608082019050611e796000830187611c71565b8181036020830152611e8b8186611d9b565b9050611e9a6040830185611c71565b8181036060830152611eac8184611e01565b905095945050505050565b600067ffffffffffffffff821115611ed257611ed1611a87565b5b602082029050602081019050919050565b600080fd5b6000611efb611ef684611eb7565b611ae7565b90508083825260208201905060208402830185811115611f1e57611f1d611ee3565b5b835b81811015611f6557803567ffffffffffffffff811115611f4357611f42611a7d565b5b808601611f508982611b84565b85526020850194505050602081019050611f20565b5050509392505050565b600082601f830112611f8457611f83611a7d565b5b8135611f94848260208601611ee8565b91505092915050565b600080600060608486031215611fb657611fb5611910565b5b600084013567ffffffffffffffff811115611fd457611fd3611915565b5b611fe086828701611b84565b9350506020611ff186828701611c2f565b925050604084013567ffffffffffffffff81111561201257612011611915565b5b61201e86828701611f6f565b9150509250925092565b60006020828403121561203e5761203d611910565b5b600082013567ffffffffffffffff81111561205c5761205b611915565b5b61206884828501611b84565b91505092915050565b60006040830160008301516120896000860182611df2565b50602083015184820360208601526120a18282611c91565b9150508091505092915050565b60006060820190506120c36000830186611c71565b6120d06020830185611c71565b81810360408301526120e28184612071565b9050949350505050565b600060408201905081810360008301526121068185611a14565b90506121156020830184611c71565b9392505050565b60006080820190506121316000830187611c71565b61213e60208301866119a5565b61214b6040830185611c71565b818103606083015261215d8184611a14565b905095945050505050565b600080fd5b600080fd5b60006060828403121561218857612187612168565b5b6121926060611ae7565b9050600082013567ffffffffffffffff8111156121b2576121b161216d565b5b6121be84828501611b84565b60008301525060206121d284828501611c2f565b602083015250604082013567ffffffffffffffff8111156121f6576121f561216d565b5b61220284828501611f6f565b60408301525092915050565b60008060006060848603121561222757612226611910565b5b600061223586828701611c2f565b935050602084013567ffffffffffffffff81111561225657612255611915565b5b61226286828701612172565b925050604061227386828701611c2f565b9150509250925092565b6000606083016000830151848203600086015261229a8282611c91565b91505060208301516122af6020860182611cca565b50604083015184820360408601526122c78282611d26565b9150508091505092915050565b60006080830160008301516122ec6000860182611cca565b5060208301516122ff6020860182611df2565b5060408301516123126040860182611cca565b506060830151848203606086015261232a8282611c91565b9150508091505092915050565b600060808301600083015161234f6000860182611cca565b5060208301518482036020860152612367828261227d565b915050604083015161237c6040860182611cca565b506060830151848203606086015261239482826122d4565b9150508091505092915050565b600060208201905081810360008301526123bb8184612337565b905092915050565b6000806000606084860312156123dc576123db611910565b5b60006123ea86828701611c2f565b93505060206123fb86828701611963565b925050604084013567ffffffffffffffff81111561241c5761241b611915565b5b61242886828701611b84565b9150509250925092565b6000806040838503121561244957612448611910565b5b600061245785828601611c2f565b925050602083013567ffffffffffffffff81111561247857612477611915565b5b61248485828601611f6f565b9150509250929050565b7f4e487b7100000000000000000000000000000000000000000000000000000000600052602260045260246000fd5b600060028204905060018216806124d557607f821691505b602082108114156124e9576124e861248e565b5b50919050565b7f4e487b7100000000000000000000000000000000000000000000000000000000600052603260045260246000fd5b7f4e487b7100000000000000000000000000000000000000000000000000000000600052601160045260246000fd5b600061255882611c0e565b915061256383611c0e565b9250828210156125765761257561251e565b5b82820390509291505056fea26469706673582212204a622226d5f4b8efe969128b03a0218a4b954f4f566cf7dae3ea870479adf46464736f6c634300080a0033",
  "immutableReferences": {},
  "source": "\ncontract Application{\n\n   struct Order \n   {\n        uint256 id;\n        uint256 date;\n        uint256[] OrderLine_id;\n        Customer c;\n   }\n\n    struct OrderLine\n   {    \n        uint256 id;\n        Product p;\n        uint qty;\n        Delivery d;\n   }\n\n    struct Product\n   {\n        string name;\n        uint price;\n        string[] colori;\n   }\n\n    struct Customer\n   {\n        address id;\n        string name;\n   }\n\n    struct Delivery\n   {\n        uint256 id;\n        address Customer_id;\n        uint256 date;\n        string delivery_add;\n   }\n\n    mapping (address => Customer) public c;\n\n    Order[] public orders;\n    OrderLine[] public orderlines;\n    Product[] public p;\n    Delivery[] public deliveries;\n\n\n\n    function SignUP (string memory name) public {\n        c[msg.sender] = Customer(msg.sender, name);\n    }\n\n    function addProduct (string memory name, uint price, string[] memory colori) public {\n        p.push(Product(name,price,colori));\n    }\n\n    function deliveryItems (uint ol_id, address cust,  string memory add) public {\n        deliveries.push(Delivery(deliveries.length, cust, block.timestamp,add));\n        orderlines[ol_id].d = deliveries[deliveries.length-1];\n    }\n\n    function Create_Order(address customer, string memory referreal) public\n    {\n        Order memory order;\n        order.date = block.timestamp;\n        order.c = c[customer];\n        order.id = orders.length;\n        orders.push(order);\n    }\n\n    function add_orderline(uint order_id, Product memory prod, uint qty) public {\n        OrderLine memory ol;\n        ol.qty = qty;\n        ol.p = prod;\n        ol.id = orderlines.length;\n        orderlines.push(ol);\n        orders[order_id].OrderLine_id.push(ol.id);\n\n    }\n\n    function pick_item (uint ol_id) public virtual returns (OrderLine memory ol){\n        return orderlines[ol_id];\n    }\n\n    function wrap_item (uint ol_id, string[] memory notes) public virtual returns (OrderLine memory ol){\n        return orderlines[ol_id];\n    }\n\n}",
  "sourcePath": "/home/andrea/Scrivania/Master-Thesis/Truffle/showcase_1/contracts/Application.sol",
  "compiler": {
    "name": "solc",
    "version": "0.8.10+commit.fc410830.Emscripten.clang"
  },
  "schemaVersion": "3.4.3",
  "updatedAt": "2022-09-29T09:33:11.658Z",
  "networkType": "ethereum",
  "devdoc": {
    "kind": "dev",
    "methods": {},
    "version": 1
  },
  "userdoc": {
    "kind": "user",
    "methods": {},
    "version": 1
  }
}