{
  "contractName": "Business",
  "abi": [
    {
      "inputs": [
        {
          "internalType": "address",
          "name": "",
          "type": "address"
        }
      ],
      "name": "c",
      "outputs": [
        {
          "internalType": "address",
          "name": "id",
          "type": "address"
        },
        {
          "internalType": "string",
          "name": "name",
          "type": "string"
        }
      ],
      "stateMutability": "view",
      "type": "function",
      "constant": true
    },
    {
      "inputs": [
        {
          "internalType": "uint256",
          "name": "",
          "type": "uint256"
        }
      ],
      "name": "deliveries",
      "outputs": [
        {
          "internalType": "uint256",
          "name": "id",
          "type": "uint256"
        },
        {
          "internalType": "address",
          "name": "Customer_id",
          "type": "address"
        },
        {
          "internalType": "uint256",
          "name": "date",
          "type": "uint256"
        },
        {
          "internalType": "string",
          "name": "delivery_add",
          "type": "string"
        }
      ],
      "stateMutability": "view",
      "type": "function",
      "constant": true
    },
    {
      "inputs": [
        {
          "internalType": "uint256",
          "name": "",
          "type": "uint256"
        }
      ],
      "name": "orderlines",
      "outputs": [
        {
          "internalType": "uint256",
          "name": "id",
          "type": "uint256"
        },
        {
          "components": [
            {
              "internalType": "string",
              "name": "name",
              "type": "string"
            },
            {
              "internalType": "uint256",
              "name": "price",
              "type": "uint256"
            },
            {
              "internalType": "string[]",
              "name": "colori",
              "type": "string[]"
            }
          ],
          "internalType": "struct Business.Product",
          "name": "p",
          "type": "tuple"
        },
        {
          "internalType": "uint256",
          "name": "qty",
          "type": "uint256"
        },
        {
          "components": [
            {
              "internalType": "uint256",
              "name": "id",
              "type": "uint256"
            },
            {
              "internalType": "address",
              "name": "Customer_id",
              "type": "address"
            },
            {
              "internalType": "uint256",
              "name": "date",
              "type": "uint256"
            },
            {
              "internalType": "string",
              "name": "delivery_add",
              "type": "string"
            }
          ],
          "internalType": "struct Business.Delivery",
          "name": "d",
          "type": "tuple"
        }
      ],
      "stateMutability": "view",
      "type": "function",
      "constant": true
    },
    {
      "inputs": [
        {
          "internalType": "uint256",
          "name": "",
          "type": "uint256"
        }
      ],
      "name": "orders",
      "outputs": [
        {
          "internalType": "uint256",
          "name": "id",
          "type": "uint256"
        },
        {
          "internalType": "uint256",
          "name": "date",
          "type": "uint256"
        },
        {
          "components": [
            {
              "internalType": "address",
              "name": "id",
              "type": "address"
            },
            {
              "internalType": "string",
              "name": "name",
              "type": "string"
            }
          ],
          "internalType": "struct Business.Customer",
          "name": "c",
          "type": "tuple"
        }
      ],
      "stateMutability": "view",
      "type": "function",
      "constant": true
    },
    {
      "inputs": [
        {
          "internalType": "uint256",
          "name": "",
          "type": "uint256"
        }
      ],
      "name": "p",
      "outputs": [
        {
          "internalType": "string",
          "name": "name",
          "type": "string"
        },
        {
          "internalType": "uint256",
          "name": "price",
          "type": "uint256"
        }
      ],
      "stateMutability": "view",
      "type": "function",
      "constant": true
    },
    {
      "inputs": [
        {
          "internalType": "string",
          "name": "name",
          "type": "string"
        }
      ],
      "name": "SignUP",
      "outputs": [],
      "stateMutability": "nonpayable",
      "type": "function"
    },
    {
      "inputs": [
        {
          "internalType": "string",
          "name": "name",
          "type": "string"
        },
        {
          "internalType": "uint256",
          "name": "price",
          "type": "uint256"
        },
        {
          "internalType": "string[]",
          "name": "colori",
          "type": "string[]"
        }
      ],
      "name": "addProduct",
      "outputs": [],
      "stateMutability": "nonpayable",
      "type": "function"
    },
    {
      "inputs": [
        {
          "internalType": "uint256",
          "name": "ol_id",
          "type": "uint256"
        },
        {
          "internalType": "address",
          "name": "cust",
          "type": "address"
        },
        {
          "internalType": "string",
          "name": "add",
          "type": "string"
        }
      ],
      "name": "deliveryItems",
      "outputs": [
        {
          "components": [
            {
              "internalType": "uint256",
              "name": "id",
              "type": "uint256"
            },
            {
              "internalType": "address",
              "name": "Customer_id",
              "type": "address"
            },
            {
              "internalType": "uint256",
              "name": "date",
              "type": "uint256"
            },
            {
              "internalType": "string",
              "name": "delivery_add",
              "type": "string"
            }
          ],
          "internalType": "struct Business.Delivery",
          "name": "del",
          "type": "tuple"
        }
      ],
      "stateMutability": "nonpayable",
      "type": "function"
    },
    {
      "inputs": [
        {
          "internalType": "address",
          "name": "customer",
          "type": "address"
        },
        {
          "internalType": "string",
          "name": "referreal",
          "type": "string"
        }
      ],
      "name": "Create_Order",
      "outputs": [
        {
          "components": [
            {
              "internalType": "uint256",
              "name": "id",
              "type": "uint256"
            },
            {
              "internalType": "uint256",
              "name": "date",
              "type": "uint256"
            },
            {
              "internalType": "uint256[]",
              "name": "OrderLine_id",
              "type": "uint256[]"
            },
            {
              "components": [
                {
                  "internalType": "address",
                  "name": "id",
                  "type": "address"
                },
                {
                  "internalType": "string",
                  "name": "name",
                  "type": "string"
                }
              ],
              "internalType": "struct Business.Customer",
              "name": "c",
              "type": "tuple"
            }
          ],
          "internalType": "struct Business.Order",
          "name": "order",
          "type": "tuple"
        }
      ],
      "stateMutability": "nonpayable",
      "type": "function"
    },
    {
      "inputs": [
        {
          "internalType": "uint256",
          "name": "order_id",
          "type": "uint256"
        },
        {
          "components": [
            {
              "internalType": "string",
              "name": "name",
              "type": "string"
            },
            {
              "internalType": "uint256",
              "name": "price",
              "type": "uint256"
            },
            {
              "internalType": "string[]",
              "name": "colori",
              "type": "string[]"
            }
          ],
          "internalType": "struct Business.Product",
          "name": "prod",
          "type": "tuple"
        },
        {
          "internalType": "uint256",
          "name": "qty",
          "type": "uint256"
        }
      ],
      "name": "add_orderline",
      "outputs": [],
      "stateMutability": "nonpayable",
      "type": "function"
    },
    {
      "inputs": [
        {
          "internalType": "uint256",
          "name": "ol_id",
          "type": "uint256"
        }
      ],
      "name": "pick_item",
      "outputs": [
        {
          "components": [
            {
              "internalType": "uint256",
              "name": "id",
              "type": "uint256"
            },
            {
              "components": [
                {
                  "internalType": "string",
                  "name": "name",
                  "type": "string"
                },
                {
                  "internalType": "uint256",
                  "name": "price",
                  "type": "uint256"
                },
                {
                  "internalType": "string[]",
                  "name": "colori",
                  "type": "string[]"
                }
              ],
              "internalType": "struct Business.Product",
              "name": "p",
              "type": "tuple"
            },
            {
              "internalType": "uint256",
              "name": "qty",
              "type": "uint256"
            },
            {
              "components": [
                {
                  "internalType": "uint256",
                  "name": "id",
                  "type": "uint256"
                },
                {
                  "internalType": "address",
                  "name": "Customer_id",
                  "type": "address"
                },
                {
                  "internalType": "uint256",
                  "name": "date",
                  "type": "uint256"
                },
                {
                  "internalType": "string",
                  "name": "delivery_add",
                  "type": "string"
                }
              ],
              "internalType": "struct Business.Delivery",
              "name": "d",
              "type": "tuple"
            }
          ],
          "internalType": "struct Business.OrderLine",
          "name": "ol",
          "type": "tuple"
        }
      ],
      "stateMutability": "nonpayable",
      "type": "function"
    },
    {
      "inputs": [
        {
          "internalType": "uint256",
          "name": "ol_id",
          "type": "uint256"
        },
        {
          "internalType": "string[]",
          "name": "notes",
          "type": "string[]"
        }
      ],
      "name": "wrap_item",
      "outputs": [
        {
          "components": [
            {
              "internalType": "uint256",
              "name": "id",
              "type": "uint256"
            },
            {
              "components": [
                {
                  "internalType": "string",
                  "name": "name",
                  "type": "string"
                },
                {
                  "internalType": "uint256",
                  "name": "price",
                  "type": "uint256"
                },
                {
                  "internalType": "string[]",
                  "name": "colori",
                  "type": "string[]"
                }
              ],
              "internalType": "struct Business.Product",
              "name": "p",
              "type": "tuple"
            },
            {
              "internalType": "uint256",
              "name": "qty",
              "type": "uint256"
            },
            {
              "components": [
                {
                  "internalType": "uint256",
                  "name": "id",
                  "type": "uint256"
                },
                {
                  "internalType": "address",
                  "name": "Customer_id",
                  "type": "address"
                },
                {
                  "internalType": "uint256",
                  "name": "date",
                  "type": "uint256"
                },
                {
                  "internalType": "string",
                  "name": "delivery_add",
                  "type": "string"
                }
              ],
              "internalType": "struct Business.Delivery",
              "name": "d",
              "type": "tuple"
            }
          ],
          "internalType": "struct Business.OrderLine",
          "name": "ol",
          "type": "tuple"
        }
      ],
      "stateMutability": "nonpayable",
      "type": "function"
    },
    {
      "inputs": [],
      "name": "getOrdersLength",
      "outputs": [
        {
          "internalType": "uint256",
          "name": "count",
          "type": "uint256"
        }
      ],
      "stateMutability": "view",
      "type": "function",
      "constant": true
    },
    {
      "inputs": [
        {
          "internalType": "uint256",
          "name": "order_id",
          "type": "uint256"
        }
      ],
      "name": "getOLSfromOrder",
      "outputs": [
        {
          "internalType": "uint256[]",
          "name": "ols",
          "type": "uint256[]"
        }
      ],
      "stateMutability": "view",
      "type": "function",
      "constant": true
    }
  ],
  "bytecode": "0x608060405234801561001057600080fd5b50612a7a806100206000396000f3fe608060405234801561001057600080fd5b50600436106100ea5760003560e01c8063a96920471161008c578063baac85ee11610066578063baac85ee1461028b578063c4b4d3ca146102bb578063ca05632d146102eb578063de1187eb1461031b576100ea565b8063a96920471461020b578063a9e4a3241461023c578063abda8a771461026f576100ea565b80632c7d67ac116100c85780632c7d67ac1461016e578063a2bceb85146101a1578063a75dbe27146101bd578063a85c38ef146101d9576100ea565b806304ee65c0146100ef57806307c2e16c146101205780632883077f1461013e575b600080fd5b61010960048036038101906101049190611bf5565b61034b565b604051610117929190611cca565b60405180910390f35b610128610417565b6040516101359190611d13565b60405180910390f35b61015860048036038101906101539190611e63565b610424565b604051610165919061207d565b60405180910390f35b610188600480360381019061018391906120cb565b610652565b6040516101989493929190612274565b60405180910390f35b6101bb60048036038101906101b691906123ad565b610917565b005b6101d760048036038101906101d29190612438565b6109a8565b005b6101f360048036038101906101ee91906120cb565b610a7b565b604051610202939291906124be565b60405180910390f35b610225600480360381019061022091906120cb565b610ba7565b6040516102339291906124fc565b60405180910390f35b610256600480360381019061025191906120cb565b610c63565b604051610266949392919061252c565b60405180910390f35b6102896004803603810190610284919061261e565b610d4b565b005b6102a560048036038101906102a091906120cb565b610edf565b6040516102b291906126fc565b60405180910390f35b6102d560048036038101906102d091906120cb565b610f5c565b6040516102e29190612842565b60405180910390f35b61030560048036038101906103009190612864565b611245565b60405161031291906128d3565b60405180910390f35b610335600480360381019061033091906128f5565b611567565b6040516103429190612842565b60405180910390f35b60006020528060005260406000206000915090508060000160009054906101000a900473ffffffffffffffffffffffffffffffffffffffff169080600101805461039490612980565b80601f01602080910402602001604051908101604052809291908181526020018280546103c090612980565b801561040d5780601f106103e25761010080835404028352916020019161040d565b820191906000526020600020905b8154815290600101906020018083116103f057829003601f168201915b5050505050905082565b6000600180549050905090565b61042c611851565b428160200181815250506000808473ffffffffffffffffffffffffffffffffffffffff1673ffffffffffffffffffffffffffffffffffffffff1681526020019081526020016000206040518060400160405290816000820160009054906101000a900473ffffffffffffffffffffffffffffffffffffffff1673ffffffffffffffffffffffffffffffffffffffff1673ffffffffffffffffffffffffffffffffffffffff1681526020016001820180546104e590612980565b80601f016020809104026020016040519081016040528092919081815260200182805461051190612980565b801561055e5780601f106105335761010080835404028352916020019161055e565b820191906000526020600020905b81548152906001019060200180831161054157829003601f168201915b50505050508152505081606001819052506001805490508160000181815250506001819080600181540180825580915050600190039060005260206000209060050201600090919091909150600082015181600001556020820151816001015560408201518160020190805190602001906105da92919061187f565b5060608201518160030160008201518160000160006101000a81548173ffffffffffffffffffffffffffffffffffffffff021916908373ffffffffffffffffffffffffffffffffffffffff16021790555060208201518160010190805190602001906106479291906118cc565b505050505092915050565b6002818154811061066257600080fd5b90600052602060002090600902016000915090508060000154908060010160405180606001604052908160008201805461069b90612980565b80601f01602080910402602001604051908101604052809291908181526020018280546106c790612980565b80156107145780601f106106e957610100808354040283529160200191610714565b820191906000526020600020905b8154815290600101906020018083116106f757829003601f168201915b505050505081526020016001820154815260200160028201805480602002602001604051908101604052809291908181526020016000905b828210156107f857838290600052602060002001805461076b90612980565b80601f016020809104026020016040519081016040528092919081815260200182805461079790612980565b80156107e45780601f106107b9576101008083540402835291602001916107e4565b820191906000526020600020905b8154815290600101906020018083116107c757829003601f168201915b50505050508152602001906001019061074c565b50505050815250509080600401549080600501604051806080016040529081600082015481526020016001820160009054906101000a900473ffffffffffffffffffffffffffffffffffffffff1673ffffffffffffffffffffffffffffffffffffffff1673ffffffffffffffffffffffffffffffffffffffff1681526020016002820154815260200160038201805461089090612980565b80601f01602080910402602001604051908101604052809291908181526020018280546108bc90612980565b80156109095780601f106108de57610100808354040283529160200191610909565b820191906000526020600020905b8154815290600101906020018083116108ec57829003601f168201915b505050505081525050905084565b6003604051806060016040528085815260200184815260200183815250908060018154018082558091505060019003906000526020600020906003020160009091909190915060008201518160000190805190602001906109799291906118cc565b506020820151816001015560408201518160020190805190602001906109a0929190611952565b505050505050565b60405180604001604052803373ffffffffffffffffffffffffffffffffffffffff168152602001828152506000803373ffffffffffffffffffffffffffffffffffffffff1673ffffffffffffffffffffffffffffffffffffffff16815260200190815260200160002060008201518160000160006101000a81548173ffffffffffffffffffffffffffffffffffffffff021916908373ffffffffffffffffffffffffffffffffffffffff1602179055506020820151816001019080519060200190610a749291906118cc565b5090505050565b60018181548110610a8b57600080fd5b9060005260206000209060050201600091509050806000015490806001015490806003016040518060400160405290816000820160009054906101000a900473ffffffffffffffffffffffffffffffffffffffff1673ffffffffffffffffffffffffffffffffffffffff1673ffffffffffffffffffffffffffffffffffffffff168152602001600182018054610b2090612980565b80601f0160208091040260200160405190810160405280929190818152602001828054610b4c90612980565b8015610b995780601f10610b6e57610100808354040283529160200191610b99565b820191906000526020600020905b815481529060010190602001808311610b7c57829003601f168201915b505050505081525050905083565b60038181548110610bb757600080fd5b9060005260206000209060030201600091509050806000018054610bda90612980565b80601f0160208091040260200160405190810160405280929190818152602001828054610c0690612980565b8015610c535780601f10610c2857610100808354040283529160200191610c53565b820191906000526020600020905b815481529060010190602001808311610c3657829003601f168201915b5050505050908060010154905082565b60048181548110610c7357600080fd5b90600052602060002090600402016000915090508060000154908060010160009054906101000a900473ffffffffffffffffffffffffffffffffffffffff1690806002015490806003018054610cc890612980565b80601f0160208091040260200160405190810160405280929190818152602001828054610cf490612980565b8015610d415780601f10610d1657610100808354040283529160200191610d41565b820191906000526020600020905b815481529060010190602001808311610d2457829003601f168201915b5050505050905084565b610d536119b2565b818160400181815250508281602001819052506002805490508160000181815250506002819080600181540180825580915050600190039060005260206000209060090201600090919091909150600082015181600001556020820151816001016000820151816000019080519060200190610dd09291906118cc565b50602082015181600101556040820151816002019080519060200190610df7929190611952565b505050604082015181600401556060820151816005016000820151816000015560208201518160010160006101000a81548173ffffffffffffffffffffffffffffffffffffffff021916908373ffffffffffffffffffffffffffffffffffffffff160217905550604082015181600201556060820151816003019080519060200190610e849291906118cc565b505050505060018481548110610e9d57610e9c6129b2565b5b90600052602060002090600502016002018160000151908060018154018082558091505060019003906000526020600020016000909190919091505550505050565b606060018281548110610ef557610ef46129b2565b5b9060005260206000209060050201600201805480602002602001604051908101604052809291908181526020018280548015610f5057602002820191906000526020600020905b815481526020019060010190808311610f3c575b50505050509050919050565b610f646119b2565b60028281548110610f7857610f776129b2565b5b90600052602060002090600902016040518060800160405290816000820154815260200160018201604051806060016040529081600082018054610fbb90612980565b80601f0160208091040260200160405190810160405280929190818152602001828054610fe790612980565b80156110345780601f1061100957610100808354040283529160200191611034565b820191906000526020600020905b81548152906001019060200180831161101757829003601f168201915b505050505081526020016001820154815260200160028201805480602002602001604051908101604052809291908181526020016000905b8282101561111857838290600052602060002001805461108b90612980565b80601f01602080910402602001604051908101604052809291908181526020018280546110b790612980565b80156111045780601f106110d957610100808354040283529160200191611104565b820191906000526020600020905b8154815290600101906020018083116110e757829003601f168201915b50505050508152602001906001019061106c565b505050508152505081526020016004820154815260200160058201604051806080016040529081600082015481526020016001820160009054906101000a900473ffffffffffffffffffffffffffffffffffffffff1673ffffffffffffffffffffffffffffffffffffffff1673ffffffffffffffffffffffffffffffffffffffff168152602001600282015481526020016003820180546111b890612980565b80601f01602080910402602001604051908101604052809291908181526020018280546111e490612980565b80156112315780601f1061120657610100808354040283529160200191611231565b820191906000526020600020905b81548152906001019060200180831161121457829003601f168201915b505050505081525050815250509050919050565b61124d6119e6565b6004604051806080016040528060048054905081526020018573ffffffffffffffffffffffffffffffffffffffff1681526020014281526020018481525090806001815401808255809150506001900390600052602060002090600402016000909190919091506000820151816000015560208201518160010160006101000a81548173ffffffffffffffffffffffffffffffffffffffff021916908373ffffffffffffffffffffffffffffffffffffffff16021790555060408201518160020155606082015181600301908051906020019061132b9291906118cc565b505050600460016004805490506113429190612a10565b81548110611353576113526129b2565b5b906000526020600020906004020160028581548110611375576113746129b2565b5b9060005260206000209060090201600501600082015481600001556001820160009054906101000a900473ffffffffffffffffffffffffffffffffffffffff168160010160006101000a81548173ffffffffffffffffffffffffffffffffffffffff021916908373ffffffffffffffffffffffffffffffffffffffff16021790555060028201548160020155600382018160030190805461141590612980565b611420929190611a24565b50905050600460016004805490506114389190612a10565b81548110611449576114486129b2565b5b9060005260206000209060040201604051806080016040529081600082015481526020016001820160009054906101000a900473ffffffffffffffffffffffffffffffffffffffff1673ffffffffffffffffffffffffffffffffffffffff1673ffffffffffffffffffffffffffffffffffffffff168152602001600282015481526020016003820180546114dc90612980565b80601f016020809104026020016040519081016040528092919081815260200182805461150890612980565b80156115555780601f1061152a57610100808354040283529160200191611555565b820191906000526020600020905b81548152906001019060200180831161153857829003601f168201915b50505050508152505090509392505050565b61156f6119b2565b60028381548110611583576115826129b2565b5b906000526020600020906009020160405180608001604052908160008201548152602001600182016040518060600160405290816000820180546115c690612980565b80601f01602080910402602001604051908101604052809291908181526020018280546115f290612980565b801561163f5780601f106116145761010080835404028352916020019161163f565b820191906000526020600020905b81548152906001019060200180831161162257829003601f168201915b505050505081526020016001820154815260200160028201805480602002602001604051908101604052809291908181526020016000905b8282101561172357838290600052602060002001805461169690612980565b80601f01602080910402602001604051908101604052809291908181526020018280546116c290612980565b801561170f5780601f106116e45761010080835404028352916020019161170f565b820191906000526020600020905b8154815290600101906020018083116116f257829003601f168201915b505050505081526020019060010190611677565b505050508152505081526020016004820154815260200160058201604051806080016040529081600082015481526020016001820160009054906101000a900473ffffffffffffffffffffffffffffffffffffffff1673ffffffffffffffffffffffffffffffffffffffff1673ffffffffffffffffffffffffffffffffffffffff168152602001600282015481526020016003820180546117c390612980565b80601f01602080910402602001604051908101604052809291908181526020018280546117ef90612980565b801561183c5780601f106118115761010080835404028352916020019161183c565b820191906000526020600020905b81548152906001019060200180831161181f57829003601f168201915b50505050508152505081525050905092915050565b6040518060800160405280600081526020016000815260200160608152602001611879611ab1565b81525090565b8280548282559060005260206000209081019282156118bb579160200282015b828111156118ba57825182559160200191906001019061189f565b5b5090506118c89190611ae1565b5090565b8280546118d890612980565b90600052602060002090601f0160209004810192826118fa5760008555611941565b82601f1061191357805160ff1916838001178555611941565b82800160010185558215611941579182015b82811115611940578251825591602001919060010190611925565b5b50905061194e9190611ae1565b5090565b8280548282559060005260206000209081019282156119a1579160200282015b828111156119a05782518290805190602001906119909291906118cc565b5091602001919060010190611972565b5b5090506119ae9190611afe565b5090565b6040518060800160405280600081526020016119cc611b22565b8152602001600081526020016119e06119e6565b81525090565b604051806080016040528060008152602001600073ffffffffffffffffffffffffffffffffffffffff16815260200160008152602001606081525090565b828054611a3090612980565b90600052602060002090601f016020900481019282611a525760008555611aa0565b82601f10611a635780548555611aa0565b82800160010185558215611aa057600052602060002091601f016020900482015b82811115611a9f578254825591600101919060010190611a84565b5b509050611aad9190611ae1565b5090565b6040518060400160405280600073ffffffffffffffffffffffffffffffffffffffff168152602001606081525090565b5b80821115611afa576000816000905550600101611ae2565b5090565b5b80821115611b1e5760008181611b159190611b43565b50600101611aff565b5090565b60405180606001604052806060815260200160008152602001606081525090565b508054611b4f90612980565b6000825580601f10611b615750611b80565b601f016020900490600052602060002090810190611b7f9190611ae1565b5b50565b6000604051905090565b600080fd5b600080fd5b600073ffffffffffffffffffffffffffffffffffffffff82169050919050565b6000611bc282611b97565b9050919050565b611bd281611bb7565b8114611bdd57600080fd5b50565b600081359050611bef81611bc9565b92915050565b600060208284031215611c0b57611c0a611b8d565b5b6000611c1984828501611be0565b91505092915050565b611c2b81611bb7565b82525050565b600081519050919050565b600082825260208201905092915050565b60005b83811015611c6b578082015181840152602081019050611c50565b83811115611c7a576000848401525b50505050565b6000601f19601f8301169050919050565b6000611c9c82611c31565b611ca68185611c3c565b9350611cb6818560208601611c4d565b611cbf81611c80565b840191505092915050565b6000604082019050611cdf6000830185611c22565b8181036020830152611cf18184611c91565b90509392505050565b6000819050919050565b611d0d81611cfa565b82525050565b6000602082019050611d286000830184611d04565b92915050565b600080fd5b600080fd5b7f4e487b7100000000000000000000000000000000000000000000000000000000600052604160045260246000fd5b611d7082611c80565b810181811067ffffffffffffffff82111715611d8f57611d8e611d38565b5b80604052505050565b6000611da2611b83565b9050611dae8282611d67565b919050565b600067ffffffffffffffff821115611dce57611dcd611d38565b5b611dd782611c80565b9050602081019050919050565b82818337600083830152505050565b6000611e06611e0184611db3565b611d98565b905082815260208101848484011115611e2257611e21611d33565b5b611e2d848285611de4565b509392505050565b600082601f830112611e4a57611e49611d2e565b5b8135611e5a848260208601611df3565b91505092915050565b60008060408385031215611e7a57611e79611b8d565b5b6000611e8885828601611be0565b925050602083013567ffffffffffffffff811115611ea957611ea8611b92565b5b611eb585828601611e35565b9150509250929050565b611ec881611cfa565b82525050565b600081519050919050565b600082825260208201905092915050565b6000819050602082019050919050565b6000611f068383611ebf565b60208301905092915050565b6000602082019050919050565b6000611f2a82611ece565b611f348185611ed9565b9350611f3f83611eea565b8060005b83811015611f70578151611f578882611efa565b9750611f6283611f12565b925050600181019050611f43565b5085935050505092915050565b611f8681611bb7565b82525050565b600082825260208201905092915050565b6000611fa882611c31565b611fb28185611f8c565b9350611fc2818560208601611c4d565b611fcb81611c80565b840191505092915050565b6000604083016000830151611fee6000860182611f7d565b50602083015184820360208601526120068282611f9d565b9150508091505092915050565b600060808301600083015161202b6000860182611ebf565b50602083015161203e6020860182611ebf565b50604083015184820360408601526120568282611f1f565b915050606083015184820360608601526120708282611fd6565b9150508091505092915050565b600060208201905081810360008301526120978184612013565b905092915050565b6120a881611cfa565b81146120b357600080fd5b50565b6000813590506120c58161209f565b92915050565b6000602082840312156120e1576120e0611b8d565b5b60006120ef848285016120b6565b91505092915050565b600081519050919050565b600082825260208201905092915050565b6000819050602082019050919050565b60006121308383611f9d565b905092915050565b6000602082019050919050565b6000612150826120f8565b61215a8185612103565b93508360208202850161216c85612114565b8060005b858110156121a857848403895281516121898582612124565b945061219483612138565b925060208a01995050600181019050612170565b50829750879550505050505092915050565b600060608301600083015184820360008601526121d78282611f9d565b91505060208301516121ec6020860182611ebf565b50604083015184820360408601526122048282612145565b9150508091505092915050565b60006080830160008301516122296000860182611ebf565b50602083015161223c6020860182611f7d565b50604083015161224f6040860182611ebf565b50606083015184820360608601526122678282611f9d565b9150508091505092915050565b60006080820190506122896000830187611d04565b818103602083015261229b81866121ba565b90506122aa6040830185611d04565b81810360608301526122bc8184612211565b905095945050505050565b600067ffffffffffffffff8211156122e2576122e1611d38565b5b602082029050602081019050919050565b600080fd5b600061230b612306846122c7565b611d98565b9050808382526020820190506020840283018581111561232e5761232d6122f3565b5b835b8181101561237557803567ffffffffffffffff81111561235357612352611d2e565b5b8086016123608982611e35565b85526020850194505050602081019050612330565b5050509392505050565b600082601f83011261239457612393611d2e565b5b81356123a48482602086016122f8565b91505092915050565b6000806000606084860312156123c6576123c5611b8d565b5b600084013567ffffffffffffffff8111156123e4576123e3611b92565b5b6123f086828701611e35565b9350506020612401868287016120b6565b925050604084013567ffffffffffffffff81111561242257612421611b92565b5b61242e8682870161237f565b9150509250925092565b60006020828403121561244e5761244d611b8d565b5b600082013567ffffffffffffffff81111561246c5761246b611b92565b5b61247884828501611e35565b91505092915050565b60006040830160008301516124996000860182611f7d565b50602083015184820360208601526124b18282611f9d565b9150508091505092915050565b60006060820190506124d36000830186611d04565b6124e06020830185611d04565b81810360408301526124f28184612481565b9050949350505050565b600060408201905081810360008301526125168185611c91565b90506125256020830184611d04565b9392505050565b60006080820190506125416000830187611d04565b61254e6020830186611c22565b61255b6040830185611d04565b818103606083015261256d8184611c91565b905095945050505050565b600080fd5b600080fd5b60006060828403121561259857612597612578565b5b6125a26060611d98565b9050600082013567ffffffffffffffff8111156125c2576125c161257d565b5b6125ce84828501611e35565b60008301525060206125e2848285016120b6565b602083015250604082013567ffffffffffffffff8111156126065761260561257d565b5b6126128482850161237f565b60408301525092915050565b60008060006060848603121561263757612636611b8d565b5b6000612645868287016120b6565b935050602084013567ffffffffffffffff81111561266657612665611b92565b5b61267286828701612582565b9250506040612683868287016120b6565b9150509250925092565b600082825260208201905092915050565b60006126a982611ece565b6126b3818561268d565b93506126be83611eea565b8060005b838110156126ef5781516126d68882611efa565b97506126e183611f12565b9250506001810190506126c2565b5085935050505092915050565b60006020820190508181036000830152612716818461269e565b905092915050565b6000606083016000830151848203600086015261273b8282611f9d565b91505060208301516127506020860182611ebf565b50604083015184820360408601526127688282612145565b9150508091505092915050565b600060808301600083015161278d6000860182611ebf565b5060208301516127a06020860182611f7d565b5060408301516127b36040860182611ebf565b50606083015184820360608601526127cb8282611f9d565b9150508091505092915050565b60006080830160008301516127f06000860182611ebf565b5060208301518482036020860152612808828261271e565b915050604083015161281d6040860182611ebf565b50606083015184820360608601526128358282612775565b9150508091505092915050565b6000602082019050818103600083015261285c81846127d8565b905092915050565b60008060006060848603121561287d5761287c611b8d565b5b600061288b868287016120b6565b935050602061289c86828701611be0565b925050604084013567ffffffffffffffff8111156128bd576128bc611b92565b5b6128c986828701611e35565b9150509250925092565b600060208201905081810360008301526128ed8184612211565b905092915050565b6000806040838503121561290c5761290b611b8d565b5b600061291a858286016120b6565b925050602083013567ffffffffffffffff81111561293b5761293a611b92565b5b6129478582860161237f565b9150509250929050565b7f4e487b7100000000000000000000000000000000000000000000000000000000600052602260045260246000fd5b6000600282049050600182168061299857607f821691505b602082108114156129ac576129ab612951565b5b50919050565b7f4e487b7100000000000000000000000000000000000000000000000000000000600052603260045260246000fd5b7f4e487b7100000000000000000000000000000000000000000000000000000000600052601160045260246000fd5b6000612a1b82611cfa565b9150612a2683611cfa565b925082821015612a3957612a386129e1565b5b82820390509291505056fea2646970667358221220ac3bdac1de2dc3f26665355041590057bbea1c09cfc7b62f7a276c119f5f08fc64736f6c634300080a0033",
  "immutableReferences": {},
  "source": "// SPDX-License-Identifier: CC-BY-SA-4.0\npragma solidity >=0.7.0 <0.9.0;\n\n\ncontract Business {\n\n   struct Order \n   {\n        uint256 id;\n        uint256 date;\n        uint256[] OrderLine_id;\n        Customer c;\n   }\n\n    struct OrderLine\n   {    \n        uint256 id;\n        Product p;\n        uint qty;\n        Delivery d;\n   }\n\n    struct Product\n   {\n        string name;\n        uint price;\n        string[] colori;\n   }\n\n    struct Customer\n   {\n        address id;\n        string name;\n   }\n\n    struct Delivery\n   {\n        uint256 id;\n        address Customer_id;\n        uint256 date;\n        string delivery_add;\n   }\n\n    mapping (address => Customer) public c;\n\n    Order[] public orders;\n    OrderLine[] public orderlines;\n    Product[] public p;\n    Delivery[] public deliveries;\n\n\n\n    function SignUP (string memory name) public {\n        c[msg.sender] = Customer(msg.sender, name);\n    }\n\n    function addProduct (string memory name, uint price, string[] memory colori) public {\n        p.push(Product(name,price,colori));\n    }\n\n    function deliveryItems (uint ol_id, address cust,  string memory add) public virtual returns (Delivery memory del){\n        deliveries.push(Delivery(deliveries.length, cust, block.timestamp,add));\n        orderlines[ol_id].d = deliveries[deliveries.length-1];\n        return deliveries[deliveries.length-1];\n    }\n\n    function Create_Order(address customer, string memory referreal) public virtual returns (Order memory order)\n    {\n        order.date = block.timestamp;\n        order.c = c[customer];\n        order.id = orders.length;\n        orders.push(order);\n        return order;\n    }\n\n    function add_orderline(uint order_id, Product memory prod, uint qty) public {\n        OrderLine memory ol;\n        ol.qty = qty;\n        ol.p = prod;\n        ol.id = orderlines.length;\n        orderlines.push(ol);\n        orders[order_id].OrderLine_id.push(ol.id);\n\n    }\n\n    function pick_item (uint ol_id) public virtual returns (OrderLine memory ol){\n        return orderlines[ol_id];\n    }\n\n    function wrap_item (uint ol_id, string[] memory notes) public virtual returns (OrderLine memory ol){\n        return orderlines[ol_id];\n    }\n\n\n    function getOrdersLength() public view returns(uint count) {\n        return orders.length;\n    }\n\n    function getOLSfromOrder(uint order_id) public view returns(uint256[] memory ols) {\n        return orders[order_id].OrderLine_id;\n    }\n}\n\ncontract Logging is Business\n{\n    // Deve poter accedere al contratto che deve loggare\n    Business inner_contract;\n\n    event call_create_order(Order o, string referreal);\n    event call_pick_item(OrderLine ol);\n    event call_wrap_item(OrderLine ol, string[] notes);\n    event call_delivery_items(Delivery del);\n    event update_orderline(OrderLine ol);\n    event update_order(Order o);\n\n    constructor(address add) \n    {\n        inner_contract = Business(add);\n    }\n\n    function Create_Order(address customer, string memory referreal) public override returns (Order memory o)\n    {\n        o = inner_contract.Create_Order(customer, referreal);\n        emit call_create_order(o,referreal);\n    }\n\n    function pick_item (uint ol_id) public override returns (OrderLine memory ol)\n    {\n        ol = inner_contract.pick_item(ol_id);\n        emit call_pick_item(ol);\n\n        Order memory o;\n        for (uint i = 0; i < inner_contract.getOrdersLength(); i++) \n        {\n            uint256[] memory ols = inner_contract.getOLSfromOrder(i);\n            for (uint j = 0; j <  ols.length; j++)\n            { \n                if ( ols[j] == ol_id)\n                {\n                    (o.id, o.date, o.c) = inner_contract.orders(i);\n                    o.OrderLine_id = ols;\n                    emit update_order(o);\n                    return ol;\n                }\n            }\n        }\n    }\n\n\n    function wrap_item (uint ol_id, string[] memory notes) public override returns (OrderLine memory ol)\n    {\n        ol = inner_contract.wrap_item(ol_id, notes);\n        \n        emit call_wrap_item(ol,notes);\n    }\n\n\n    function deliveryItems (uint ol_id, address cust, string memory add) public override returns (Delivery memory del)\n    {\n        del = inner_contract.deliveryItems(ol_id, cust, add);\n\n        OrderLine memory ol;\n        (ol.id, ol.p, ol.qty, ol.d) = inner_contract.orderlines(ol_id);\n        emit call_delivery_items(del);\n        emit update_orderline(ol);\n    }\n\n}",
  "sourcePath": "/home/andrea/Scrivania/Master-Thesis/Truffle/showcase_1/contracts/Decoupled.sol",
  "compiler": {
    "name": "solc",
    "version": "0.8.10+commit.fc410830.Emscripten.clang"
  },
  "schemaVersion": "3.4.3",
  "updatedAt": "2022-09-29T09:33:13.540Z",
  "networkType": "ethereum",
  "devdoc": {
    "kind": "dev",
    "methods": {},
    "version": 1
  },
  "userdoc": {
    "kind": "user",
    "methods": {},
    "version": 1
  }
}