{
  "contractName": "Logging",
  "abi": [
    {
      "inputs": [
        {
          "internalType": "address",
          "name": "add",
          "type": "address"
        }
      ],
      "stateMutability": "nonpayable",
      "type": "constructor"
    },
    {
      "anonymous": false,
      "inputs": [
        {
          "components": [
            {
              "internalType": "uint256",
              "name": "id",
              "type": "uint256"
            },
            {
              "internalType": "uint256",
              "name": "date",
              "type": "uint256"
            },
            {
              "internalType": "uint256[]",
              "name": "OrderLine_id",
              "type": "uint256[]"
            },
            {
              "components": [
                {
                  "internalType": "address",
                  "name": "id",
                  "type": "address"
                },
                {
                  "internalType": "string",
                  "name": "name",
                  "type": "string"
                }
              ],
              "internalType": "struct Business.Customer",
              "name": "c",
              "type": "tuple"
            }
          ],
          "indexed": false,
          "internalType": "struct Business.Order",
          "name": "o",
          "type": "tuple"
        },
        {
          "indexed": false,
          "internalType": "string",
          "name": "referreal",
          "type": "string"
        }
      ],
      "name": "call_create_order",
      "type": "event"
    },
    {
      "anonymous": false,
      "inputs": [
        {
          "components": [
            {
              "internalType": "uint256",
              "name": "id",
              "type": "uint256"
            },
            {
              "internalType": "address",
              "name": "Customer_id",
              "type": "address"
            },
            {
              "internalType": "uint256",
              "name": "date",
              "type": "uint256"
            },
            {
              "internalType": "string",
              "name": "delivery_add",
              "type": "string"
            }
          ],
          "indexed": false,
          "internalType": "struct Business.Delivery",
          "name": "del",
          "type": "tuple"
        }
      ],
      "name": "call_delivery_items",
      "type": "event"
    },
    {
      "anonymous": false,
      "inputs": [
        {
          "components": [
            {
              "internalType": "uint256",
              "name": "id",
              "type": "uint256"
            },
            {
              "components": [
                {
                  "internalType": "string",
                  "name": "name",
                  "type": "string"
                },
                {
                  "internalType": "uint256",
                  "name": "price",
                  "type": "uint256"
                },
                {
                  "internalType": "string[]",
                  "name": "colori",
                  "type": "string[]"
                }
              ],
              "internalType": "struct Business.Product",
              "name": "p",
              "type": "tuple"
            },
            {
              "internalType": "uint256",
              "name": "qty",
              "type": "uint256"
            },
            {
              "components": [
                {
                  "internalType": "uint256",
                  "name": "id",
                  "type": "uint256"
                },
                {
                  "internalType": "address",
                  "name": "Customer_id",
                  "type": "address"
                },
                {
                  "internalType": "uint256",
                  "name": "date",
                  "type": "uint256"
                },
                {
                  "internalType": "string",
                  "name": "delivery_add",
                  "type": "string"
                }
              ],
              "internalType": "struct Business.Delivery",
              "name": "d",
              "type": "tuple"
            }
          ],
          "indexed": false,
          "internalType": "struct Business.OrderLine",
          "name": "ol",
          "type": "tuple"
        }
      ],
      "name": "call_pick_item",
      "type": "event"
    },
    {
      "anonymous": false,
      "inputs": [
        {
          "components": [
            {
              "internalType": "uint256",
              "name": "id",
              "type": "uint256"
            },
            {
              "components": [
                {
                  "internalType": "string",
                  "name": "name",
                  "type": "string"
                },
                {
                  "internalType": "uint256",
                  "name": "price",
                  "type": "uint256"
                },
                {
                  "internalType": "string[]",
                  "name": "colori",
                  "type": "string[]"
                }
              ],
              "internalType": "struct Business.Product",
              "name": "p",
              "type": "tuple"
            },
            {
              "internalType": "uint256",
              "name": "qty",
              "type": "uint256"
            },
            {
              "components": [
                {
                  "internalType": "uint256",
                  "name": "id",
                  "type": "uint256"
                },
                {
                  "internalType": "address",
                  "name": "Customer_id",
                  "type": "address"
                },
                {
                  "internalType": "uint256",
                  "name": "date",
                  "type": "uint256"
                },
                {
                  "internalType": "string",
                  "name": "delivery_add",
                  "type": "string"
                }
              ],
              "internalType": "struct Business.Delivery",
              "name": "d",
              "type": "tuple"
            }
          ],
          "indexed": false,
          "internalType": "struct Business.OrderLine",
          "name": "ol",
          "type": "tuple"
        },
        {
          "indexed": false,
          "internalType": "string[]",
          "name": "notes",
          "type": "string[]"
        }
      ],
      "name": "call_wrap_item",
      "type": "event"
    },
    {
      "anonymous": false,
      "inputs": [
        {
          "components": [
            {
              "internalType": "uint256",
              "name": "id",
              "type": "uint256"
            },
            {
              "internalType": "uint256",
              "name": "date",
              "type": "uint256"
            },
            {
              "internalType": "uint256[]",
              "name": "OrderLine_id",
              "type": "uint256[]"
            },
            {
              "components": [
                {
                  "internalType": "address",
                  "name": "id",
                  "type": "address"
                },
                {
                  "internalType": "string",
                  "name": "name",
                  "type": "string"
                }
              ],
              "internalType": "struct Business.Customer",
              "name": "c",
              "type": "tuple"
            }
          ],
          "indexed": false,
          "internalType": "struct Business.Order",
          "name": "o",
          "type": "tuple"
        }
      ],
      "name": "update_order",
      "type": "event"
    },
    {
      "anonymous": false,
      "inputs": [
        {
          "components": [
            {
              "internalType": "uint256",
              "name": "id",
              "type": "uint256"
            },
            {
              "components": [
                {
                  "internalType": "string",
                  "name": "name",
                  "type": "string"
                },
                {
                  "internalType": "uint256",
                  "name": "price",
                  "type": "uint256"
                },
                {
                  "internalType": "string[]",
                  "name": "colori",
                  "type": "string[]"
                }
              ],
              "internalType": "struct Business.Product",
              "name": "p",
              "type": "tuple"
            },
            {
              "internalType": "uint256",
              "name": "qty",
              "type": "uint256"
            },
            {
              "components": [
                {
                  "internalType": "uint256",
                  "name": "id",
                  "type": "uint256"
                },
                {
                  "internalType": "address",
                  "name": "Customer_id",
                  "type": "address"
                },
                {
                  "internalType": "uint256",
                  "name": "date",
                  "type": "uint256"
                },
                {
                  "internalType": "string",
                  "name": "delivery_add",
                  "type": "string"
                }
              ],
              "internalType": "struct Business.Delivery",
              "name": "d",
              "type": "tuple"
            }
          ],
          "indexed": false,
          "internalType": "struct Business.OrderLine",
          "name": "ol",
          "type": "tuple"
        }
      ],
      "name": "update_orderline",
      "type": "event"
    },
    {
      "inputs": [
        {
          "internalType": "string",
          "name": "name",
          "type": "string"
        }
      ],
      "name": "SignUP",
      "outputs": [],
      "stateMutability": "nonpayable",
      "type": "function"
    },
    {
      "inputs": [
        {
          "internalType": "string",
          "name": "name",
          "type": "string"
        },
        {
          "internalType": "uint256",
          "name": "price",
          "type": "uint256"
        },
        {
          "internalType": "string[]",
          "name": "colori",
          "type": "string[]"
        }
      ],
      "name": "addProduct",
      "outputs": [],
      "stateMutability": "nonpayable",
      "type": "function"
    },
    {
      "inputs": [
        {
          "internalType": "uint256",
          "name": "order_id",
          "type": "uint256"
        },
        {
          "components": [
            {
              "internalType": "string",
              "name": "name",
              "type": "string"
            },
            {
              "internalType": "uint256",
              "name": "price",
              "type": "uint256"
            },
            {
              "internalType": "string[]",
              "name": "colori",
              "type": "string[]"
            }
          ],
          "internalType": "struct Business.Product",
          "name": "prod",
          "type": "tuple"
        },
        {
          "internalType": "uint256",
          "name": "qty",
          "type": "uint256"
        }
      ],
      "name": "add_orderline",
      "outputs": [],
      "stateMutability": "nonpayable",
      "type": "function"
    },
    {
      "inputs": [
        {
          "internalType": "address",
          "name": "",
          "type": "address"
        }
      ],
      "name": "c",
      "outputs": [
        {
          "internalType": "address",
          "name": "id",
          "type": "address"
        },
        {
          "internalType": "string",
          "name": "name",
          "type": "string"
        }
      ],
      "stateMutability": "view",
      "type": "function",
      "constant": true
    },
    {
      "inputs": [
        {
          "internalType": "uint256",
          "name": "",
          "type": "uint256"
        }
      ],
      "name": "deliveries",
      "outputs": [
        {
          "internalType": "uint256",
          "name": "id",
          "type": "uint256"
        },
        {
          "internalType": "address",
          "name": "Customer_id",
          "type": "address"
        },
        {
          "internalType": "uint256",
          "name": "date",
          "type": "uint256"
        },
        {
          "internalType": "string",
          "name": "delivery_add",
          "type": "string"
        }
      ],
      "stateMutability": "view",
      "type": "function",
      "constant": true
    },
    {
      "inputs": [
        {
          "internalType": "uint256",
          "name": "order_id",
          "type": "uint256"
        }
      ],
      "name": "getOLSfromOrder",
      "outputs": [
        {
          "internalType": "uint256[]",
          "name": "ols",
          "type": "uint256[]"
        }
      ],
      "stateMutability": "view",
      "type": "function",
      "constant": true
    },
    {
      "inputs": [],
      "name": "getOrdersLength",
      "outputs": [
        {
          "internalType": "uint256",
          "name": "count",
          "type": "uint256"
        }
      ],
      "stateMutability": "view",
      "type": "function",
      "constant": true
    },
    {
      "inputs": [
        {
          "internalType": "uint256",
          "name": "",
          "type": "uint256"
        }
      ],
      "name": "orderlines",
      "outputs": [
        {
          "internalType": "uint256",
          "name": "id",
          "type": "uint256"
        },
        {
          "components": [
            {
              "internalType": "string",
              "name": "name",
              "type": "string"
            },
            {
              "internalType": "uint256",
              "name": "price",
              "type": "uint256"
            },
            {
              "internalType": "string[]",
              "name": "colori",
              "type": "string[]"
            }
          ],
          "internalType": "struct Business.Product",
          "name": "p",
          "type": "tuple"
        },
        {
          "internalType": "uint256",
          "name": "qty",
          "type": "uint256"
        },
        {
          "components": [
            {
              "internalType": "uint256",
              "name": "id",
              "type": "uint256"
            },
            {
              "internalType": "address",
              "name": "Customer_id",
              "type": "address"
            },
            {
              "internalType": "uint256",
              "name": "date",
              "type": "uint256"
            },
            {
              "internalType": "string",
              "name": "delivery_add",
              "type": "string"
            }
          ],
          "internalType": "struct Business.Delivery",
          "name": "d",
          "type": "tuple"
        }
      ],
      "stateMutability": "view",
      "type": "function",
      "constant": true
    },
    {
      "inputs": [
        {
          "internalType": "uint256",
          "name": "",
          "type": "uint256"
        }
      ],
      "name": "orders",
      "outputs": [
        {
          "internalType": "uint256",
          "name": "id",
          "type": "uint256"
        },
        {
          "internalType": "uint256",
          "name": "date",
          "type": "uint256"
        },
        {
          "components": [
            {
              "internalType": "address",
              "name": "id",
              "type": "address"
            },
            {
              "internalType": "string",
              "name": "name",
              "type": "string"
            }
          ],
          "internalType": "struct Business.Customer",
          "name": "c",
          "type": "tuple"
        }
      ],
      "stateMutability": "view",
      "type": "function",
      "constant": true
    },
    {
      "inputs": [
        {
          "internalType": "uint256",
          "name": "",
          "type": "uint256"
        }
      ],
      "name": "p",
      "outputs": [
        {
          "internalType": "string",
          "name": "name",
          "type": "string"
        },
        {
          "internalType": "uint256",
          "name": "price",
          "type": "uint256"
        }
      ],
      "stateMutability": "view",
      "type": "function",
      "constant": true
    },
    {
      "inputs": [
        {
          "internalType": "address",
          "name": "customer",
          "type": "address"
        },
        {
          "internalType": "string",
          "name": "referreal",
          "type": "string"
        }
      ],
      "name": "Create_Order",
      "outputs": [
        {
          "components": [
            {
              "internalType": "uint256",
              "name": "id",
              "type": "uint256"
            },
            {
              "internalType": "uint256",
              "name": "date",
              "type": "uint256"
            },
            {
              "internalType": "uint256[]",
              "name": "OrderLine_id",
              "type": "uint256[]"
            },
            {
              "components": [
                {
                  "internalType": "address",
                  "name": "id",
                  "type": "address"
                },
                {
                  "internalType": "string",
                  "name": "name",
                  "type": "string"
                }
              ],
              "internalType": "struct Business.Customer",
              "name": "c",
              "type": "tuple"
            }
          ],
          "internalType": "struct Business.Order",
          "name": "o",
          "type": "tuple"
        }
      ],
      "stateMutability": "nonpayable",
      "type": "function"
    },
    {
      "inputs": [
        {
          "internalType": "uint256",
          "name": "ol_id",
          "type": "uint256"
        }
      ],
      "name": "pick_item",
      "outputs": [
        {
          "components": [
            {
              "internalType": "uint256",
              "name": "id",
              "type": "uint256"
            },
            {
              "components": [
                {
                  "internalType": "string",
                  "name": "name",
                  "type": "string"
                },
                {
                  "internalType": "uint256",
                  "name": "price",
                  "type": "uint256"
                },
                {
                  "internalType": "string[]",
                  "name": "colori",
                  "type": "string[]"
                }
              ],
              "internalType": "struct Business.Product",
              "name": "p",
              "type": "tuple"
            },
            {
              "internalType": "uint256",
              "name": "qty",
              "type": "uint256"
            },
            {
              "components": [
                {
                  "internalType": "uint256",
                  "name": "id",
                  "type": "uint256"
                },
                {
                  "internalType": "address",
                  "name": "Customer_id",
                  "type": "address"
                },
                {
                  "internalType": "uint256",
                  "name": "date",
                  "type": "uint256"
                },
                {
                  "internalType": "string",
                  "name": "delivery_add",
                  "type": "string"
                }
              ],
              "internalType": "struct Business.Delivery",
              "name": "d",
              "type": "tuple"
            }
          ],
          "internalType": "struct Business.OrderLine",
          "name": "ol",
          "type": "tuple"
        }
      ],
      "stateMutability": "nonpayable",
      "type": "function"
    },
    {
      "inputs": [
        {
          "internalType": "uint256",
          "name": "ol_id",
          "type": "uint256"
        },
        {
          "internalType": "string[]",
          "name": "notes",
          "type": "string[]"
        }
      ],
      "name": "wrap_item",
      "outputs": [
        {
          "components": [
            {
              "internalType": "uint256",
              "name": "id",
              "type": "uint256"
            },
            {
              "components": [
                {
                  "internalType": "string",
                  "name": "name",
                  "type": "string"
                },
                {
                  "internalType": "uint256",
                  "name": "price",
                  "type": "uint256"
                },
                {
                  "internalType": "string[]",
                  "name": "colori",
                  "type": "string[]"
                }
              ],
              "internalType": "struct Business.Product",
              "name": "p",
              "type": "tuple"
            },
            {
              "internalType": "uint256",
              "name": "qty",
              "type": "uint256"
            },
            {
              "components": [
                {
                  "internalType": "uint256",
                  "name": "id",
                  "type": "uint256"
                },
                {
                  "internalType": "address",
                  "name": "Customer_id",
                  "type": "address"
                },
                {
                  "internalType": "uint256",
                  "name": "date",
                  "type": "uint256"
                },
                {
                  "internalType": "string",
                  "name": "delivery_add",
                  "type": "string"
                }
              ],
              "internalType": "struct Business.Delivery",
              "name": "d",
              "type": "tuple"
            }
          ],
          "internalType": "struct Business.OrderLine",
          "name": "ol",
          "type": "tuple"
        }
      ],
      "stateMutability": "nonpayable",
      "type": "function"
    },
    {
      "inputs": [
        {
          "internalType": "uint256",
          "name": "ol_id",
          "type": "uint256"
        },
        {
          "internalType": "address",
          "name": "cust",
          "type": "address"
        },
        {
          "internalType": "string",
          "name": "add",
          "type": "string"
        }
      ],
      "name": "deliveryItems",
      "outputs": [
        {
          "components": [
            {
              "internalType": "uint256",
              "name": "id",
              "type": "uint256"
            },
            {
              "internalType": "address",
              "name": "Customer_id",
              "type": "address"
            },
            {
              "internalType": "uint256",
              "name": "date",
              "type": "uint256"
            },
            {
              "internalType": "string",
              "name": "delivery_add",
              "type": "string"
            }
          ],
          "internalType": "struct Business.Delivery",
          "name": "del",
          "type": "tuple"
        }
      ],
      "stateMutability": "nonpayable",
      "type": "function"
    }
  ],
  "bytecode": "0x60806040523480156200001157600080fd5b5060405162002fe838038062002fe88339818101604052810190620000379190620000e9565b80600560006101000a81548173ffffffffffffffffffffffffffffffffffffffff021916908373ffffffffffffffffffffffffffffffffffffffff160217905550506200011b565b600080fd5b600073ffffffffffffffffffffffffffffffffffffffff82169050919050565b6000620000b18262000084565b9050919050565b620000c381620000a4565b8114620000cf57600080fd5b50565b600081519050620000e381620000b8565b92915050565b6000602082840312156200010257620001016200007f565b5b60006200011284828501620000d2565b91505092915050565b612ebd806200012b6000396000f3fe608060405234801561001057600080fd5b50600436106100ea5760003560e01c8063a96920471161008c578063baac85ee11610066578063baac85ee1461028b578063c4b4d3ca146102bb578063ca05632d146102eb578063de1187eb1461031b576100ea565b8063a96920471461020b578063a9e4a3241461023c578063abda8a771461026f576100ea565b80632c7d67ac116100c85780632c7d67ac1461016e578063a2bceb85146101a1578063a75dbe27146101bd578063a85c38ef146101d9576100ea565b806304ee65c0146100ef57806307c2e16c146101205780632883077f1461013e575b600080fd5b61010960048036038101906101049190611754565b61034b565b604051610117929190611829565b60405180910390f35b610128610417565b6040516101359190611872565b60405180910390f35b610158600480360381019061015391906119c2565b610424565b6040516101659190611bdc565b60405180910390f35b61018860048036038101906101839190611c2a565b610512565b6040516101989493929190611dd3565b60405180910390f35b6101bb60048036038101906101b69190611f0c565b6107d7565b005b6101d760048036038101906101d29190611f97565b610868565b005b6101f360048036038101906101ee9190611c2a565b61093b565b6040516102029392919061201d565b60405180910390f35b61022560048036038101906102209190611c2a565b610a67565b60405161023392919061205b565b60405180910390f35b61025660048036038101906102519190611c2a565b610b23565b604051610266949392919061208b565b60405180910390f35b6102896004803603810190610284919061217d565b610c0b565b005b6102a560048036038101906102a09190611c2a565b610d9f565b6040516102b2919061225b565b60405180910390f35b6102d560048036038101906102d09190611c2a565b610e1c565b6040516102e291906123a1565b60405180910390f35b610305600480360381019061030091906123c3565b6111aa565b6040516103129190612432565b60405180910390f35b61033560048036038101906103309190612454565b61139c565b60405161034291906123a1565b60405180910390f35b60006020528060005260406000206000915090508060000160009054906101000a900473ffffffffffffffffffffffffffffffffffffffff1690806001018054610394906124df565b80601f01602080910402602001604051908101604052809291908181526020018280546103c0906124df565b801561040d5780601f106103e25761010080835404028352916020019161040d565b820191906000526020600020905b8154815290600101906020018083116103f057829003601f168201915b5050505050905082565b6000600180549050905090565b61042c61148a565b600560009054906101000a900473ffffffffffffffffffffffffffffffffffffffff1673ffffffffffffffffffffffffffffffffffffffff16632883077f84846040518363ffffffff1660e01b8152600401610489929190611829565b6000604051808303816000875af11580156104a8573d6000803e3d6000fd5b505050506040513d6000823e3d601f19601f820116820180604052508101906104d1919061278a565b90507fc5927c620a285961e16739cf3a543fd3b8a75f2474d8deed87eeb95e0e31253781836040516105049291906127d3565b60405180910390a192915050565b6002818154811061052257600080fd5b90600052602060002090600902016000915090508060000154908060010160405180606001604052908160008201805461055b906124df565b80601f0160208091040260200160405190810160405280929190818152602001828054610587906124df565b80156105d45780601f106105a9576101008083540402835291602001916105d4565b820191906000526020600020905b8154815290600101906020018083116105b757829003601f168201915b505050505081526020016001820154815260200160028201805480602002602001604051908101604052809291908181526020016000905b828210156106b857838290600052602060002001805461062b906124df565b80601f0160208091040260200160405190810160405280929190818152602001828054610657906124df565b80156106a45780601f10610679576101008083540402835291602001916106a4565b820191906000526020600020905b81548152906001019060200180831161068757829003601f168201915b50505050508152602001906001019061060c565b50505050815250509080600401549080600501604051806080016040529081600082015481526020016001820160009054906101000a900473ffffffffffffffffffffffffffffffffffffffff1673ffffffffffffffffffffffffffffffffffffffff1673ffffffffffffffffffffffffffffffffffffffff16815260200160028201548152602001600382018054610750906124df565b80601f016020809104026020016040519081016040528092919081815260200182805461077c906124df565b80156107c95780601f1061079e576101008083540402835291602001916107c9565b820191906000526020600020905b8154815290600101906020018083116107ac57829003601f168201915b505050505081525050905084565b6003604051806060016040528085815260200184815260200183815250908060018154018082558091505060019003906000526020600020906003020160009091909190915060008201518160000190805190602001906108399291906114b8565b5060208201518160010155604082015181600201908051906020019061086092919061153e565b505050505050565b60405180604001604052803373ffffffffffffffffffffffffffffffffffffffff168152602001828152506000803373ffffffffffffffffffffffffffffffffffffffff1673ffffffffffffffffffffffffffffffffffffffff16815260200190815260200160002060008201518160000160006101000a81548173ffffffffffffffffffffffffffffffffffffffff021916908373ffffffffffffffffffffffffffffffffffffffff16021790555060208201518160010190805190602001906109349291906114b8565b5090505050565b6001818154811061094b57600080fd5b9060005260206000209060050201600091509050806000015490806001015490806003016040518060400160405290816000820160009054906101000a900473ffffffffffffffffffffffffffffffffffffffff1673ffffffffffffffffffffffffffffffffffffffff1673ffffffffffffffffffffffffffffffffffffffff1681526020016001820180546109e0906124df565b80601f0160208091040260200160405190810160405280929190818152602001828054610a0c906124df565b8015610a595780601f10610a2e57610100808354040283529160200191610a59565b820191906000526020600020905b815481529060010190602001808311610a3c57829003601f168201915b505050505081525050905083565b60038181548110610a7757600080fd5b9060005260206000209060030201600091509050806000018054610a9a906124df565b80601f0160208091040260200160405190810160405280929190818152602001828054610ac6906124df565b8015610b135780601f10610ae857610100808354040283529160200191610b13565b820191906000526020600020905b815481529060010190602001808311610af657829003601f168201915b5050505050908060010154905082565b60048181548110610b3357600080fd5b90600052602060002090600402016000915090508060000154908060010160009054906101000a900473ffffffffffffffffffffffffffffffffffffffff1690806002015490806003018054610b88906124df565b80601f0160208091040260200160405190810160405280929190818152602001828054610bb4906124df565b8015610c015780601f10610bd657610100808354040283529160200191610c01565b820191906000526020600020905b815481529060010190602001808311610be457829003601f168201915b5050505050905084565b610c1361159e565b818160400181815250508281602001819052506002805490508160000181815250506002819080600181540180825580915050600190039060005260206000209060090201600090919091909150600082015181600001556020820151816001016000820151816000019080519060200190610c909291906114b8565b50602082015181600101556040820151816002019080519060200190610cb792919061153e565b505050604082015181600401556060820151816005016000820151816000015560208201518160010160006101000a81548173ffffffffffffffffffffffffffffffffffffffff021916908373ffffffffffffffffffffffffffffffffffffffff160217905550604082015181600201556060820151816003019080519060200190610d449291906114b8565b505050505060018481548110610d5d57610d5c61280a565b5b90600052602060002090600502016002018160000151908060018154018082558091505060019003906000526020600020016000909190919091505550505050565b606060018281548110610db557610db461280a565b5b9060005260206000209060050201600201805480602002602001604051908101604052809291908181526020018280548015610e1057602002820191906000526020600020905b815481526020019060010190808311610dfc575b50505050509050919050565b610e2461159e565b600560009054906101000a900473ffffffffffffffffffffffffffffffffffffffff1673ffffffffffffffffffffffffffffffffffffffff1663c4b4d3ca836040518263ffffffff1660e01b8152600401610e7f9190611872565b6000604051808303816000875af1158015610e9e573d6000803e3d6000fd5b505050506040513d6000823e3d601f19601f82011682018060405250810190610ec79190612ace565b90507f9b8a1547ee9745229c2b5c560c23ff8879bd47f2139c88f94cc7fb459bd39e2c81604051610ef891906123a1565b60405180910390a1610f0861148a565b60005b600560009054906101000a900473ffffffffffffffffffffffffffffffffffffffff1673ffffffffffffffffffffffffffffffffffffffff166307c2e16c6040518163ffffffff1660e01b8152600401602060405180830381865afa158015610f78573d6000803e3d6000fd5b505050506040513d601f19601f82011682018060405250810190610f9c9190612b17565b8110156111a2576000600560009054906101000a900473ffffffffffffffffffffffffffffffffffffffff1673ffffffffffffffffffffffffffffffffffffffff1663baac85ee836040518263ffffffff1660e01b81526004016110009190611872565b600060405180830381865afa15801561101d573d6000803e3d6000fd5b505050506040513d6000823e3d601f19601f820116820180604052508101906110469190612b44565b905060005b815181101561118d57858282815181106110685761106761280a565b5b6020026020010151141561117a57600560009054906101000a900473ffffffffffffffffffffffffffffffffffffffff1673ffffffffffffffffffffffffffffffffffffffff1663a85c38ef846040518263ffffffff1660e01b81526004016110d19190611872565b600060405180830381865afa1580156110ee573d6000803e3d6000fd5b505050506040513d6000823e3d601f19601f820116820180604052508101906111179190612b8d565b86600001876020018860600183905283815250838152505050508184604001819052507ffd967ed846dceb458d2b230678d57522404af1e1a11e25049ecbaf19bd948c57846040516111699190611bdc565b60405180910390a1505050506111a5565b808061118590612c2b565b91505061104b565b5050808061119a90612c2b565b915050610f0b565b50505b919050565b6111b26115d2565b600560009054906101000a900473ffffffffffffffffffffffffffffffffffffffff1673ffffffffffffffffffffffffffffffffffffffff1663ca05632d8585856040518463ffffffff1660e01b815260040161121193929190612c74565b6000604051808303816000875af1158015611230573d6000803e3d6000fd5b505050506040513d6000823e3d601f19601f820116820180604052508101906112599190612cb2565b905061126361159e565b600560009054906101000a900473ffffffffffffffffffffffffffffffffffffffff1673ffffffffffffffffffffffffffffffffffffffff16632c7d67ac866040518263ffffffff1660e01b81526004016112be9190611872565b600060405180830381865afa1580156112db573d6000803e3d6000fd5b505050506040513d6000823e3d601f19601f820116820180604052508101906113049190612cfb565b846000018560200186604001876060018490528481525084905284815250505050507fb7df5657358520e6e9ade939783136ea25276f7caa8c44f6edf89eb31172d414826040516113559190612432565b60405180910390a17f04caaf1e1fce9db87076b0c261e8a9e53e473bc573343e648a587e4ed721d23f8160405161138c91906123a1565b60405180910390a1509392505050565b6113a461159e565b600560009054906101000a900473ffffffffffffffffffffffffffffffffffffffff1673ffffffffffffffffffffffffffffffffffffffff1663de1187eb84846040518363ffffffff1660e01b8152600401611401929190612e20565b6000604051808303816000875af1158015611420573d6000803e3d6000fd5b505050506040513d6000823e3d601f19601f820116820180604052508101906114499190612ace565b90507f6f2629ba795eda3ac6017b92a5a5ba327eacae54615a9f5cd8e4b2f6d78f396c818360405161147c929190612e50565b60405180910390a192915050565b60405180608001604052806000815260200160008152602001606081526020016114b2611610565b81525090565b8280546114c4906124df565b90600052602060002090601f0160209004810192826114e6576000855561152d565b82601f106114ff57805160ff191683800117855561152d565b8280016001018555821561152d579182015b8281111561152c578251825591602001919060010190611511565b5b50905061153a9190611640565b5090565b82805482825590600052602060002090810192821561158d579160200282015b8281111561158c57825182908051906020019061157c9291906114b8565b509160200191906001019061155e565b5b50905061159a919061165d565b5090565b6040518060800160405280600081526020016115b8611681565b8152602001600081526020016115cc6115d2565b81525090565b604051806080016040528060008152602001600073ffffffffffffffffffffffffffffffffffffffff16815260200160008152602001606081525090565b6040518060400160405280600073ffffffffffffffffffffffffffffffffffffffff168152602001606081525090565b5b80821115611659576000816000905550600101611641565b5090565b5b8082111561167d576000818161167491906116a2565b5060010161165e565b5090565b60405180606001604052806060815260200160008152602001606081525090565b5080546116ae906124df565b6000825580601f106116c057506116df565b601f0160209004906000526020600020908101906116de9190611640565b5b50565b6000604051905090565b600080fd5b600080fd5b600073ffffffffffffffffffffffffffffffffffffffff82169050919050565b6000611721826116f6565b9050919050565b61173181611716565b811461173c57600080fd5b50565b60008135905061174e81611728565b92915050565b60006020828403121561176a576117696116ec565b5b60006117788482850161173f565b91505092915050565b61178a81611716565b82525050565b600081519050919050565b600082825260208201905092915050565b60005b838110156117ca5780820151818401526020810190506117af565b838111156117d9576000848401525b50505050565b6000601f19601f8301169050919050565b60006117fb82611790565b611805818561179b565b93506118158185602086016117ac565b61181e816117df565b840191505092915050565b600060408201905061183e6000830185611781565b818103602083015261185081846117f0565b90509392505050565b6000819050919050565b61186c81611859565b82525050565b60006020820190506118876000830184611863565b92915050565b600080fd5b600080fd5b7f4e487b7100000000000000000000000000000000000000000000000000000000600052604160045260246000fd5b6118cf826117df565b810181811067ffffffffffffffff821117156118ee576118ed611897565b5b80604052505050565b60006119016116e2565b905061190d82826118c6565b919050565b600067ffffffffffffffff82111561192d5761192c611897565b5b611936826117df565b9050602081019050919050565b82818337600083830152505050565b600061196561196084611912565b6118f7565b90508281526020810184848401111561198157611980611892565b5b61198c848285611943565b509392505050565b600082601f8301126119a9576119a861188d565b5b81356119b9848260208601611952565b91505092915050565b600080604083850312156119d9576119d86116ec565b5b60006119e78582860161173f565b925050602083013567ffffffffffffffff811115611a0857611a076116f1565b5b611a1485828601611994565b9150509250929050565b611a2781611859565b82525050565b600081519050919050565b600082825260208201905092915050565b6000819050602082019050919050565b6000611a658383611a1e565b60208301905092915050565b6000602082019050919050565b6000611a8982611a2d565b611a938185611a38565b9350611a9e83611a49565b8060005b83811015611acf578151611ab68882611a59565b9750611ac183611a71565b925050600181019050611aa2565b5085935050505092915050565b611ae581611716565b82525050565b600082825260208201905092915050565b6000611b0782611790565b611b118185611aeb565b9350611b218185602086016117ac565b611b2a816117df565b840191505092915050565b6000604083016000830151611b4d6000860182611adc565b5060208301518482036020860152611b658282611afc565b9150508091505092915050565b6000608083016000830151611b8a6000860182611a1e565b506020830151611b9d6020860182611a1e565b5060408301518482036040860152611bb58282611a7e565b91505060608301518482036060860152611bcf8282611b35565b9150508091505092915050565b60006020820190508181036000830152611bf68184611b72565b905092915050565b611c0781611859565b8114611c1257600080fd5b50565b600081359050611c2481611bfe565b92915050565b600060208284031215611c4057611c3f6116ec565b5b6000611c4e84828501611c15565b91505092915050565b600081519050919050565b600082825260208201905092915050565b6000819050602082019050919050565b6000611c8f8383611afc565b905092915050565b6000602082019050919050565b6000611caf82611c57565b611cb98185611c62565b935083602082028501611ccb85611c73565b8060005b85811015611d075784840389528151611ce88582611c83565b9450611cf383611c97565b925060208a01995050600181019050611ccf565b50829750879550505050505092915050565b60006060830160008301518482036000860152611d368282611afc565b9150506020830151611d4b6020860182611a1e565b5060408301518482036040860152611d638282611ca4565b9150508091505092915050565b6000608083016000830151611d886000860182611a1e565b506020830151611d9b6020860182611adc565b506040830151611dae6040860182611a1e565b5060608301518482036060860152611dc68282611afc565b9150508091505092915050565b6000608082019050611de86000830187611863565b8181036020830152611dfa8186611d19565b9050611e096040830185611863565b8181036060830152611e1b8184611d70565b905095945050505050565b600067ffffffffffffffff821115611e4157611e40611897565b5b602082029050602081019050919050565b600080fd5b6000611e6a611e6584611e26565b6118f7565b90508083825260208201905060208402830185811115611e8d57611e8c611e52565b5b835b81811015611ed457803567ffffffffffffffff811115611eb257611eb161188d565b5b808601611ebf8982611994565b85526020850194505050602081019050611e8f565b5050509392505050565b600082601f830112611ef357611ef261188d565b5b8135611f03848260208601611e57565b91505092915050565b600080600060608486031215611f2557611f246116ec565b5b600084013567ffffffffffffffff811115611f4357611f426116f1565b5b611f4f86828701611994565b9350506020611f6086828701611c15565b925050604084013567ffffffffffffffff811115611f8157611f806116f1565b5b611f8d86828701611ede565b9150509250925092565b600060208284031215611fad57611fac6116ec565b5b600082013567ffffffffffffffff811115611fcb57611fca6116f1565b5b611fd784828501611994565b91505092915050565b6000604083016000830151611ff86000860182611adc565b50602083015184820360208601526120108282611afc565b9150508091505092915050565b60006060820190506120326000830186611863565b61203f6020830185611863565b81810360408301526120518184611fe0565b9050949350505050565b6000604082019050818103600083015261207581856117f0565b90506120846020830184611863565b9392505050565b60006080820190506120a06000830187611863565b6120ad6020830186611781565b6120ba6040830185611863565b81810360608301526120cc81846117f0565b905095945050505050565b600080fd5b600080fd5b6000606082840312156120f7576120f66120d7565b5b61210160606118f7565b9050600082013567ffffffffffffffff811115612121576121206120dc565b5b61212d84828501611994565b600083015250602061214184828501611c15565b602083015250604082013567ffffffffffffffff811115612165576121646120dc565b5b61217184828501611ede565b60408301525092915050565b600080600060608486031215612196576121956116ec565b5b60006121a486828701611c15565b935050602084013567ffffffffffffffff8111156121c5576121c46116f1565b5b6121d1868287016120e1565b92505060406121e286828701611c15565b9150509250925092565b600082825260208201905092915050565b600061220882611a2d565b61221281856121ec565b935061221d83611a49565b8060005b8381101561224e5781516122358882611a59565b975061224083611a71565b925050600181019050612221565b5085935050505092915050565b6000602082019050818103600083015261227581846121fd565b905092915050565b6000606083016000830151848203600086015261229a8282611afc565b91505060208301516122af6020860182611a1e565b50604083015184820360408601526122c78282611ca4565b9150508091505092915050565b60006080830160008301516122ec6000860182611a1e565b5060208301516122ff6020860182611adc565b5060408301516123126040860182611a1e565b506060830151848203606086015261232a8282611afc565b9150508091505092915050565b600060808301600083015161234f6000860182611a1e565b5060208301518482036020860152612367828261227d565b915050604083015161237c6040860182611a1e565b506060830151848203606086015261239482826122d4565b9150508091505092915050565b600060208201905081810360008301526123bb8184612337565b905092915050565b6000806000606084860312156123dc576123db6116ec565b5b60006123ea86828701611c15565b93505060206123fb8682870161173f565b925050604084013567ffffffffffffffff81111561241c5761241b6116f1565b5b61242886828701611994565b9150509250925092565b6000602082019050818103600083015261244c8184611d70565b905092915050565b6000806040838503121561246b5761246a6116ec565b5b600061247985828601611c15565b925050602083013567ffffffffffffffff81111561249a576124996116f1565b5b6124a685828601611ede565b9150509250929050565b7f4e487b7100000000000000000000000000000000000000000000000000000000600052602260045260246000fd5b600060028204905060018216806124f757607f821691505b6020821081141561250b5761250a6124b0565b5b50919050565b60008151905061252081611bfe565b92915050565b600067ffffffffffffffff82111561254157612540611897565b5b602082029050602081019050919050565b600061256561256084612526565b6118f7565b9050808382526020820190506020840283018581111561258857612587611e52565b5b835b818110156125b1578061259d8882612511565b84526020840193505060208101905061258a565b5050509392505050565b600082601f8301126125d0576125cf61188d565b5b81516125e0848260208601612552565b91505092915050565b6000815190506125f881611728565b92915050565b600061261161260c84611912565b6118f7565b90508281526020810184848401111561262d5761262c611892565b5b6126388482856117ac565b509392505050565b600082601f8301126126555761265461188d565b5b81516126658482602086016125fe565b91505092915050565b600060408284031215612684576126836120d7565b5b61268e60406118f7565b9050600061269e848285016125e9565b600083015250602082015167ffffffffffffffff8111156126c2576126c16120dc565b5b6126ce84828501612640565b60208301525092915050565b6000608082840312156126f0576126ef6120d7565b5b6126fa60806118f7565b9050600061270a84828501612511565b600083015250602061271e84828501612511565b602083015250604082015167ffffffffffffffff811115612742576127416120dc565b5b61274e848285016125bb565b604083015250606082015167ffffffffffffffff811115612772576127716120dc565b5b61277e8482850161266e565b60608301525092915050565b6000602082840312156127a05761279f6116ec565b5b600082015167ffffffffffffffff8111156127be576127bd6116f1565b5b6127ca848285016126da565b91505092915050565b600060408201905081810360008301526127ed8185611b72565b9050818103602083015261280181846117f0565b90509392505050565b7f4e487b7100000000000000000000000000000000000000000000000000000000600052603260045260246000fd5b600061284c61284784611e26565b6118f7565b9050808382526020820190506020840283018581111561286f5761286e611e52565b5b835b818110156128b657805167ffffffffffffffff8111156128945761289361188d565b5b8086016128a18982612640565b85526020850194505050602081019050612871565b5050509392505050565b600082601f8301126128d5576128d461188d565b5b81516128e5848260208601612839565b91505092915050565b600060608284031215612904576129036120d7565b5b61290e60606118f7565b9050600082015167ffffffffffffffff81111561292e5761292d6120dc565b5b61293a84828501612640565b600083015250602061294e84828501612511565b602083015250604082015167ffffffffffffffff811115612972576129716120dc565b5b61297e848285016128c0565b60408301525092915050565b6000608082840312156129a05761299f6120d7565b5b6129aa60806118f7565b905060006129ba84828501612511565b60008301525060206129ce848285016125e9565b60208301525060406129e284828501612511565b604083015250606082015167ffffffffffffffff811115612a0657612a056120dc565b5b612a1284828501612640565b60608301525092915050565b600060808284031215612a3457612a336120d7565b5b612a3e60806118f7565b90506000612a4e84828501612511565b600083015250602082015167ffffffffffffffff811115612a7257612a716120dc565b5b612a7e848285016128ee565b6020830152506040612a9284828501612511565b604083015250606082015167ffffffffffffffff811115612ab657612ab56120dc565b5b612ac28482850161298a565b60608301525092915050565b600060208284031215612ae457612ae36116ec565b5b600082015167ffffffffffffffff811115612b0257612b016116f1565b5b612b0e84828501612a1e565b91505092915050565b600060208284031215612b2d57612b2c6116ec565b5b6000612b3b84828501612511565b91505092915050565b600060208284031215612b5a57612b596116ec565b5b600082015167ffffffffffffffff811115612b7857612b776116f1565b5b612b84848285016125bb565b91505092915050565b600080600060608486031215612ba657612ba56116ec565b5b6000612bb486828701612511565b9350506020612bc586828701612511565b925050604084015167ffffffffffffffff811115612be657612be56116f1565b5b612bf28682870161266e565b9150509250925092565b7f4e487b7100000000000000000000000000000000000000000000000000000000600052601160045260246000fd5b6000612c3682611859565b91507fffffffffffffffffffffffffffffffffffffffffffffffffffffffffffffffff821415612c6957612c68612bfc565b5b600182019050919050565b6000606082019050612c896000830186611863565b612c966020830185611781565b8181036040830152612ca881846117f0565b9050949350505050565b600060208284031215612cc857612cc76116ec565b5b600082015167ffffffffffffffff811115612ce657612ce56116f1565b5b612cf28482850161298a565b91505092915050565b60008060008060808587031215612d1557612d146116ec565b5b6000612d2387828801612511565b945050602085015167ffffffffffffffff811115612d4457612d436116f1565b5b612d50878288016128ee565b9350506040612d6187828801612511565b925050606085015167ffffffffffffffff811115612d8257612d816116f1565b5b612d8e8782880161298a565b91505092959194509250565b600082825260208201905092915050565b6000612db682611c57565b612dc08185612d9a565b935083602082028501612dd285611c73565b8060005b85811015612e0e5784840389528151612def8582611c83565b9450612dfa83611c97565b925060208a01995050600181019050612dd6565b50829750879550505050505092915050565b6000604082019050612e356000830185611863565b8181036020830152612e478184612dab565b90509392505050565b60006040820190508181036000830152612e6a8185612337565b90508181036020830152612e7e8184612dab565b9050939250505056fea2646970667358221220c91e4a68631bd2aff87283d816f3f70ca07df282eeb4c57cd19864d66287c52f64736f6c634300080a0033",
  "immutableReferences": {},
  "source": "// SPDX-License-Identifier: CC-BY-SA-4.0\npragma solidity >=0.7.0 <0.9.0;\n\n\ncontract Business {\n\n   struct Order \n   {\n        uint256 id;\n        uint256 date;\n        uint256[] OrderLine_id;\n        Customer c;\n   }\n\n    struct OrderLine\n   {    \n        uint256 id;\n        Product p;\n        uint qty;\n        Delivery d;\n   }\n\n    struct Product\n   {\n        string name;\n        uint price;\n        string[] colori;\n   }\n\n    struct Customer\n   {\n        address id;\n        string name;\n   }\n\n    struct Delivery\n   {\n        uint256 id;\n        address Customer_id;\n        uint256 date;\n        string delivery_add;\n   }\n\n    mapping (address => Customer) public c;\n\n    Order[] public orders;\n    OrderLine[] public orderlines;\n    Product[] public p;\n    Delivery[] public deliveries;\n\n\n\n    function SignUP (string memory name) public {\n        c[msg.sender] = Customer(msg.sender, name);\n    }\n\n    function addProduct (string memory name, uint price, string[] memory colori) public {\n        p.push(Product(name,price,colori));\n    }\n\n    function deliveryItems (uint ol_id, address cust,  string memory add) public virtual returns (Delivery memory del){\n        deliveries.push(Delivery(deliveries.length, cust, block.timestamp,add));\n        orderlines[ol_id].d = deliveries[deliveries.length-1];\n        return deliveries[deliveries.length-1];\n    }\n\n    function Create_Order(address customer, string memory referreal) public virtual returns (Order memory order)\n    {\n        order.date = block.timestamp;\n        order.c = c[customer];\n        order.id = orders.length;\n        orders.push(order);\n        return order;\n    }\n\n    function add_orderline(uint order_id, Product memory prod, uint qty) public {\n        OrderLine memory ol;\n        ol.qty = qty;\n        ol.p = prod;\n        ol.id = orderlines.length;\n        orderlines.push(ol);\n        orders[order_id].OrderLine_id.push(ol.id);\n\n    }\n\n    function pick_item (uint ol_id) public virtual returns (OrderLine memory ol){\n        return orderlines[ol_id];\n    }\n\n    function wrap_item (uint ol_id, string[] memory notes) public virtual returns (OrderLine memory ol){\n        return orderlines[ol_id];\n    }\n\n\n    function getOrdersLength() public view returns(uint count) {\n        return orders.length;\n    }\n\n    function getOLSfromOrder(uint order_id) public view returns(uint256[] memory ols) {\n        return orders[order_id].OrderLine_id;\n    }\n}\n\ncontract Logging is Business\n{\n    // Deve poter accedere al contratto che deve loggare\n    Business inner_contract;\n\n    event call_create_order(Order o, string referreal);\n    event call_pick_item(OrderLine ol);\n    event call_wrap_item(OrderLine ol, string[] notes);\n    event call_delivery_items(Delivery del);\n    event update_orderline(OrderLine ol);\n    event update_order(Order o);\n\n    constructor(address add) \n    {\n        inner_contract = Business(add);\n    }\n\n    function Create_Order(address customer, string memory referreal) public override returns (Order memory o)\n    {\n        o = inner_contract.Create_Order(customer, referreal);\n        emit call_create_order(o,referreal);\n    }\n\n    function pick_item (uint ol_id) public override returns (OrderLine memory ol)\n    {\n        ol = inner_contract.pick_item(ol_id);\n        emit call_pick_item(ol);\n\n        Order memory o;\n        for (uint i = 0; i < inner_contract.getOrdersLength(); i++) \n        {\n            uint256[] memory ols = inner_contract.getOLSfromOrder(i);\n            for (uint j = 0; j <  ols.length; j++)\n            { \n                if ( ols[j] == ol_id)\n                {\n                    (o.id, o.date, o.c) = inner_contract.orders(i);\n                    o.OrderLine_id = ols;\n                    emit update_order(o);\n                    return ol;\n                }\n            }\n        }\n    }\n\n\n    function wrap_item (uint ol_id, string[] memory notes) public override returns (OrderLine memory ol)\n    {\n        ol = inner_contract.wrap_item(ol_id, notes);\n        \n        emit call_wrap_item(ol,notes);\n    }\n\n\n    function deliveryItems (uint ol_id, address cust, string memory add) public override returns (Delivery memory del)\n    {\n        del = inner_contract.deliveryItems(ol_id, cust, add);\n\n        OrderLine memory ol;\n        (ol.id, ol.p, ol.qty, ol.d) = inner_contract.orderlines(ol_id);\n        emit call_delivery_items(del);\n        emit update_orderline(ol);\n    }\n\n}",
  "sourcePath": "/home/andrea/Scrivania/Master-Thesis/Truffle/showcase_1/contracts/Decoupled.sol",
  "compiler": {
    "name": "solc",
    "version": "0.8.10+commit.fc410830.Emscripten.clang"
  },
  "schemaVersion": "3.4.3",
  "updatedAt": "2022-09-29T09:33:13.565Z",
  "networkType": "ethereum",
  "devdoc": {
    "kind": "dev",
    "methods": {},
    "version": 1
  },
  "userdoc": {
    "kind": "user",
    "methods": {},
    "version": 1
  }
}