{
  "contractName": "Monolith",
  "abi": [
    {
      "anonymous": false,
      "inputs": [
        {
          "components": [
            {
              "internalType": "uint256",
              "name": "id",
              "type": "uint256"
            },
            {
              "internalType": "uint256",
              "name": "date",
              "type": "uint256"
            },
            {
              "internalType": "uint256[]",
              "name": "OrderLine_id",
              "type": "uint256[]"
            },
            {
              "components": [
                {
                  "internalType": "address",
                  "name": "id",
                  "type": "address"
                },
                {
                  "internalType": "string",
                  "name": "name",
                  "type": "string"
                }
              ],
              "internalType": "struct Monolith.Customer",
              "name": "c",
              "type": "tuple"
            }
          ],
          "indexed": false,
          "internalType": "struct Monolith.Order",
          "name": "o",
          "type": "tuple"
        },
        {
          "indexed": false,
          "internalType": "string",
          "name": "referreal",
          "type": "string"
        }
      ],
      "name": "call_create_order",
      "type": "event"
    },
    {
      "anonymous": false,
      "inputs": [
        {
          "components": [
            {
              "internalType": "uint256",
              "name": "id",
              "type": "uint256"
            },
            {
              "internalType": "address",
              "name": "Customer_id",
              "type": "address"
            },
            {
              "internalType": "uint256",
              "name": "date",
              "type": "uint256"
            },
            {
              "internalType": "string",
              "name": "delivery_add",
              "type": "string"
            }
          ],
          "indexed": false,
          "internalType": "struct Monolith.Delivery",
          "name": "del",
          "type": "tuple"
        }
      ],
      "name": "call_delivery_items",
      "type": "event"
    },
    {
      "anonymous": false,
      "inputs": [
        {
          "components": [
            {
              "internalType": "uint256",
              "name": "id",
              "type": "uint256"
            },
            {
              "components": [
                {
                  "internalType": "string",
                  "name": "name",
                  "type": "string"
                },
                {
                  "internalType": "uint256",
                  "name": "price",
                  "type": "uint256"
                },
                {
                  "internalType": "string[]",
                  "name": "colori",
                  "type": "string[]"
                }
              ],
              "internalType": "struct Monolith.Product",
              "name": "p",
              "type": "tuple"
            },
            {
              "internalType": "uint256",
              "name": "qty",
              "type": "uint256"
            },
            {
              "components": [
                {
                  "internalType": "uint256",
                  "name": "id",
                  "type": "uint256"
                },
                {
                  "internalType": "address",
                  "name": "Customer_id",
                  "type": "address"
                },
                {
                  "internalType": "uint256",
                  "name": "date",
                  "type": "uint256"
                },
                {
                  "internalType": "string",
                  "name": "delivery_add",
                  "type": "string"
                }
              ],
              "internalType": "struct Monolith.Delivery",
              "name": "d",
              "type": "tuple"
            }
          ],
          "indexed": false,
          "internalType": "struct Monolith.OrderLine",
          "name": "ol",
          "type": "tuple"
        }
      ],
      "name": "call_pick_item",
      "type": "event"
    },
    {
      "anonymous": false,
      "inputs": [
        {
          "components": [
            {
              "internalType": "uint256",
              "name": "id",
              "type": "uint256"
            },
            {
              "components": [
                {
                  "internalType": "string",
                  "name": "name",
                  "type": "string"
                },
                {
                  "internalType": "uint256",
                  "name": "price",
                  "type": "uint256"
                },
                {
                  "internalType": "string[]",
                  "name": "colori",
                  "type": "string[]"
                }
              ],
              "internalType": "struct Monolith.Product",
              "name": "p",
              "type": "tuple"
            },
            {
              "internalType": "uint256",
              "name": "qty",
              "type": "uint256"
            },
            {
              "components": [
                {
                  "internalType": "uint256",
                  "name": "id",
                  "type": "uint256"
                },
                {
                  "internalType": "address",
                  "name": "Customer_id",
                  "type": "address"
                },
                {
                  "internalType": "uint256",
                  "name": "date",
                  "type": "uint256"
                },
                {
                  "internalType": "string",
                  "name": "delivery_add",
                  "type": "string"
                }
              ],
              "internalType": "struct Monolith.Delivery",
              "name": "d",
              "type": "tuple"
            }
          ],
          "indexed": false,
          "internalType": "struct Monolith.OrderLine",
          "name": "ol",
          "type": "tuple"
        },
        {
          "indexed": false,
          "internalType": "string[]",
          "name": "notes",
          "type": "string[]"
        }
      ],
      "name": "call_wrap_item",
      "type": "event"
    },
    {
      "anonymous": false,
      "inputs": [
        {
          "components": [
            {
              "internalType": "uint256",
              "name": "id",
              "type": "uint256"
            },
            {
              "internalType": "uint256",
              "name": "date",
              "type": "uint256"
            },
            {
              "internalType": "uint256[]",
              "name": "OrderLine_id",
              "type": "uint256[]"
            },
            {
              "components": [
                {
                  "internalType": "address",
                  "name": "id",
                  "type": "address"
                },
                {
                  "internalType": "string",
                  "name": "name",
                  "type": "string"
                }
              ],
              "internalType": "struct Monolith.Customer",
              "name": "c",
              "type": "tuple"
            }
          ],
          "indexed": false,
          "internalType": "struct Monolith.Order",
          "name": "o",
          "type": "tuple"
        }
      ],
      "name": "update_order",
      "type": "event"
    },
    {
      "anonymous": false,
      "inputs": [
        {
          "components": [
            {
              "internalType": "uint256",
              "name": "id",
              "type": "uint256"
            },
            {
              "components": [
                {
                  "internalType": "string",
                  "name": "name",
                  "type": "string"
                },
                {
                  "internalType": "uint256",
                  "name": "price",
                  "type": "uint256"
                },
                {
                  "internalType": "string[]",
                  "name": "colori",
                  "type": "string[]"
                }
              ],
              "internalType": "struct Monolith.Product",
              "name": "p",
              "type": "tuple"
            },
            {
              "internalType": "uint256",
              "name": "qty",
              "type": "uint256"
            },
            {
              "components": [
                {
                  "internalType": "uint256",
                  "name": "id",
                  "type": "uint256"
                },
                {
                  "internalType": "address",
                  "name": "Customer_id",
                  "type": "address"
                },
                {
                  "internalType": "uint256",
                  "name": "date",
                  "type": "uint256"
                },
                {
                  "internalType": "string",
                  "name": "delivery_add",
                  "type": "string"
                }
              ],
              "internalType": "struct Monolith.Delivery",
              "name": "d",
              "type": "tuple"
            }
          ],
          "indexed": false,
          "internalType": "struct Monolith.OrderLine",
          "name": "ol",
          "type": "tuple"
        }
      ],
      "name": "update_orderline",
      "type": "event"
    },
    {
      "inputs": [
        {
          "internalType": "address",
          "name": "",
          "type": "address"
        }
      ],
      "name": "c",
      "outputs": [
        {
          "internalType": "address",
          "name": "id",
          "type": "address"
        },
        {
          "internalType": "string",
          "name": "name",
          "type": "string"
        }
      ],
      "stateMutability": "view",
      "type": "function",
      "constant": true
    },
    {
      "inputs": [
        {
          "internalType": "uint256",
          "name": "",
          "type": "uint256"
        }
      ],
      "name": "deliveries",
      "outputs": [
        {
          "internalType": "uint256",
          "name": "id",
          "type": "uint256"
        },
        {
          "internalType": "address",
          "name": "Customer_id",
          "type": "address"
        },
        {
          "internalType": "uint256",
          "name": "date",
          "type": "uint256"
        },
        {
          "internalType": "string",
          "name": "delivery_add",
          "type": "string"
        }
      ],
      "stateMutability": "view",
      "type": "function",
      "constant": true
    },
    {
      "inputs": [
        {
          "internalType": "uint256",
          "name": "",
          "type": "uint256"
        }
      ],
      "name": "orderlines",
      "outputs": [
        {
          "internalType": "uint256",
          "name": "id",
          "type": "uint256"
        },
        {
          "components": [
            {
              "internalType": "string",
              "name": "name",
              "type": "string"
            },
            {
              "internalType": "uint256",
              "name": "price",
              "type": "uint256"
            },
            {
              "internalType": "string[]",
              "name": "colori",
              "type": "string[]"
            }
          ],
          "internalType": "struct Monolith.Product",
          "name": "p",
          "type": "tuple"
        },
        {
          "internalType": "uint256",
          "name": "qty",
          "type": "uint256"
        },
        {
          "components": [
            {
              "internalType": "uint256",
              "name": "id",
              "type": "uint256"
            },
            {
              "internalType": "address",
              "name": "Customer_id",
              "type": "address"
            },
            {
              "internalType": "uint256",
              "name": "date",
              "type": "uint256"
            },
            {
              "internalType": "string",
              "name": "delivery_add",
              "type": "string"
            }
          ],
          "internalType": "struct Monolith.Delivery",
          "name": "d",
          "type": "tuple"
        }
      ],
      "stateMutability": "view",
      "type": "function",
      "constant": true
    },
    {
      "inputs": [
        {
          "internalType": "uint256",
          "name": "",
          "type": "uint256"
        }
      ],
      "name": "orders",
      "outputs": [
        {
          "internalType": "uint256",
          "name": "id",
          "type": "uint256"
        },
        {
          "internalType": "uint256",
          "name": "date",
          "type": "uint256"
        },
        {
          "components": [
            {
              "internalType": "address",
              "name": "id",
              "type": "address"
            },
            {
              "internalType": "string",
              "name": "name",
              "type": "string"
            }
          ],
          "internalType": "struct Monolith.Customer",
          "name": "c",
          "type": "tuple"
        }
      ],
      "stateMutability": "view",
      "type": "function",
      "constant": true
    },
    {
      "inputs": [
        {
          "internalType": "uint256",
          "name": "",
          "type": "uint256"
        }
      ],
      "name": "p",
      "outputs": [
        {
          "internalType": "string",
          "name": "name",
          "type": "string"
        },
        {
          "internalType": "uint256",
          "name": "price",
          "type": "uint256"
        }
      ],
      "stateMutability": "view",
      "type": "function",
      "constant": true
    },
    {
      "inputs": [
        {
          "internalType": "string",
          "name": "name",
          "type": "string"
        }
      ],
      "name": "SignUP",
      "outputs": [],
      "stateMutability": "nonpayable",
      "type": "function"
    },
    {
      "inputs": [
        {
          "internalType": "string",
          "name": "name",
          "type": "string"
        },
        {
          "internalType": "uint256",
          "name": "price",
          "type": "uint256"
        },
        {
          "internalType": "string[]",
          "name": "colori",
          "type": "string[]"
        }
      ],
      "name": "addProduct",
      "outputs": [],
      "stateMutability": "nonpayable",
      "type": "function"
    },
    {
      "inputs": [
        {
          "internalType": "address",
          "name": "customer",
          "type": "address"
        },
        {
          "internalType": "string",
          "name": "referreal",
          "type": "string"
        }
      ],
      "name": "Create_Order",
      "outputs": [],
      "stateMutability": "nonpayable",
      "type": "function"
    },
    {
      "inputs": [
        {
          "internalType": "uint256",
          "name": "order_id",
          "type": "uint256"
        },
        {
          "components": [
            {
              "internalType": "string",
              "name": "name",
              "type": "string"
            },
            {
              "internalType": "uint256",
              "name": "price",
              "type": "uint256"
            },
            {
              "internalType": "string[]",
              "name": "colori",
              "type": "string[]"
            }
          ],
          "internalType": "struct Monolith.Product",
          "name": "prod",
          "type": "tuple"
        },
        {
          "internalType": "uint256",
          "name": "qty",
          "type": "uint256"
        }
      ],
      "name": "add_orderline",
      "outputs": [],
      "stateMutability": "nonpayable",
      "type": "function"
    },
    {
      "inputs": [
        {
          "internalType": "uint256",
          "name": "ol_id",
          "type": "uint256"
        }
      ],
      "name": "pick_item",
      "outputs": [],
      "stateMutability": "nonpayable",
      "type": "function"
    },
    {
      "inputs": [
        {
          "internalType": "uint256",
          "name": "ol_id",
          "type": "uint256"
        },
        {
          "internalType": "string[]",
          "name": "notes",
          "type": "string[]"
        }
      ],
      "name": "wrap_item",
      "outputs": [],
      "stateMutability": "nonpayable",
      "type": "function"
    },
    {
      "inputs": [
        {
          "internalType": "uint256",
          "name": "ol_id",
          "type": "uint256"
        },
        {
          "internalType": "address",
          "name": "cust",
          "type": "address"
        },
        {
          "internalType": "string",
          "name": "add",
          "type": "string"
        }
      ],
      "name": "deliveryItems",
      "outputs": [],
      "stateMutability": "nonpayable",
      "type": "function"
    }
  ],
  "bytecode": "0x608060405234801561001057600080fd5b50612969806100206000396000f3fe608060405234801561001057600080fd5b50600436106100b45760003560e01c8063a969204711610071578063a9692047146101a3578063a9e4a324146101d4578063abda8a7714610207578063c4b4d3ca14610223578063ca05632d1461023f578063de1187eb1461025b576100b4565b806304ee65c0146100b95780632883077f146100ea5780632c7d67ac14610106578063a2bceb8514610139578063a75dbe2714610155578063a85c38ef14610171575b600080fd5b6100d360048036038101906100ce9190611668565b610277565b6040516100e192919061173d565b60405180910390f35b61010460048036038101906100ff91906118a2565b610343565b005b610120600480360381019061011b9190611934565b6105a9565b6040516101309493929190611b54565b60405180910390f35b610153600480360381019061014e9190611c8d565b61086e565b005b61016f600480360381019061016a9190611d18565b6108ff565b005b61018b60048036038101906101869190611934565b6109d2565b60405161019a93929190611d9e565b60405180910390f35b6101bd60048036038101906101b89190611934565b610afe565b6040516101cb929190611ddc565b60405180910390f35b6101ee60048036038101906101e99190611934565b610bba565b6040516101fe9493929190611e0c565b60405180910390f35b610221600480360381019061021c9190611efe565b610ca2565b005b61023d60048036038101906102389190611934565b610e36565b005b61025960048036038101906102549190611f6d565b610fc9565b005b61027560048036038101906102709190611fdc565b611266565b005b60006020528060005260406000206000915090508060000160009054906101000a900473ffffffffffffffffffffffffffffffffffffffff16908060010180546102c090612067565b80601f01602080910402602001604051908101604052809291908181526020018280546102ec90612067565b80156103395780601f1061030e57610100808354040283529160200191610339565b820191906000526020600020905b81548152906001019060200180831161031c57829003601f168201915b5050505050905082565b61034b6112c4565b428160200181815250506000808473ffffffffffffffffffffffffffffffffffffffff1673ffffffffffffffffffffffffffffffffffffffff1681526020019081526020016000206040518060400160405290816000820160009054906101000a900473ffffffffffffffffffffffffffffffffffffffff1673ffffffffffffffffffffffffffffffffffffffff1673ffffffffffffffffffffffffffffffffffffffff16815260200160018201805461040490612067565b80601f016020809104026020016040519081016040528092919081815260200182805461043090612067565b801561047d5780601f106104525761010080835404028352916020019161047d565b820191906000526020600020905b81548152906001019060200180831161046057829003601f168201915b50505050508152505081606001819052506001805490508160000181815250506001819080600181540180825580915050600190039060005260206000209060050201600090919091909150600082015181600001556020820151816001015560408201518160020190805190602001906104f99291906112f2565b5060608201518160030160008201518160000160006101000a81548173ffffffffffffffffffffffffffffffffffffffff021916908373ffffffffffffffffffffffffffffffffffffffff160217905550602082015181600101908051906020019061056692919061133f565b50505050507fc5927c620a285961e16739cf3a543fd3b8a75f2474d8deed87eeb95e0e312537818360405161059c9291906121ef565b60405180910390a1505050565b600281815481106105b957600080fd5b9060005260206000209060090201600091509050806000015490806001016040518060600160405290816000820180546105f290612067565b80601f016020809104026020016040519081016040528092919081815260200182805461061e90612067565b801561066b5780601f106106405761010080835404028352916020019161066b565b820191906000526020600020905b81548152906001019060200180831161064e57829003601f168201915b505050505081526020016001820154815260200160028201805480602002602001604051908101604052809291908181526020016000905b8282101561074f5783829060005260206000200180546106c290612067565b80601f01602080910402602001604051908101604052809291908181526020018280546106ee90612067565b801561073b5780601f106107105761010080835404028352916020019161073b565b820191906000526020600020905b81548152906001019060200180831161071e57829003601f168201915b5050505050815260200190600101906106a3565b50505050815250509080600401549080600501604051806080016040529081600082015481526020016001820160009054906101000a900473ffffffffffffffffffffffffffffffffffffffff1673ffffffffffffffffffffffffffffffffffffffff1673ffffffffffffffffffffffffffffffffffffffff168152602001600282015481526020016003820180546107e790612067565b80601f016020809104026020016040519081016040528092919081815260200182805461081390612067565b80156108605780601f1061083557610100808354040283529160200191610860565b820191906000526020600020905b81548152906001019060200180831161084357829003601f168201915b505050505081525050905084565b6003604051806060016040528085815260200184815260200183815250908060018154018082558091505060019003906000526020600020906003020160009091909190915060008201518160000190805190602001906108d092919061133f565b506020820151816001015560408201518160020190805190602001906108f79291906113c5565b505050505050565b60405180604001604052803373ffffffffffffffffffffffffffffffffffffffff168152602001828152506000803373ffffffffffffffffffffffffffffffffffffffff1673ffffffffffffffffffffffffffffffffffffffff16815260200190815260200160002060008201518160000160006101000a81548173ffffffffffffffffffffffffffffffffffffffff021916908373ffffffffffffffffffffffffffffffffffffffff16021790555060208201518160010190805190602001906109cb92919061133f565b5090505050565b600181815481106109e257600080fd5b9060005260206000209060050201600091509050806000015490806001015490806003016040518060400160405290816000820160009054906101000a900473ffffffffffffffffffffffffffffffffffffffff1673ffffffffffffffffffffffffffffffffffffffff1673ffffffffffffffffffffffffffffffffffffffff168152602001600182018054610a7790612067565b80601f0160208091040260200160405190810160405280929190818152602001828054610aa390612067565b8015610af05780601f10610ac557610100808354040283529160200191610af0565b820191906000526020600020905b815481529060010190602001808311610ad357829003601f168201915b505050505081525050905083565b60038181548110610b0e57600080fd5b9060005260206000209060030201600091509050806000018054610b3190612067565b80601f0160208091040260200160405190810160405280929190818152602001828054610b5d90612067565b8015610baa5780601f10610b7f57610100808354040283529160200191610baa565b820191906000526020600020905b815481529060010190602001808311610b8d57829003601f168201915b5050505050908060010154905082565b60048181548110610bca57600080fd5b90600052602060002090600402016000915090508060000154908060010160009054906101000a900473ffffffffffffffffffffffffffffffffffffffff1690806002015490806003018054610c1f90612067565b80601f0160208091040260200160405190810160405280929190818152602001828054610c4b90612067565b8015610c985780601f10610c6d57610100808354040283529160200191610c98565b820191906000526020600020905b815481529060010190602001808311610c7b57829003601f168201915b5050505050905084565b610caa611425565b818160400181815250508281602001819052506002805490508160000181815250506002819080600181540180825580915050600190039060005260206000209060090201600090919091909150600082015181600001556020820151816001016000820151816000019080519060200190610d2792919061133f565b50602082015181600101556040820151816002019080519060200190610d4e9291906113c5565b505050604082015181600401556060820151816005016000820151816000015560208201518160010160006101000a81548173ffffffffffffffffffffffffffffffffffffffff021916908373ffffffffffffffffffffffffffffffffffffffff160217905550604082015181600201556060820151816003019080519060200190610ddb92919061133f565b505050505060018481548110610df457610df3612226565b5b90600052602060002090600502016002018160000151908060018154018082558091505060019003906000526020600020016000909190919091505550505050565b7f9b8a1547ee9745229c2b5c560c23ff8879bd47f2139c88f94cc7fb459bd39e2c60028281548110610e6b57610e6a612226565b5b9060005260206000209060090201604051610e869190612571565b60405180910390a160005b600180549050811015610fc557600060018281548110610eb457610eb3612226565b5b9060005260206000209060050201600201805480602002602001604051908101604052809291908181526020018280548015610f0f57602002820191906000526020600020905b815481526020019060010190808311610efb575b5050505050905060005b8151811015610fb05783828281518110610f3657610f35612226565b5b60200260200101511415610f9d577ffd967ed846dceb458d2b230678d57522404af1e1a11e25049ecbaf19bd948c5760018481548110610f7957610f78612226565b5b9060005260206000209060050201604051610f949190612701565b60405180910390a15b8080610fa890612752565b915050610f19565b50508080610fbd90612752565b915050610e91565b5050565b6004604051806080016040528060048054905081526020018473ffffffffffffffffffffffffffffffffffffffff1681526020014281526020018381525090806001815401808255809150506001900390600052602060002090600402016000909190919091506000820151816000015560208201518160010160006101000a81548173ffffffffffffffffffffffffffffffffffffffff021916908373ffffffffffffffffffffffffffffffffffffffff1602179055506040820151816002015560608201518160030190805190602001906110a792919061133f565b505050600460016004805490506110be919061279b565b815481106110cf576110ce612226565b5b9060005260206000209060040201600284815481106110f1576110f0612226565b5b9060005260206000209060090201600501600082015481600001556001820160009054906101000a900473ffffffffffffffffffffffffffffffffffffffff168160010160006101000a81548173ffffffffffffffffffffffffffffffffffffffff021916908373ffffffffffffffffffffffffffffffffffffffff16021790555060028201548160020155600382018160030190805461119190612067565b61119c929190611459565b509050507fb7df5657358520e6e9ade939783136ea25276f7caa8c44f6edf89eb31172d414600460016004805490506111d5919061279b565b815481106111e6576111e5612226565b5b90600052602060002090600402016040516112019190612854565b60405180910390a17f04caaf1e1fce9db87076b0c261e8a9e53e473bc573343e648a587e4ed721d23f6002848154811061123e5761123d612226565b5b90600052602060002090600902016040516112599190612571565b60405180910390a1505050565b7f6f2629ba795eda3ac6017b92a5a5ba327eacae54615a9f5cd8e4b2f6d78f396c6002838154811061129b5761129a612226565b5b9060005260206000209060090201826040516112b89291906128fc565b60405180910390a15050565b60405180608001604052806000815260200160008152602001606081526020016112ec6114e6565b81525090565b82805482825590600052602060002090810192821561132e579160200282015b8281111561132d578251825591602001919060010190611312565b5b50905061133b9190611516565b5090565b82805461134b90612067565b90600052602060002090601f01602090048101928261136d57600085556113b4565b82601f1061138657805160ff19168380011785556113b4565b828001600101855582156113b4579182015b828111156113b3578251825591602001919060010190611398565b5b5090506113c19190611516565b5090565b828054828255906000526020600020908101928215611414579160200282015b8281111561141357825182908051906020019061140392919061133f565b50916020019190600101906113e5565b5b5090506114219190611533565b5090565b60405180608001604052806000815260200161143f611557565b815260200160008152602001611453611578565b81525090565b82805461146590612067565b90600052602060002090601f01602090048101928261148757600085556114d5565b82601f1061149857805485556114d5565b828001600101855582156114d557600052602060002091601f016020900482015b828111156114d45782548255916001019190600101906114b9565b5b5090506114e29190611516565b5090565b6040518060400160405280600073ffffffffffffffffffffffffffffffffffffffff168152602001606081525090565b5b8082111561152f576000816000905550600101611517565b5090565b5b80821115611553576000818161154a91906115b6565b50600101611534565b5090565b60405180606001604052806060815260200160008152602001606081525090565b604051806080016040528060008152602001600073ffffffffffffffffffffffffffffffffffffffff16815260200160008152602001606081525090565b5080546115c290612067565b6000825580601f106115d457506115f3565b601f0160209004906000526020600020908101906115f29190611516565b5b50565b6000604051905090565b600080fd5b600080fd5b600073ffffffffffffffffffffffffffffffffffffffff82169050919050565b60006116358261160a565b9050919050565b6116458161162a565b811461165057600080fd5b50565b6000813590506116628161163c565b92915050565b60006020828403121561167e5761167d611600565b5b600061168c84828501611653565b91505092915050565b61169e8161162a565b82525050565b600081519050919050565b600082825260208201905092915050565b60005b838110156116de5780820151818401526020810190506116c3565b838111156116ed576000848401525b50505050565b6000601f19601f8301169050919050565b600061170f826116a4565b61171981856116af565b93506117298185602086016116c0565b611732816116f3565b840191505092915050565b60006040820190506117526000830185611695565b81810360208301526117648184611704565b90509392505050565b600080fd5b600080fd5b7f4e487b7100000000000000000000000000000000000000000000000000000000600052604160045260246000fd5b6117af826116f3565b810181811067ffffffffffffffff821117156117ce576117cd611777565b5b80604052505050565b60006117e16115f6565b90506117ed82826117a6565b919050565b600067ffffffffffffffff82111561180d5761180c611777565b5b611816826116f3565b9050602081019050919050565b82818337600083830152505050565b6000611845611840846117f2565b6117d7565b90508281526020810184848401111561186157611860611772565b5b61186c848285611823565b509392505050565b600082601f8301126118895761188861176d565b5b8135611899848260208601611832565b91505092915050565b600080604083850312156118b9576118b8611600565b5b60006118c785828601611653565b925050602083013567ffffffffffffffff8111156118e8576118e7611605565b5b6118f485828601611874565b9150509250929050565b6000819050919050565b611911816118fe565b811461191c57600080fd5b50565b60008135905061192e81611908565b92915050565b60006020828403121561194a57611949611600565b5b60006119588482850161191f565b91505092915050565b61196a816118fe565b82525050565b600082825260208201905092915050565b600061198c826116a4565b6119968185611970565b93506119a68185602086016116c0565b6119af816116f3565b840191505092915050565b6119c3816118fe565b82525050565b600081519050919050565b600082825260208201905092915050565b6000819050602082019050919050565b6000611a018383611981565b905092915050565b6000602082019050919050565b6000611a21826119c9565b611a2b81856119d4565b935083602082028501611a3d856119e5565b8060005b85811015611a795784840389528151611a5a85826119f5565b9450611a6583611a09565b925060208a01995050600181019050611a41565b50829750879550505050505092915050565b60006060830160008301518482036000860152611aa88282611981565b9150506020830151611abd60208601826119ba565b5060408301518482036040860152611ad58282611a16565b9150508091505092915050565b611aeb8161162a565b82525050565b6000608083016000830151611b0960008601826119ba565b506020830151611b1c6020860182611ae2565b506040830151611b2f60408601826119ba565b5060608301518482036060860152611b478282611981565b9150508091505092915050565b6000608082019050611b696000830187611961565b8181036020830152611b7b8186611a8b565b9050611b8a6040830185611961565b8181036060830152611b9c8184611af1565b905095945050505050565b600067ffffffffffffffff821115611bc257611bc1611777565b5b602082029050602081019050919050565b600080fd5b6000611beb611be684611ba7565b6117d7565b90508083825260208201905060208402830185811115611c0e57611c0d611bd3565b5b835b81811015611c5557803567ffffffffffffffff811115611c3357611c3261176d565b5b808601611c408982611874565b85526020850194505050602081019050611c10565b5050509392505050565b600082601f830112611c7457611c7361176d565b5b8135611c84848260208601611bd8565b91505092915050565b600080600060608486031215611ca657611ca5611600565b5b600084013567ffffffffffffffff811115611cc457611cc3611605565b5b611cd086828701611874565b9350506020611ce18682870161191f565b925050604084013567ffffffffffffffff811115611d0257611d01611605565b5b611d0e86828701611c5f565b9150509250925092565b600060208284031215611d2e57611d2d611600565b5b600082013567ffffffffffffffff811115611d4c57611d4b611605565b5b611d5884828501611874565b91505092915050565b6000604083016000830151611d796000860182611ae2565b5060208301518482036020860152611d918282611981565b9150508091505092915050565b6000606082019050611db36000830186611961565b611dc06020830185611961565b8181036040830152611dd28184611d61565b9050949350505050565b60006040820190508181036000830152611df68185611704565b9050611e056020830184611961565b9392505050565b6000608082019050611e216000830187611961565b611e2e6020830186611695565b611e3b6040830185611961565b8181036060830152611e4d8184611704565b905095945050505050565b600080fd5b600080fd5b600060608284031215611e7857611e77611e58565b5b611e8260606117d7565b9050600082013567ffffffffffffffff811115611ea257611ea1611e5d565b5b611eae84828501611874565b6000830152506020611ec28482850161191f565b602083015250604082013567ffffffffffffffff811115611ee657611ee5611e5d565b5b611ef284828501611c5f565b60408301525092915050565b600080600060608486031215611f1757611f16611600565b5b6000611f258682870161191f565b935050602084013567ffffffffffffffff811115611f4657611f45611605565b5b611f5286828701611e62565b9250506040611f638682870161191f565b9150509250925092565b600080600060608486031215611f8657611f85611600565b5b6000611f948682870161191f565b9350506020611fa586828701611653565b925050604084013567ffffffffffffffff811115611fc657611fc5611605565b5b611fd286828701611874565b9150509250925092565b60008060408385031215611ff357611ff2611600565b5b60006120018582860161191f565b925050602083013567ffffffffffffffff81111561202257612021611605565b5b61202e85828601611c5f565b9150509250929050565b7f4e487b7100000000000000000000000000000000000000000000000000000000600052602260045260246000fd5b6000600282049050600182168061207f57607f821691505b6020821081141561209357612092612038565b5b50919050565b600081519050919050565b600082825260208201905092915050565b6000819050602082019050919050565b60006120d183836119ba565b60208301905092915050565b6000602082019050919050565b60006120f582612099565b6120ff81856120a4565b935061210a836120b5565b8060005b8381101561213b57815161212288826120c5565b975061212d836120dd565b92505060018101905061210e565b5085935050505092915050565b60006040830160008301516121606000860182611ae2565b50602083015184820360208601526121788282611981565b9150508091505092915050565b600060808301600083015161219d60008601826119ba565b5060208301516121b060208601826119ba565b50604083015184820360408601526121c882826120ea565b915050606083015184820360608601526121e28282612148565b9150508091505092915050565b600060408201905081810360008301526122098185612185565b9050818103602083015261221d8184611704565b90509392505050565b7f4e487b7100000000000000000000000000000000000000000000000000000000600052603260045260246000fd5b60008160001c9050919050565b6000819050919050565b600061227f61227a83612255565b612262565b9050919050565b60008190508160005260206000209050919050565b600081546122a881612067565b6122b28186611970565b945060018216600081146122cd57600181146122df57612312565b60ff1983168652602086019350612312565b6122e885612286565b60005b8381101561230a578154818901526001820191506020810190506122eb565b808801955050505b50505092915050565b600081549050919050565b60008190508160005260206000209050919050565b6000612347838361229b565b905092915050565b6000600182019050919050565b60006123678261231b565b61237181856119d4565b93508360208202850161238385612326565b8060005b858110156123be5784840389528161239f858261233b565b94506123aa8361234f565b925060208a01995050600181019050612387565b50829750879550505050505092915050565b600060608301600080840185830360008701526123ed838261229b565b925050600184015490506124008161226c565b61240d60208701826119ba565b50600284018583036040870152612424838261235c565b925050819250505092915050565b600073ffffffffffffffffffffffffffffffffffffffff82169050919050565b600061246561246083612255565b612432565b9050919050565b60006080830160008084015490506124838161226c565b61249060008701826119ba565b50600184015490506124a181612452565b6124ae6020870182611ae2565b50600284015490506124bf8161226c565b6124cc60408701826119ba565b506003840185830360608701526124e3838261229b565b925050819250505092915050565b60006080830160008084015490506125088161226c565b61251560008701826119ba565b5060018401858303602087015261252c83826123d0565b9250506004840154905061253f8161226c565b61254c60408701826119ba565b50600584018583036060870152612563838261246c565b925050819250505092915050565b6000602082019050818103600083015261258b81846124f1565b905092915050565b600081549050919050565b60008190508160005260206000209050919050565b60006125bf825461226c565b9050919050565b6000600182019050919050565b60006125de82612593565b6125e881856120a4565b93506125f38361259e565b8060005b8381101561262b57612608826125b3565b61261288826120c5565b975061261d836125c6565b9250506001810190506125f7565b5085935050505092915050565b600060408301600080840154905061264f81612452565b61265c6000870182611ae2565b50600184018583036020870152612673838261229b565b925050819250505092915050565b60006080830160008084015490506126988161226c565b6126a560008701826119ba565b50600184015490506126b68161226c565b6126c360208701826119ba565b506002840185830360408701526126da83826125d3565b9250506003840185830360608701526126f38382612638565b925050819250505092915050565b6000602082019050818103600083015261271b8184612681565b905092915050565b7f4e487b7100000000000000000000000000000000000000000000000000000000600052601160045260246000fd5b600061275d826118fe565b91507fffffffffffffffffffffffffffffffffffffffffffffffffffffffffffffffff8214156127905761278f612723565b5b600182019050919050565b60006127a6826118fe565b91506127b1836118fe565b9250828210156127c4576127c3612723565b5b828203905092915050565b60006080830160008084015490506127e68161226c565b6127f360008701826119ba565b506001840154905061280481612452565b6128116020870182611ae2565b50600284015490506128228161226c565b61282f60408701826119ba565b50600384018583036060870152612846838261229b565b925050819250505092915050565b6000602082019050818103600083015261286e81846127cf565b905092915050565b600082825260208201905092915050565b6000612892826119c9565b61289c8185612876565b9350836020820285016128ae856119e5565b8060005b858110156128ea57848403895281516128cb85826119f5565b94506128d683611a09565b925060208a019950506001810190506128b2565b50829750879550505050505092915050565b6000604082019050818103600083015261291681856124f1565b9050818103602083015261292a8184612887565b9050939250505056fea264697066735822122042ab1fd5123372a17d7badb47e015980d2ecdc842e53bce4564af276151a5db864736f6c634300080a0033",
  "immutableReferences": {},
  "source": "// SPDX-License-Identifier: CC-BY-SA-4.0\npragma solidity >=0.7.0 <0.9.0;\n\n\ncontract Monolith {\n\n   struct Order \n   {\n        uint256 id;\n        uint256 date;\n        uint256[] OrderLine_id;\n        Customer c;\n   }\n\n    struct OrderLine\n   {    \n        uint256 id;\n        Product p;\n        uint qty;\n        Delivery d;\n   }\n\n    struct Product\n   {\n        string name;\n        uint price;\n        string[] colori;\n   }\n\n    struct Customer\n   {\n        address id;\n        string name;\n   }\n\n    struct Delivery\n   {\n        uint256 id;\n        address Customer_id;\n        uint256 date;\n        string delivery_add;\n   }\n\n\n    event call_create_order(Order o, string referreal);\n    event call_pick_item(OrderLine ol);\n    event call_wrap_item(OrderLine ol, string[] notes);\n    event call_delivery_items(Delivery del);\n    event update_orderline(OrderLine ol);\n    event update_order(Order o);\n\n    mapping (address => Customer) public c;\n\n    Order[] public orders;\n    OrderLine[] public orderlines;\n    Product[] public p;\n    Delivery[] public deliveries;\n\n\n\n    function SignUP (string memory name) public {\n        c[msg.sender] = Customer(msg.sender, name);\n    }\n\n    function addProduct (string memory name, uint price, string[] memory colori) public {\n        p.push(Product(name,price,colori));\n    }\n\n\n    function Create_Order(address customer, string memory referreal) public \n    {\n        Order memory order;\n        order.date = block.timestamp;\n        order.c = c[customer];\n        order.id = orders.length;\n        orders.push(order);\n\n        emit call_create_order(order,referreal);\n    }\n\n\n    function add_orderline(uint order_id, Product memory prod, uint qty) public {\n        OrderLine memory ol;\n        ol.qty = qty;\n        ol.p = prod;\n        ol.id = orderlines.length;\n        orderlines.push(ol);\n        orders[order_id].OrderLine_id.push(ol.id);\n    }\n\n\n    function pick_item (uint ol_id) public {\n        emit call_pick_item(orderlines[ol_id]);\n\n        for (uint i = 0; i < orders.length; i++) { \n            uint256[] memory ols = orders[i].OrderLine_id;\n            for (uint j = 0; j <  ols.length; j++) \n            { \n                if ( ols[j] == ol_id)\n                {\n                    emit update_order(orders[i]);\n                }\n            }\n        }\n    }\n\n\n    function wrap_item (uint ol_id, string[] memory notes) public \n    {\n         emit call_wrap_item(orderlines[ol_id],notes);\n    }\n\n\n    function deliveryItems (uint ol_id, address cust, string memory add) public \n    {\n        deliveries.push(Delivery(deliveries.length, cust, block.timestamp,add));\n        orderlines[ol_id].d = deliveries[deliveries.length-1];\n\n        emit call_delivery_items(deliveries[deliveries.length-1]);\n        emit update_orderline(orderlines[ol_id]);\n    }\n\n}",
  "sourcePath": "/home/andrea/Scrivania/Master-Thesis/Truffle/showcase_1/contracts/Monolith.sol",
  "compiler": {
    "name": "solc",
    "version": "0.8.10+commit.fc410830.Emscripten.clang"
  },
  "schemaVersion": "3.4.3",
  "updatedAt": "2022-09-29T09:33:12.297Z",
  "networkType": "ethereum",
  "devdoc": {
    "kind": "dev",
    "methods": {},
    "version": 1
  },
  "userdoc": {
    "kind": "user",
    "methods": {},
    "version": 1
  }
}